:10000000D01E0020450A00005F390000310A0000C0
:10001000310A0000310A0000310A0000000000002F
:10002000000000000000000000000000D10B0000F4
:10003000310A0000000000009D0B0000310A0000A2
:10004000750D0000750D0000750D0000750D0000A8
:10005000750D0000750D0000750D0000750D000098
:10006000750D0000750D0000750D0000750D000088
:10007000750D0000750D0000750D0000750D000078
:10008000750D0000750D0000750D0000750D000068
:10009000750D0000750D0000750D0000750D000058
:1000A000750D0000750D0000750D0000750D000048
:1000B000750D0000750D0000750D0000750D000038
:1000C000750D0000750D0000750D0000750D000028
:0C00D000750D0000750D0000750D00009E
:1000DC0053B94AB9002908BF00281CBF4FF0FF31A3
:1000EC004FF0FF3000F00CB8ADF1080C6DE904CE08
:1000FC0000F008F8DDF804E0DDE9022304B07047F5
:10010C00704700BF2DE9F04786468C460846089E8E
:10011C00154674461946002B40F0C2808542B2FA4F
:10012C0082F245D94AB1C2F1200300FA02FC2EFA40
:10013C0003F3954043EA0C0C94404FEA154EA8B2D9
:10014C00BCFBFEF8230C0EFB18CC08FB00F943EAB1
:10015C000C43994528D9EB1808F1FF3704D299457F
:10016C0002D9A8F102072B44A3EB0903A4B2B3FBF9
:10017C00FEFC0EFB1C330CFB00F044EA0344A042D3
:10018C0014D92C190CF1FF3304D2A04202D9ACF1D2
:10019C0002032C44241A43EA07401EB1D440002326
:1001AC0034607360BDE8F0874746DDE76346F1E7EE
:1001BC0092BB431B01214FEA154EAFB2B3FBFEFCC1
:1001CC00200C0EFB1C330CFB07F840EA034398454C
:1001DC0062D9EB180CF1FF3004D2984502D9ACF17E
:1001EC0002002B44A3EB0803A4B2B3FBFEFC0EFBF2
:1001FC001C330CFB07F744EA0344A7424ED92C19D5
:10020C000CF1FF3304D2A74202D9ACF102032C4407
:10021C00E41B43EA0040C0E7C2F1200320FA03F1DB
:10022C00954090402EFA03F303434FEA154EAFB2BC
:10023C00B1FBFEFC0EFB1C10190C0CFB07F841EA81
:10024C000041884504FA02F422D969180CF1FF30F8
:10025C0004D2884502D9ACF102002944A1EB080173
:10026C009BB2B1FBFEFC0EFB1C110CFB07F743EA27
:10027C0001439F420ED9EB180CF1FF3104D29F427F
:10028C0002D9ACF102012B44DB1B41EA004192E79D
:10029C006046E3E76146F7E76046A3E76346B7E7E6
:1002AC00834206D916B9002108467BE7C6E900E06F
:1002BC00F9E7B3FA83F78FB9834201D3724508D8B3
:1002CC00BEEB020460EB030301209C461EB9002127
:1002DC0068E73846FAE7C6E9004CF8E7C7F1200CA6
:1002EC00BB4022FA0CF41C432EFA0CF120FA0CF34E
:1002FC00B84001434FEA14490EFA07F5B3FBF9F87D
:10030C001FFA84FE09FB18300B0C08FB0EFA43EAAB
:10031C0000439A4502FA07F240D9E31808F1FF307E
:10032C0004D29A4502D9A8F102002344A3EB0A0394
:10033C0089B2B3FBF9F809FB183308FB0EFE41EA4E
:10034C0003418E452CD9611808F1FF3304D28E4538
:10035C0002D9A8F10203214443EA0040A0FB029811
:10036C00A1EB0E014145CE46434602D306D14D4585
:10037C0004D2B9EB020E68EB04030138002EA6D0B0
:10038C00B5EB0E0261EB030101FA0CFC22FA07F348
:10039C004CEA0303F940C6E9003198E74046C5E74B
:1003AC004346D9E700B583B04FF0FF324FF0FF332F
:1003BC00254801F0CFFE2548026801320260244B2B
:1003CC00196801391960234B83FB023CD317C3EB2B
:1003DC002C1303EB8303A2EBC303036011B91C4B77
:1003EC0028221A60184801F035FF184B1B68184A70
:1003FC0012681344282B02D103B05DF804FB04F0FF
:10040C0053F9154B185803F028FF0146134803F015
:10041C0001F90E4B19680E4B1A688B18104803F033
:10042C00F9F804210DEB010003F0FFFA019B0D48D4
:10043C00A0FB0320C00800EB8000A3EB400000F5FC
:10044C00C87002F0BAFFD7E7E4040020800800204F
:10045C00B8040020676666660800000018490000B2
:10046C0048490000CDCCCCCC08B5034803F0D2F8F9
:10047C00FFF798FFFCE700BF7C49000008B5034874
:10048C0003F0C8F8FFF78EFFFCE700BF90490000AF
:10049C0008B5024803F0BEF8002008BDA4490000CE
:1004AC0008B5024B1B68984708BD00BFBC04002070
:1004BC00014B1860704700BFBC04002000B585B02C
:1004CC000A460023009301930293039302238DF8B1
:1004DC000230044B01930146684602F011FD05B051
:1004EC005DF804FBAD04000080B505460E461746CA
:1004FC00984602F0FBFA034604F0D6F80446DFF8FF
:10050C00189049F80030424639463046A84754F80E
:10051C00090000F0E7FA00BF080000002DE9F043E5
:10052C0083B0044608461546238B13F0080F05D1FB
:10053C0003F0070600230093019354E0012909D02E
:10054C0043F02003238385F31188BFF36F8F03B02F
:10055C00BDE8F08343F010032383F4E7204603F057
:10056C0091F842E0D4F814904A466946204603F0CC
:10057C00A2F84FF00008238B03F00707B74269D0AD
:10058C00A268002A66D0012243F00803238385F376
:10059C001188BFF36F8F002A64D1009B2BB14B469F
:1005AC003A466946204603F0FFF8B8F1000F02D036
:1005BC0034492046C047EFF31185202383F312887A
:1005CC00BFF36F8F238B23F008032383238B13F04C
:1005DC00100F4DD023F0100323830120268B06F03F
:1005EC0007060028AFD00228B8D00028ABD00138BD
:1005FC0004282BD801A353F820F000BF710500008C
:10060C00590600001D0600003106000045060000DA
:10061C002369D3F800800621204603F009F84FF037
:10062C000009A8E72369D3F804800421204602F0CE
:10063C00FFFF4FF000099EE72369D3F808800521DE
:10064C00204602F0F5FF4FF0000994E74FF0000848
:10065C00C14690E7009A0AB1002295E7B8F1000F65
:10066C0092D1B3E74A463946204602F0E9FF94E7B7
:10067C0013F0200F04D023F0200323830220ADE7D6
:10068C000020ABE7E337000008B5034802F0C2FFD7
:10069C00024802F0BFFF08BDCC490000044A00002C
:1006AC0030BFFFF7FDBF00BF38B50446054D2A46E5
:1006BC00054903F06FFF054A0021601903F078FF2C
:1006CC0038BD00BF00000000044900000400000019
:1006DC0070B50646064D074B1D444C1B2046FFF7D4
:1006EC00E3FF083CC6F8984005F1080070BD00BF58
:1006FC000000000004000000074B9B6893F90E20DB
:10070C00002A08DB044A5269934204D0034A536816
:10071C0043F08053536070475809002000ED00E00F
:10072C0038B51446264B9B6A13F0100F1AD11025BE
:10073C00234B9B6A13F0080F00D01225204B9B6AA9
:10074C0013F0020F11D01E4B5A6B9B6A13F0800FE3
:10075C000AD0002930D01A4A936A23F0800393629E
:10076C00132502E01125E3E71325154B9B6A13F0C3
:10077C00010F00D01425124B9B6A13F0200F1DD1D2
:10078C000F4B9B6A13F0100F01D10D4B9B6A0C4B56
:10079C009B6A13F0200F04D0094A536A23F40053C8
:1007AC005362074A936A43F0FF039362012103F0FB
:1007BC00D6F82070284638BD1325D6E71525DFE777
:1007CC0000ED00E038B51546204B9B6A13F4805FB2
:1007DC0019D116241D4B9B6A13F4006F00D01824FA
:1007EC001A4B9B6A13F4007F10D0184B9A6B9B6AC0
:1007FC0013F4004F09D0D9B1144A936A23F400437F
:10080C009362192402E01724E4E719240F4B9B6A26
:10081C0013F4806F00D01A240C4B9B6A13F4807F66
:10082C0008D10A4B9B6A13F4005F04D01C2402E02D
:10083C001924EBE71B24054A936A43F47F43936224
:10084C00012103F08CF82870204638BD00ED00E043
:10085C00174B9B6A13F0007F25D11D20144B9B6A0C
:10086C0013F0807F00D01F20114B9B6A13F4002FD4
:10087C0000D021200E4B9B6A13F4802F00D0222035
:10088C000B4B9B6A13F4003F00D02320084B9B6A50
:10089C0013F4803F09D1064A936A6FEA03436FEA67
:1008AC001343936270471E20D8E72420F3E700BF60
:1008BC0000ED00E081690D4B5A6942F480725A6177
:1008CC00BFF34F8FBFF36F8F31F8021C5A6922F4BC
:1008DC0080725A61BFF34F8FBFF36F8F4DF6027367
:1008EC00994201D0002070470120704700ED00E0D4
:1008FC0038B5054600230B701A4BD86A10F002006D
:10090C002DD10C46DB6A002B2ADB164BD86A10F073
:10091C00804025D02846FFF7CDFF08B128681FE09E
:10092C00104B9B6A13F0FF0F0DD10E4B986A10F40D
:10093C007F400ED10B4B9B6AB3F5803F10D32846FA
:10094C00FFF786FF0CE0224601212846FFF7E8FE60
:10095C0006E0224601212846FFF734FF00E0002084
:10096C0038BD00BF00ED00E030B58BB00C46264B17
:10097C005968C1F30801002383F31188BFF36F8F0B
:10098C0002F07F43B3F17F4F15D102F00C03082B1B
:10099C0014D012F0080F0BD000250DF127022046C1
:1009AC0002F0E2FF86469DF8273053B10BB030BD04
:1009BC0004460125F1E700252C46EEE700252C46E0
:1009CC00EBE70DF1040C20686168A268E368ACE801
:1009DC000F0020696169A269E369ACE80F0045B1B9
:1009EC00C3F308025AB96FEA53236FEA43230893FF
:1009FC0005E0089B23F4FF7323F00103089301A97E
:100A0C00704602F097FFD1E700ED00E0044B5A6905
:100A1C0042F010025A615A6922F008025A6170477A
:100A2C0000ED00E0EFF30880EFF3098101B57246A9
:100A3C00FFF79AFF01BD00BF00201349087000208A
:100A4C0080F31488BFF36F8F00F08CFF00200F49E8
:100A5C000860BFF34F8F0E4880F3088800F01CF835
:100A6C00202080F311880B484FF40061401880F36C
:100A7C000988EFF314800221084380F31488BFF334
:100A8C006F8F00F0F1F800008B09002094ED00E06E
:100A9C00D01E00209011002072B6002383F313881F
:100AAC0008E003F120010E4A4FF0FF3042F821001C
:100ABC000133DBB2072BF4D9002308E003F160010A
:100ACC00074A4FF0FF3042F821000133DBB2072B0D
:100ADC00F4D962B6BFF34F8FBFF36F8F704700BF6F
:100AEC0000E100E008B50A4B9B68834202D003F09A
:100AFC00D6FC08BDEFF30583002BF8D0054B5A68E4
:100B0C0042F080525A605A6A22F400425A62EEE76E
:100B1C005809002000ED00E00A4A9368C3F89C00D5
:100B2C006FF00A01C3F8A01007494B6843F08053DB
:100B3C004B60002383F31188BFF36F8F9368D3F856
:100B4C00A00070475809002000ED00E0EFF311837E
:100B5C00202383F31288BFF36F8F0A4A5369936083
:100B6C00094A4FF000615160D3F89810074A1160A0
:100B7C00D3F89C200021C3F89C1082F31188BFF39A
:100B8C006F8F70475809002000ED00E084080020AA
:100B9C000B498A684FF030001044EFF3098C80E861
:100BAC00F01F74467046FFF7D1FFA64604498A68C9
:100BBC0002F1300090E8F01F8CF3098870470000B8
:100BCC00580900201EF0040F0CBFEFF30880EFF360
:100BDC000980816911F8021C0229FFD001B502F0CD
:100BEC00B2FE01BD002807DB00F01F024009012303
:100BFC009340024A42F82030704700BF00E100E009
:100C0C0000280CDB00F01F02400901239340203028
:100C1C00034A42F82030BFF34F8FBFF36F8F7047FA
:100C2C0000E100E0002808DB4901C9B200F1604096
:100C3C0000F5614080F80013704700F00F00490187
:100C4C00C9B2014B1954704714ED00E04209054B31
:100C5C0053F8222000F01F00012303FA00F010408B
:100C6C00704700BF00E100E008B50B4B0B4A22F0C7
:100C7C007F029A60BFF34F8FBFF36F8FD3F888203A
:100C8C0022F47002C3F8882001F0C8F901F0E8FFE3
:100C9C0000F050F801F01EFA00ED00E0000000003A
:100CAC0010B4A2F120040E4942F8081C21F00101F5
:100CBC0042F8081C42F8203C019B42F81C3C029B69
:100CCC0042F8183C039B42F8143C4FF0807342F8F6
:100CDC00043C04650023C0F89C3010BC704700BF76
:100CEC00F504000000B50E460B4B9860D0F8981038
:100CFC000A4B196015462C4686F309884FF0000004
:100D0C00074B984720464FF000014FF000024FF080
:100D1C000003044C204700BF580900208408002021
:100D2C00E7390000F5040000014B10221A617047EE
:100D3C0000ED00E0002206E003F00F03094919441E
:100D4C0020230B760132262A0ADC53B2002BF3DB6C
:100D5C0003F1604303F56143202183F80013F1E7AD
:100D6C00704700BFFCEC00E008B5EFF30583103BC7
:100D7C00044A02EBC301496852F833008847FFF775
:100D8C00BBFC08BD2847000008B5024B1B68984700
:100D9C00002008BD88080020034B1860034A937894
:100DAC0043F002039370704788080020C0040020B1
:100DBC0008B5064921F00701C1F1005202F5803255
:100DCC00034802F0A7FB002008BD00BFD71E00207F
:100DDC008C080020024B0122C3F8402500207047EC
:100DEC0000E0014030B108B5034B800143F0010332
:100DFC00984708BD704700BF10490000F0B583B09C
:100E0C0005460C4616468AB20F4883681B6829466D
:100E1C0098470346C00F01D103B0F0BD56B1184638
:100E2C00FAE702F0E2FF01903A4601A9A81903F093
:100E3C00B1FB3E44A64204D2A71B042FF1D90427D0
:100E4C00EFE70020E8E700BF1447000000487047B8
:100E5C00EC080020034BC01A8010034B03FB00F07E
:100E6C00704700BFAC080020B76DDBB638B505463F
:100E7C000C46FFF7EFFF01464022034802F068FEE4
:100E8C0001462846A04738BD0047000030B583B066
:100E9C0005460C46FFF7DEFF014640230093234630
:100EAC00054A064802F06EFE011E01DB03B030BDA0
:100EBC002846A047FAE700BFD93B000000470000D6
:100ECC0008B510B101280DD008BD0021084802F06A
:100EDC00CDFD836813F0070FF6D10021044802F012
:100EEC0025FEF1E70121024802F020FEECE700BFED
:100EFC000047000010B582B0EFF31184202383F378
:100F0C001288BFF36F8F154A136843F0020111600A
:100F1C0013F0010F09D1002384F31188BFF36F8FF5
:100F2C00B3B902F05BFE02B010BD0DF10702012156
:100F3C004FF0804002F07EFD9DF80730012B01D070
:100F4C000023E9E7FFF782FF02F0DEFD0123E3E770
:100F5C000021034802F0EAFDE5E700BFFC08002091
:100F6C000047000010B5EFF31184202383F312889F
:100F7C00BFF36F8F074A136823F00201116013F05F
:100F8C00010F04D084F31188BFF36F8F10BD02F0F2
:100F9C002AFEF7E7FC08002070B582B00546012850
:100FAC0007D14FF08043D3F81C3403F00303012B1B
:100FBC004BD003F04CF9044618B9284B1B78002B86
:100FCC0038D1EFF31186202383F31288BFF36F8F90
:100FDC00012424B94FF080430222C3F8082301AA4C
:100FEC0000214FF0804002F025FD20B1019B012B28
:100FFC0026D0012D24D0FCB1304602F002FD4FF07A
:10100C008043D3F81835002BE9D14FF08043D3F847
:10101C000431002BE3D04FF080430022C3F80421AD
:10102C00D3F804210122C3F818250D49C1F88021F9
:10103C009A60D4E70026CCE7012002F0DEFDDEE763
:10104C002CB186F31188BFF36F8F02B070BD4FF0D7
:10105C0080430222C3F80423F7E700BF8B0900206A
:10106C0000E100E000B585B0CDF800D0CDF804D09B
:10107C0000230293012303936B46074A02F09EFD63
:10108C00002805DB4FF480420023684601F046F946
:10109C0005B05DF804FB00BF333C000008B5064BFF
:1010AC001B7803B108BD4FF4A57003F05FF8024B39
:1010BC0001221A70F6E700BF8809002070B50646B9
:1010CC0000220121104602F07CFC114800F082FD48
:1010DC00104B984219D100F091FD0024012C12D82C
:1010EC002146304602F0C2FC05462146304602F04D
:1010FC00C8FC094902F07DFB002805DB0123AB602D
:10110C001C44E4B2EAE7002070BD6FF00400FBE77A
:10111C00CD0E00000000AD0B344A000010B50446A3
:10112C00104B0121BFF35B8F53E8002F43E80010F5
:10113C000028F9D1BFF35B8F1AB1631E012B0DD9B7
:10114C0010BD094802F09DFC084900234B608B60E0
:10115C00CB6001238B6002F069FBEEE72046FFF7C2
:10116C001BFFEDE7A80800200047000098080020AE
:10117C0010B5044C2046FFF79BF92046FFF70CFEF8
:10118C00002010BD9511000030B583B005468DF8D8
:10119C000700022401220DF10701002000F05AFE85
:1011AC0038B9094B1B785BB13CB102F05EFD013CD8
:1011BC00F0E7054B01221A7002E0034B00221A7073
:1011CC00284603B030BD00BF89090020EFF311821F
:1011DC00202383F31288BFF36F8F0A4BD3F80031AF
:1011EC006BB1084BD3F80805C0B20021C3F800114D
:1011FC00D3F8003182F31188BFF36F8F70476FF013
:10120C000A00F7E700D00040F0B586468578C47830
:10121C00EFF3118C202383F31288BFF36F8F0678C2
:10122C0033464778AD1B2540AA4200D9AAB2B01864
:10123C0020408EF800008CF31188BFF36F8F0846A6
:10124C0007E00EEB0302527900F8012B0133234027
:10125C00624602F1FF3C1FFA8CFC002AF1D1BE421F
:10126C000ED1EFF31183202282F31288BFF36F8F1C
:10127C009EF800208EF8012083F31188BFF36F8F46
:10128C00401A80B22D1A9EF80430AB4202D3024BA6
:10129C0001221A60F0BD00BF00D00040F8B50D4629
:1012AC00144613F0010F03D12548FFF7ADFFF8BD2D
:1012BC000AB92046FBE7EFF31186202383F312884B
:1012CC00BFF36F8F0D20FFF7C1FC07460D2002F016
:1012DC0073FB86F31188BFF36F8F1A4B0022C3F890
:1012EC000021D3F8002101221A60174B4FF4005251
:1012FC00C3F8802126460AE0EFF31180202383F304
:10130C001288BFF36F8F02F07CFB00E08EB10D4BA7
:10131C00D3F80031002BEFD0FFF758FF0A4B4FF4F6
:10132C000052C3F880210028F0DB013EB6B2A8556C
:10133C00ECE7002FBDD00D2002F039FBB9E700BF60
:10134C002009002000D0004000E100E010B5FFF7BC
:10135C003DFF002806DBC4B221460A4802F08EFC91
:10136C00002800DB10BD2146074802F087FC00284E
:10137C0003DB064800F0ACFFF4E7054B01225A6092
:10138C00F7E700BF200900203509002010090020D4
:10139C0000D00040F8B50F46144607E04FF0FF327E
:1013AC004FF0FF3306F1100000F0B8FFBCB10D4E4A
:1013BC004FF0FF324FF0FF33304600F0AFFF2246C4
:1013CC00394606F13500FFF71FFF0546304600F0A1
:1013DC007FFF002DE2D0641BA4B22F44E6E700206F
:1013EC00F8BD00BF0009002010B5184C01221146B1
:1013FC00204602F010FF0122002104F1100002F03F
:10140C000AFF0422082104F1350002F04AFC0C22E8
:10141C00102104F1200002F044FC0D4BD3F80425FC
:10142C0022F00102C3F804250024C3F80041D3F8CC
:10143C0000210121C3F80413196022460D2002F08B
:10144C00C0FA0D2002F0B3FA204610BD00090020AE
:10145C0000D0004021F07F4100F5A870014B43F80B
:10146C0020107047001001404FF480338340024A33
:10147C00C2F84433704700BF001001404FF4803372
:10148C008340024AC2F84833704700BF0010014045
:10149C00014BD3F804057047001001402DE9F843C7
:1014AC00054689469046FFF7E9FF284602F065FCA1
:1014BC004E46032710E0FFF7EBFF0446494602F0C7
:1014CC004BFCB0F5000F26D9284602F056FCB8F1BB
:1014DC00000F22D13E19013731462846FFF7BAFFDB
:1014EC002846FFF7C1FFFFF7D3FF0446C11C304667
:1014FC0002F032FC0A4B98420AD9284602F030FC22
:10150C000028D8D1B8F1000FE4D06FF0150000E03E
:10151C000020BDE8F8830020FBE76FF01500F8E72A
:10152C00FDFF7F00034B044AC3F80823C3F848238C
:10153C00704700BF0010014003000F0010B50123DD
:10154C0083406FEA030C0E4ABFF35B8F52E8001F17
:10155C0001EA0C0E42E800E4002CF7D1BFF35B8FDC
:10156C004FF4803282400748C0F80823BFF35F8FE6
:10157C00BFF36F8F0B4214BF0120002010BD00BFC2
:10158C0048090020001001404FF480338340144A76
:10159C00D2F80423134201D10020704710B5044641
:1015AC0001238340DB430F49BFF35B8F51E8002FCE
:1015BC0002EA030041E8000CBCF1000FF6D1BFF3C6
:1015CC005B8F22FA04F313F0010F03D1204602F0D3
:1015DC00C7FB18B1204602F0D0FB012010BD00BFA4
:1015EC00001001404409002001B9704701238340D9
:1015FC00114ABFF35B8F52E800CF4CEA030C42E870
:10160C0000C10029F7D1BFF35B8F4FF480338340C7
:10161C000A4AC2F80433BFF35B8F094B1B68BFF354
:10162C005B8FC34013F0010FDFD0064B4FF4003239
:10163C00C3F80021D9E700BF480900200010014081
:10164C004409002000E100E038B514461046194664
:10165C0002F09FFB02460D490B68E01A1B184C6800
:10166C0044F100040B604C60A2F50013B3F5400F7D
:10167C0009D2074B1B68190A1B06D41841F1000547
:10168C00044BC3E9004501F0ADFB38BD5806002002
:10169C004C0900206006002038B50D4B1C68250A4B
:1016AC002406BFF35F8FFFF7F3FE0346001945F1E5
:1016BC000001B3F5801F0AD2064BD3E900239042F8
:1016CC0071EB030303D210F1807041F1000138BDBE
:1016DC004C090020600600202DE9F0410646144616
:1016EC001D469DF820801046194602F052FB074615
:1016FC00FFF7D2FFA04271EB050319D2201A65EB5C
:10170C0001011D4B984271F100012FD21B4B03EBD1
:10171C000613D3E90223AB4208BFA24201D1002039
:10172C0018E0424639463046FFF7B8FE90B11BE050
:10173C00B8F1000F1DD10123B340114ABFF35B8FE9
:10174C0052E8000F184342E800010029F8D1BFF31A
:10175C005B8F0020094B320103EB0616C6E90245EC
:10176C0006999950079B7360BDE8F0816FF01500E6
:10177C00FAE76FF01500F7E701008000480600203B
:10178C004409002030B585B0FFF7CCFE00231E4A7B
:10179C00C2F80835002B25DD1B4C0225C4F8045378
:1017AC001A4B4FF40032C3F8802100220121112082
:1017BC0002F007F9112002F0FAF80123A36023606C
:1017CC00134A1360002402940194124B0093124AA2
:1017DC000023204602F0EDFA2846FFF79FFC204636
:1017EC0005B030BD0D4A02EB03124FF0FF304FF045
:1017FC00FF31C2E902014FF480329A400249C1F82C
:10180C0004230133C6E700BF0010014000E100E0F3
:10181C004809002055160000FFFF7F0048060020F5
:10182C002DE9F04782B00446FFF7AEFE10B902B0C6
:10183C00BDE8F087FFF730FF82460D4602F0ACFAA8
:10184C000646154B03EB0413D3E90289C24575EB2D
:10185C0009050BD20025304602F0A6FA002DE6D081
:10186C00009742464B462046A847E0E70A4A230128
:10187C0002EB0411D5584F680020D0504FF0FF32C6
:10188C004FF0FF33C1E902232046FFF7F7FD204656
:10189C0002F073FADFE700BF4806002010B50D4BCD
:1018AC00D3F8043313F0020F03D10024002C0BDD0A
:1018BC0010BD0221074802F019FA0028F5D0064A9B
:1018CC00136801331360F0E72046FFF7A9FF0134DA
:1018DC00ECE700BF001001404C09002010B584B0AB
:1018EC00B0F1FF3F18D001281BDD154B9842A8BF63
:1018FC0018460446134B01221A70FFF7CDFE124B0B
:10190C001A685B68801AB0F5000F0CD20444B4F569
:10191C00000F09D30A4C07E00A4B00221A70084C3E
:10192C00EBE70124E6E7064C002012190290019027
:10193C000649009143F1000302F03BFA04B010BDDC
:10194C00FFFF7F008A090020580600205516000072
:10195C0008B5FFF7A1FE024B1B68C01A08BD00BFFB
:10196C005806002008B502F044FA40B14FF08053FD
:10197C00D3F82433C3F304235C4AC2F8403502F095
:10198C004AFA10B15A4B5B4A5A6702F05AFA48B1FC
:10199C004FF08053D3F84432C3F342334FF08042BC
:1019AC00C2F83C3502F05FFA30B1534AD2F8FC3041
:1019BC0023F08073C2F8FC3002F06BFA40B14FF0A8
:1019CC0080430022C3F80C21C3F81021C3F838253A
:1019DC0002F071FA20B14FF080430322C3F8A02526
:1019EC0002F07FFA60B1454B0522C3F810260122A4
:1019FC00C3F888260022C3F818263F22C3F8142601
:101A0C0002F085FA002846D04FF08052D2F8041428
:101A1C003B4BC3F82015D2F80814C3F82415D2F8A0
:101A2C000C14C3F82815D2F81014C3F82C15D2F8DE
:101A3C001414C3F83015D2F81814C3F83415D2F8AE
:101A4C001C14C3F84015D2F82014C3F84415D2F86E
:101A5C002414C3F84815D2F82814C3F84C15D2F83E
:101A6C002C14C3F85015D2F83014C3F85415D2F80E
:101A7C003414C3F86015D2F83814C3F86415D2F8CE
:101A8C003C14C3F86815D2F84014C3F86C15D2F89E
:101A9C004424C3F8702502F05CFA48B14FF080532F
:101AAC00D3F8583203F04F034FF08042C2F8E43EB3
:101ABC0002F061FA60B14FF08043D3F8003413F0B8
:101ACC00010F05D04FF080436FF00102C3F80024E2
:101ADC0002F063FA30B10B4AD2F83C3743F480631E
:101AEC00C2F83C3702F081FA08BD00BF003001405B
:101AFC0000C007400DF0ADBA00ED00E00050004012
:101B0C0000C00040001000400D4BD3F8FC1041F019
:101B1C008072C3F8FC20A3F55D43186840F0010205
:101B2C001A605A68074B5B689B1AB3F50A5FF9D3C6
:101B3C00044B186003F55D43C3F8FC10704700BFFD
:101B4C0000ED00E0001000E070B582B0064618B160
:101B5C00012816D002B070BD4FF080430222C3F8AA
:101B6C0008230122DA600022C3F80421D3F80431DF
:101B7C0001238DF807309E420FD0002542F21074DD
:101B8C0013E04FF080430122C3F808235A6000226F
:101B9C00C3F80021D3F80031EAE70DF10705EDE7B2
:101BAC00012002F032FA013C0CD02A4631464FF0AB
:101BBC00804002F02EFA28B1002DF1D09DF80730AC
:101BCC00012BEDD0012EC5D1014B00225A71C1E77A
:101BDC0050090020064B1B793BB9054B18600122BC
:101BEC001A7100225A71034870470348704700BFAE
:101BFC00500900200000AD0B0C00AD0B08B5064BD6
:101C0C001B680BB102F023FA02F01FFA4FF080436D
:101C1C00C3F8180508BD00BF5009002070B582B08C
:101C2C0018B1012848D002B070BD4FF08043D3F8F2
:101C3C001824D3F8183403F00303019312F4803FF3
:101C4C0013D14FF08043D3F8143413F0010F10D19B
:101C5C0002F0FBF90190019A4FF08043C3F818256C
:101C6C0008254FF4827302262AE001A802F0F8F945
:101C7C00F1E74FF08043D3F81C3403F003030193D6
:101C8C0001A802F0EDF90028E5D01C4B1B682BB124
:101C9C004FF080430222C3F80423C4E74FF0804383
:101CAC00D3F80431002BF9D04FF080430022C3F855
:101CBC000421D3F80431B6E700254FF480730126D4
:101CCC0003F18044002222602268B3F5827F0BD09E
:101CDC0005F1804501232B60084B1B683BB14FF08D
:101CEC008043C3F804639EE7FFF70EFFF0E7236819
:101CFC00002BFCD000232360236894E750090020BC
:101D0C0008B54FF08043D3F800318BB14FF08043CE
:101D1C000022C3F80021D3F800210122C3F80823C4
:101D2C00154B5B7923B9144B5A711B6800209847EB
:101D3C004FF08043D3F804319BB14FF08043002225
:101D4C00C3F80421D3F80421D3F81824D3F8183499
:101D5C0013F0030F06D14FF080430122C3F818256E
:101D6C009A6008BD4FF080430222C3F80823024B4F
:101D7C001B6801209847F4E75009002010B5154C5A
:101D8C00A8220021204602F013FC03232361636187
:101D9C00114AA261114BE3614FF48063236200236B
:101DAC00A3626362E36222660D4A62661022A26637
:101DBC002367E3666367BFF35F8F06E0C3F10F022F
:101DCC000849895C034AD15401330F2BF6D9BFF370
:101DDC005F8F10BD10040020944A000010000020FA
:101DEC0000000020A04A0000F8B50F461646451C1E
:101DFC0005EB4505164B03EBC50500EB400003EB6B
:101E0C00C003DC6A012C11D0022C1CD014B10024AC
:101E1C002046F8BD284602F03DF98642F8D83246F5
:101E2C003946284602F042F93446F1E7284602F0DA
:101E3C0031F93446864228BF0446224639462846A4
:101E4C0002F034F9E4E7284602F056F90446DFE7DD
:101E5C0010040020F8B504460D461646094B1B78B5
:101E6C006BB1EFF311874FF0200181F311883246EB
:101E7C0029462046FFF7B8FF87F31188F8BDFFF716
:101E8C007DFFEEE71004002038B5EFF31185202319
:101E9C0083F31288BFF36F8F054B9C6802F074F9C3
:101EAC0085F31188BFF36F8F2046FEF71BFE38BDFC
:101EBC005809002038B505460A4B53F8204002E07B
:101ECC002368984708346B1C064A52F82330A34207
:101EDC0006D96368002BF3D0204602F058F9F1E7DD
:101EEC0038BD00BFC44A000010B586B0A823104C02
:101EFC0003FB004400EB800C0E4B03EB8C030E4AEF
:101F0C000592012204920F22039200220292019266
:101F1C0000930A4B4FF4A072094901EB8C11204637
:101F2C0000F024FA637B23F00403637306B010BD46
:101F3C006806002058090020B44A0000DD4100006A
:101F4C009019002008B553EA020102D102F087F97A
:101F5C0008BD0249183000F0BFFEF9E72B44000021
:101F6C0010B586B0184C14E0636A0593236A049389
:101F7C00E3690393A3690293636901932369009353
:101F8C00E368A2686168206800F0F0F923685C657A
:101F9C0030340E4B9C42E7D300F0A8FC0A4C00E016
:101FAC0030340A4B9C420BD2A26AE36AB3F1FF3F76
:101FBC0008BFB2F1FF3FF3D02068FFF7C3FFEFE794
:101FCC0000F0ACFC06B010BD60480000C04800003A
:101FDC0008B50B4B01221A700320FFF76BFFFEF7BD
:101FEC0053FB02F0F4F80420FFF764FFFFF7B8FF8F
:101FFC00FEF74EFA034A137B23F00103137308BD5B
:10200C008B0900201007002008B50146014A024840
:10201C00FEF768FEDD1F00001007002008B503481E
:10202C00034A121A002102F0CAF808BDF804002075
:10203C008C09002010B50446FFF756FFA8230A4967
:10204C0003FB0411094A04EB840302EB8303D960FC
:10205C001C74074B03EBC42303F5006304EB8404EB
:10206C0002EB8402536010BD680600205809002062
:10207C009011002070B586B000F06EFC104D114B25
:10208C005D61114B05930123049300240394029486
:10209C00019400940D4B4FF480620D49284600F0DA
:1020AC0065F906466B7B23F004036B73284602F03C
:1020BC004FF92046FFF7BEFF304606B070BD00BF9B
:1020CC001007002058090020BC4A0000DD1F00004A
:1020DC00D01A002008B50020FFF7ECFE194B83F353
:1020EC000888194C636943F400736361E02384F836
:1020FC0022300025E57725766576A57684F8205084
:10210C00636A43F4E023636284F82350FEF77EFC99
:10211C00FEF70AFE4FF0FF33A362E3620B4B012480
:10212C005C731C73C3F89450094A936000F0DCFE96
:10213C002046FFF7BFFE0220FFF7BCFEFFF79AFF19
:10214C00FFF762FF9019002000ED00E0B8070020B7
:10215C00580900202DE9F04182B00446EFF31187B5
:10216C00202181F31288BFF36F8FC16899B90029C0
:10217C0050D1364B9B6893F90E3023610131E160ED
:10218C00324B9B68A36087F31188BFF36F8F0020DD
:10219C0002B0BDE8F08116461D4682682B4B9B6849
:1021AC009A42E4D055EA060136D092F90E804146A7
:1021BC0093F90E0002F019F8804534DC4FF000085A
:1021CC000096019522463946214800F0CDFA0028A8
:1021DC00DED0EFF31185202383F31288BFF36F8FCA
:1021EC00A36843B323689C4223D013B3216993F9AA
:1021FC000E0001F0FAFF0146204602F001F8E8B9A2
:10220C00B8F1000F1AD185F31188BFF36F8F6FF0FF
:10221C000A00BDE72369B0E787F31188BFF36F8F1E
:10222C006FF00F00B4E70146204601F0E9FF80464D
:10223C00C6E72169E0E7B8F1000FE4D0294604486D
:10224C0000F00AFB6FF00A00A2E700BF580900205B
:10225C007C09002038B583687BB304461A4A92681F
:10226C0093422DD1C368012B03D9013BC3600020DD
:10227C0038BDEFF31185202383F31288BFF36F8FE2
:10228C00016901F0BDFF204602F0CFF8A06068B1F3
:10229C0090F90E3023610024C0F8A04002F058F8E9
:1022AC0029460A4800F0D8FA2046E1E70020E06011
:1022BC0085F31188BFF36F8FDAE76FF01500D7E75E
:1022CC004FF0FF30D4E700BF580900207C090020F4
:1022DC0038B50446EFF31185202383F31288BFF33E
:1022EC006F8F02F0A2F848B10022C0F8A02002F0D3
:1022FC002FF82946084800F0AFFA38BDA368E26809
:10230C00934207D001221344A36085F31188BFF3D5
:10231C006F8FF2E70022F6E77C09002010B582B03F
:10232C00EFF31181202484F31288BFF36F8F84683C
:10233C0044B1013C846081F31188BFF36F8F00209E
:10234C0002B010BD53EA020406D00092019302467B
:10235C00054800F009FAF3E781F31188BFF36F8F9A
:10236C006FF00F00ECE700BF7C0900202DE9F04F67
:10237C0085B004460F4615461E46DDF838A0DDF83C
:10238C003C90DDF84080DDF84CB000F158038365DB
:10239C00C365129B0422119901F065FF2A46394648
:1023AC00204601F047FF0546CDF80880CDF8049093
:1023BC00CDF800A03346024639462046FEF770FCA5
:1023CC00002363652666C4F864A0C4F86890C4F85A
:1023DC006C80EFF31182202383F31288BFF36F8F8D
:1023EC00124B196A21671C6282F31188BFF36F8F3D
:1023FC00BBF1000F13D01F22594604F1740002F0F8
:10240C00DFF8002384F89330084B9B685BB1D3F85A
:10241C009430C4F89430284605B0BDE8F08F002302
:10242C0084F87430F0E7C4F89430F4E758090020CD
:10243C0010B5114B53F8184F9C420FD074B180B9A2
:10244C000D4B9B685A7B12F01F0F0AD1A26942B93F
:10245C00DA897F2A05D9084A53610BE0064BDC6800
:10246C00EDE7054B9B68A34202D0204600F07AFBB7
:10247C00014B5C6110BD00BF5809002008B5437BBF
:10248C0090F90D20002A08DB094B9B68834214BF8E
:10249C0000200120FFF7CCFF08BD03F07F0343733E
:1024AC004268036813605A60002303604360EBE7E3
:1024BC0058090020B3F1FF3F08BFB2F1FF3F00D134
:1024CC00704708B50249183000F006FC08BD00BF83
:1024DC002B440000427B90F90D30002B33DB70B5A0
:1024EC00044612F01F0F01D1866906B170BD62F06F
:1024FC007F024273144B53F8185F9D4208D1354646
:10250C0006E06B68636025601C606C6017E0354604
:10251C006DB12946204601F0B7FE0028F1DC002DF4
:10252C00F6D0094BDB699D42F1D02D68F0E7064BE4
:10253C00DA6903F11801216062601460DC6100202B
:10254C00FFF776FFD2E7704758090020437B0B4218
:10255C0058D170B504460D460B43437313F0800FEE
:10256C001BD1082D24D000260120FFF761FF102D70
:10257C0041D0204600F056FB46B1234B01225A7342
:10258C001A730022C3F89420204A9360BFF35F8F24
:10259C00637B23F06003637370BD03F07F034373AD
:1025AC004268036813605A60002303604360D8E7F5
:1025BC00A3685BB16268236813605A6000232360D0
:1025CC006360627B22F002026273A36004F1180064
:1025DC0001F0BFFF04F1580001F060FE0B4B9B684B
:1025EC00A34201D00026BFE7EFF305830BB9002609
:1025FC00BAE70126B8E7BFF35F8F637B23F0600374
:10260C006373C9E7704700BFB80700205809002062
:10261C0038B505460C46124B9868437B13F0600F97
:10262C0005D013F0200F07D00821FFF78FFF84F39C
:10263C001188BFF36F8F0EE01021F6E7EFF31184D2
:10264C00202383F31288BFF36F8F01F0CCFD84F34A
:10265C001188BFF36F8F6B7B13F0600FEED138BD19
:10266C0058090020F8B504460E46154600F15807E7
:10267C0001F004FEB8B1637B55B1202213436373A0
:10268C00EFF3058333B131462046FFF7C1FFF8BDA8
:10269C004022F3E73946104B986801F022FE304691
:1026AC0001F0EEFDF3E765B108212046FFF74EFF80
:1026BC00094B9B68A34206D086F31188BFF36F8F3A
:1026CC00E5E71021F1E7EFF30583002BF4D1304659
:1026DC0001F0D6FDDBE700BF5809002038B50546F0
:1026EC00437B90F90D20002A0ADB6B7B63F07F03A0
:1026FC006B731C4B53F8184F9C4213D1002411E000
:10270C0003F07F0343734268036813605A6000232D
:10271C0003604360E9E763686B602C601D60656073
:10272C0017E000246CB12146284601F0ADFD0028CD
:10273C00F1DC002CF6D00B4BDB699C42F1D0246809
:10274C00F0E7084BDA6903F1180129606A6015603B
:10275C00DD61044B9868A84214BF00200120FFF7EC
:10276C0067FE38BD5809002010B50C4611460A48C2
:10277C0082680A4B1A60EFF31183202383F31288CB
:10278C00BFF36F8FDDE90223806801F0D5FD204691
:10279C00FEF7C2F910BD00BF580900207C090020CB
:1027AC002DE9F04105460F460023EFF31186202258
:1027BC0082F31288BFF36F8F184629E063686B6051
:1027CC002C601D60656017E044466CB121462846BC
:1027DC0001F05AFD0028F1DC002CF6D01D4BDB6912
:1027EC009C42F1D02468F0E71A4BDA6903F1180126
:1027FC0029606A601560DD610120FFF719FE012078
:10280C0001E0AF73002086F31188BFF36F8F0123B3
:10281C00F3B96B7B13F01F0FF3D1D5F81880B8F117
:10282C00000FEED103F07F036B736A682B681360A3
:10283C005A6000232B606B60AF736B7B63F07F037C
:10284C006B73044B53F8184F9C42BED14446BCE703
:10285C00BDE8F0815809002008B50B4659B9EFF3D3
:10286C00058242B9064A50699268904203D00846E4
:10287C00FEF752F903E083F31188BFF36F8F08BDA5
:10288C005809002010B5EFF31184202383F312882C
:10289C00BFF36F8F437B13F0040F04D184F31188C3
:1028AC00BFF36F8F10BD23F004034373FFF712FEC9
:1028BC0021460248FFF7D0FFF4E700BF7C09002057
:1028CC0008B5034650B9EFF305823AB9064A516987
:1028DC009268914202D0FEF71FF903E083F311884E
:1028EC00BFF36F8F08BD00BF580900200023EFF322
:1028FC001181202282F31288BFF36F8F09E0064BFF
:10290C009A68D37B013BD37381F31188BFF36F8F2C
:10291C000123002BF3D070475809002010B5002379
:10292C00EFF31184202282F31288BFF36F8F0CE037
:10293C00084B9A68D37B0133D3730020FFF778FDE3
:10294C0084F31188BFF36F8F0123002BF0D001F0BB
:10295C0097FD10BD5809002008B5024801F09BFDF9
:10296C0008BD00BF6C09002070B5EFF31186202361
:10297C0083F31288BFF36F8F1E4B9A68517B01F063
:10298C007F0151735068116801604860002111602B
:10299C0051609D686A7B62F07F026A7353F8184F2E
:1029AC009C4208D1002406E063686B602C601D60BB
:1029BC00656017E000246CB12146284601F064FCE8
:1029CC000028F1DC002CF6D00A4BDB699C42F1D0DC
:1029DC002468F0E7074BDA6903F1180129606A6093
:1029EC001560DD610120FFF723FD3046FEF794F8FA
:1029FC0070BD00BF580900202DE9F04150EA0103D9
:102A0C0037D004460E466FF001031B1A4FF0FF320D
:102A1C0062EB0102012B72F100022EDB6FF001055B
:102A2C002D1AEFF31188202383F31288BFF36F8FD5
:102A3C00144FB868144B1860FFF720FDB868224695
:102A4C0033461249183000F047F9BA68537B43F00B
:102A5C00100353734046FEF75FF801F097FD281AF8
:102A6C0063EB0303012873F1000300DA0020BDE8D7
:102A7C00F081FFF779FF0020F9E701F087FD0519D8
:102A8C00CFE700BF580900207C0900202B44000030
:102A9C0008B5B1F1FF3F08BFB0F1FF3F1DD0FFF704
:102AAC00ABFFC217510141EAD06143011B1A61EB24
:102ABC000201890041EA93719B001B1842EB010251
:102ACC00D20042EA5372DB0047F6FF71581842F10C
:102ADC000002C00B40EA424008BD034B986801F06D
:102AEC0052FC4FF0FF30F7E758090020014B986873
:102AFC00704700BF58090020044BC01AC010044B8B
:102B0C0003FB00F0034B01221A54704760080020AD
:102B1C00ABAAAAAA80090020C3897F2B11D80E4B1F
:102B2C001B687BB190F90E200C4B1B689A420CDB96
:102B3C00437B13F01F0F0AD1094B984209D0012394
:102B4C0000E0002303F0010070470023FAE70023A4
:102B5C00F8E70023F6E700BFD4040020D0040020DF
:102B6C006806002070B505460D4B1E7C06EB46032F
:102B7C000C4C04EBC304204601F0EBFC0A4B002286
:102B8C009A552846FFF7C8FF00B970BD074B1A6865
:102B9C00013AD3170649204600F09EF8F5E700BF2E
:102BAC00580900206008002080090020D40400206F
:102BBC00052B000038B5EFF31185202383F3128821
:102BCC00BFF36F8F144B9C68144B1B68A34217D038
:102BDC00124B00221A60104B1B7C114AD35C53B170
:102BEC002046FFF799FF30B1637B13F01F0F0FD016
:102BFC002046FFF7B7FF85F31188BFF36F8F38BD01
:102C0C002046FFF7AFFF85F31188BFF36F8FF6E710
:102C1C002046FFF763FDEBE7580900207C090020F4
:102C2C0080090020EFF31181202383F31288BFF376
:102C3C006F8F0A4B1B6A834204D11A6F074B1A62BF
:102C4C0007E0134613B11A6F8242FAD10BB1026F2F
:102C5C001A6781F31188BFF36F8F704758090020F2
:102C6C0008B50648064A121A064901F0ACFA064A9B
:102C7C000649074801F0A7FA08BD00BFB8040020B8
:102C8C00F8040020EC4A000000000000EC4A0000B0
:102C9C00B8040020034B1868984200D070470020FD
:102CAC00FCE700BFD804002030B1044A52689042BF
:102CBC0001D0006870470020704700BFD804002086
:102CCC0008B5044B1B680BB1002008BDFEF740FE95
:102CDC00FBE700BF84090020B3F1FF3F08BFB2F14E
:102CEC00FF3F77D02DE9F047044692461D468160A0
:102CFC000023EFF31187202282F31288BFF36F8F2A
:102D0C0026E01AF1010845F10009FFF7D9FF18EB8D
:102D1C00000349EBE070236160613BE0521A66EB03
:102D2C000303026143614368636020601C6044607C
:102D3C0005E0294B5A682360626014605C60FFF701
:102D4C00A9FF84423AD087F31188BFF36F8F012318
:102D5C00002B3DD153466FF00101B1EB0A014FF04E
:102D6C00FF3060EB0502002ACBDB1C4A116852686D
:102D7C005B1842EB05026FF00101C91A60EB02030C
:102D8C0008461A46012973F1000301DA01200022DA
:102D9C0020616261FFF77EFF0028CAD00269466994
:102DAC0021696369914273EB060EB7DB891A63EBF9
:102DBC00060321616361FFF777FFEDE7084B1B68A2
:102DCC00002BC0D101F0A8FB0021FEF787FDBAE76C
:102DDC00BDE8F087704700BFD804002078080020B9
:102DEC008409002070B5EFF31186202383F3128839
:102DFC00BFF36F8F2A4B1860FFF74CFF044623E09C
:102E0C00284A136851685B1941EBE57113605160F6
:102E1C0000220023C4E90423204601F066FB86F35C
:102E2C001188BFF36F8FA36820469847EFF3118684
:102E3C00202383F31288BFF36F8F194A13685B1B2F
:102E4C001360FFF727FF04463CB125696169144BF9
:102E5C001A68D317AA428B41D2DA44B1236962694A
:102E6C000F4909685B1A62EBE172236162610D4ADA
:102E7C000B4D2868136851681B1841EBE071136007
:102E8C00516000242C6001F047FB2146FEF726FD23
:102E9C0086F31188BFF36F8FFFF78CFE70BD00BFF8
:102EAC00840900207808002010B50022EFF311846B
:102EBC00202383F31288BFF36F8F134611460CE067
:102ECC00FFF7FEFE074A13685168C31841EBE07127
:102EDC0084F31188BFF36F8F0122002AF0D01846BB
:102EEC0010BD00BF78080020034B00E01433034AE8
:102EFC009342FBD3704700BF0047000028470000F7
:102F0C002DE9F04F8DB043680293837815469A07EC
:102F1C00804640F10D8100240E78002E00F00A81CD
:102F2C00252E0BD04B1C03930134029B414630469B
:102F3C0098470028C0F2F6800399EDE74E788B1C79
:102F4C00252E0393F0D00027B946BB46BBF11F0FCB
:102F5C0038D8A6F12003102B0AD8DFE803F02A0991
:102F6C0009300909092109090928092D09091F0036
:102F7C00A6F13003092B33D92A2E37D11BF0400F81
:102F8C0055F8043B40F08280002BA7BF4BF0200B80
:102F9C009946C3F100094BF0280B01E04BF0010BF3
:102FAC00039B13F8016B0393002ECFD130E04BF051
:102FBC00020B4BF0040BF3E74BF0080BF0E74BF074
:102FCC00100BEDE7BBF17F0F19D8A6F13003092BDD
:102FDC00D2D81BF0400F03D00A2101FB0737DFE7E3
:102FEC000A2101FB09394BF0200BD9E72E2E06D113
:102FFC001BF0400F40F09E804BF0400BD0E76C2E46
:10300C0031D02BD8682E36D06A2E3CD04C2E3AD0EC
:10301C00002F46F02003B8BF2BF04002A3F165014E
:10302C00BCBF1FFA82FB0027022901D9612B2FD1CB
:10303C00073525F00705DFF8ACA2083507271BF08C
:10304C00080F66D00AEB070B56465E4563D1A4EB1E
:10305C000A0A06EB0A02A9EB07096FE1742E9FD04E
:10306C007A2E9DD0D4E71BF0800F18BF4BF4007B59
:10307C004BF0800B94E71BF4807F18BF4BF4007B64
:10308C004BF4807B8CE74BF4207B89E71F4687E76A
:10309C00A6F16301122900F2F080DFE811F01300B1
:1030AC004F00EE00EE00EE00EE004F00EE00EE00E2
:1030BC00EE00EE00EE00FE00E900EE00EE001B005C
:1030CC00EE00AF0055F8043B8DF8183001270DF1D8
:1030DC00180AB4E755F804AB834BBAF1000F08BFDC
:1030EC009A461BF0400F14BF39464FF0FF31504643
:1030FC0001F076FA0746A2E7029B4146202098474A
:10310C0000280FDB013EB742F6D34C44A41BB1465A
:10311C0098E74E46F7E716F8010B029B4146984795
:10312C00002892DA98F8023043F0040388F8023051
:10313C004FF0FF3420460DB0BDE8F08F1BF0800F30
:10314C0034D01BF4007F2CD0073525F00705AA4698
:10315C0069685AF8080B2BF010050029ADB237DA64
:10316C00404261EB410145F480650DF1180B0A23D7
:10317C005A4601F041FAA0EB0B0301936B0662D5A2
:10318C00019B25F001019F4289B240F3A180002EE2
:10319C0000F0998015F0100240F09C80BB460D4663
:1031AC0023E0AA465AF8040BC117D4E7AA461BF42D
:1031BC00807F5AF8041B01D10846F5E71BF4007F09
:1031CC0015BF48B208B241F3C01141F3C031C2E798
:1031DC0050EA0103C9D11BF0400FC6D0002FC4D157
:1031EC002BF0110295B2BB46019740F2064115EA4D
:1031FC0001021CBF0BF1010B00222CE02BF0100282
:10320C001FFA82FB0A231BF0800C49D01BF40071BF
:10321C001DBF073525F00705AA46AA461ABF5AF85E
:10322C00080B69685AF8040B50EA010545D12BF0DC
:10323C0016051BF0400FADB242D0002F40D12BF041
:10324C00170295B2019715F0100248D0019B002E81
:10325C0042D103F1010B29075AD4EB0706D5D94506
:10326C006FDD0199A9EB0B035F18CB465B4649E078
:10327C004BF0100B10237826C5E7782B04D1C6F140
:10328C00780343F01003BEE7029B41462520984784
:10329C000028FFF647AF023447E608230026B2E7C2
:1032AC00AA461BF480715AF8040BBDD01BF40071B4
:1032BC001ABFC0B2614680B2B6E72BF0060295B2D7
:1032CC000DF1180B54E725F01105ADB2BB468CE798
:1032DC000D46B8E73B460D4603F1020BBBE7DDF8A4
:1032EC0004B082E7E34A0000DC4A0000CDE9043276
:1032FC004146029B202098470028FFF613AF049B01
:10330C00059A01339945F1DCA4EB0B01CC189B46D3
:10331C000AB3029B4146302098470028FFF602AFC3
:10332C008EB901342744019B391B994224DC1D467C
:10333C005DBB019AA9EB0B092244554614469144F6
:10334C0035E0019F92E7023441463046029B984794
:10335C000028E7DAE6E640F206410D42E2D015F02D
:10336C00020F14BF2B20202015F4806F04F10104F0
:10337C00414618BF2D20E9E7029B41463020984773
:10338C00002804F10104CEDACCE606AB013D41463F
:10339C00585D029B98470028CADAC3E6029B414657
:1033AC0020209847002804F10104FFF6BBAEA9EBDE
:1033BC000403002BF2DCBFE5704708B520EAE0708F
:1033CC00C117C90341EA5041C00340F2E733C018AA
:1033DC004FF47A724FF0000341F10001FCF778FED4
:1033EC00FFF756FB08BD00EBC1018368B3F5004F36
:1033FC000AD322B14B6843F001034B6070474B6812
:10340C0023F001034B60704722B14B8843F001035A
:10341C004B8070474B8823F001034B807047131D82
:10342C0050F82330DBB9C3684FF0010C0CFA02FCE6
:10343C0043EA0C03C360043240F8221000EBC103D2
:10344C008268B2F5004F06D399608268B2F5004FDE
:10345C0003D3D96070479980F7E7D980704710B5CE
:10346C0000EBC30C8468B4F5004F1CD3DCF80820C7
:10347C0000EBC10EB4F5004F18D3CEF808208468C9
:10348C00B4F5004F15D3CEF80C3000EBC2028368B4
:10349C00B3F5004F10D3D1608368B3F5004F0DD353
:1034AC00CCF8081010BDBCF80420E1E7AEF80420FD
:1034BC00E5E7AEF80630E8E7D180EDE7ACF80410AC
:1034CC00F0E708B58368B3F5004F07D300EBC102F2
:1034DC0052685208012A02D0002200E00022A2B950
:1034EC0000EBC102B3F5004F10D352685208B3F58C
:1034FC00004F0DD308230833A2EBD3020132B2FAEA
:10350C0082F2C2F11F02FFF78AFF08BD5288EDE775
:10351C000423F0E7F8B5B2F5802F23D30823D21A91
:10352C00CC1D24F0070401EB020C2CF0070CACEBC7
:10353C00040C4FEADC010460A1600023E360BCF5DD
:10354C00802F11D308230833A1EBD3030133B3FA33
:10355C0083F3C3F1200EC3F124039B00DE1DF50899
:10356C00002308E00423DAE70423ECE71A1D00200B
:10357C0044F8220001337345F8DB6B00BCF5802F57
:10358C0032D36360BCF5802F30D300232360BCF5AD
:10359C00802F2ED3636843F0010363604A1B5700EE
:1035AC0026F00703E018BCF5802F27D34760A068EE
:1035BC00B0F5004F24D3E5502CF00703A444A068C9
:1035CC00B0F5004F1ED30020CCF80400A068B0F575
:1035DC00004F1BD3E25001222046FFF704FF29467F
:1035EC002046FFF76EFFF8BD6380CBE700232380F6
:1035FC00CDE7638843F001036380CFE74780D6E7CC
:10360C00E552D9E70020ACF80200DFE7E252E2E72E
:10361C00002070470FB400B583B004A951F8040B17
:10362C000191FCF74BFF03B05DF804EB04B070475D
:10363C0001F00701038B23F007030B43038370474F
:10364C002DE9F04106460F469046816821B10C6881
:10365C003CB131B90C4604E00C4602E0234621464D
:10366C001C4669B14D6843463A463046A847002C83
:10367C00F4D02368002BF2D0002CF0D12346EEE7D7
:10368C00BDE8F081038B13F0070303D102680AB184
:10369C0003207047022B03D0012B06D0002070476B
:1036AC00428B002AF8D10420704703680BB1052027
:1036BC0070470020704710B504468C46038B002AD7
:1036CC0007DB03F007035A1F012A0ED9042B36D04F
:1036DC0010BDD0E900018CE8030000232360636077
:1036EC0001212046FFF7A4FFF2E7D0E900018CE8A6
:1036FC000300002222606260062B1BD1DCF8003034
:10370C0053B1628B013262831A461B68002BF7D0CF
:10371C00002AF5D11346F3E702212046FFF788FF74
:10372C002046FFF7AFFF0028D2D0238B43F02003B5
:10373C002383CDE700212046FFF77AFFF0E7002135
:10374C00FFF776FF2046FFF79DFF0028C0D0238BA4
:10375C0043F020032383BBE750B110B50C4651B1A5
:10376C00081D00F0C2F810B9A368032B06D810BDD1
:10377C006FF0150070476FF01500F8E76FF015004B
:10378C00F5E72DE9F04107460C4616461D4619464D
:10379C00201D00F0C1F828B180462B463246214648
:1037AC003846C047BDE8F0812DE9F04180460C4613
:1037BC0017461E4604E033463A464046FFF7E1FF03
:1037CC00216831B10D68256063688B42F3D1656067
:1037DC00F1E7BDE8F08108B5EFF311824FF0200C52
:1037EC008CF31288BFF36F8F41610121FCF796FEB9
:1037FC0008BD034670B181B10A688AB14A6892B1BA
:10380C000020186058609860D86018615861986101
:10381C00196170476FF0150070476FF01500704715
:10382C006FF0150070476FF01500704770B50546C6
:10383C000E46FFF791FF041E2EDBEFF311822023BF
:10384C0083F31288BFF36F8FB5F818C00CF0070C18
:10385C006B8B4FF6FF718B422CD06446BCF1020F80
:10386C0008D0BCF1060F19D8DFE80CF01E18181898
:10387C001E2A1E0001336B8301230021084628B148
:10388C0000203060686808B306606E6009BB82F384
:10389C001188BFF36F8F0BBB204670BD6FF0040413
:1038AC00002319461846EAE7BCFA8CF149090023B3
:1038BC000120E4E76FF00A04002319461846DEE7FE
:1038CC006FF08504002319461846D8E76E602E6009
:1038DC00DCE702212846FCF721FEDDE700236246E7
:1038EC0031462846FFF74DFFD6E7024658B14368EC
:1038FC0003F00303012B03D0032B07D1036843B15F
:10390C000020906070476FF0150070476FF0150045
:10391C0070476FF0150070470346426802F00302CF
:10392C008160032A03D1006800225A60704700208E
:10393C00FAE7704708B5012802D0FEF7A5FA08BDD2
:10394C00EFF30583F9E708B501460068FFF7F2FFCE
:10395C0008BD08B5FCF7A4FEFCF7CEFE08BD0020A0
:10396C00704700230B70704708B500231370CB1EF3
:10397C00092B1AD8DFE803F005090D1119191919CB
:10398C0019141146FCF7B4FF10E00021FCF7C8FE37
:10399C000CE00021FCF716FF08E0FCF759FF05E0EE
:1039AC001146FFF7DEFF002000E0002008BD08B53F
:1039BC0040B2FDF717F908BD08B540B2FDF720F984
:1039CC0008BD08B5013140B2FDF72CF908BD08B5AA
:1039DC0000210120FFF7AEFF08BD61B662B680F38F
:1039EC001188BFF36F8F704772B6002383F3118871
:1039FC00BFF36F8FBFF34F8F30BF62B6BFF36F8FC4
:103A0C00704772B6002383F31188BFF36F8FBFF337
:103A1C004F8F20BF80F31188BFF36F8F62B6704752
:103A2C0008B5FDF7B1F9002008BD08B50022FDF777
:103A3C00E5F908BD034619B101290CD000207047E7
:103A4C00D3F81804C0F300407AB1D3F8183403F05B
:103A5C00030313607047D3F80C04C0F3004022B189
:103A6C00D3F80C3403F0010313707047006901EBB9
:103A7C0041018900383108447047406800EBC100AF
:103A8C0070470069C1EBC10100EB8100704708B5BC
:103A9C00C9B2FFF7EBFF806800F0070008BDEFF339
:103AAC001182202383F31288BFF36F8F036813F006
:103ABC00C00301D08B4207D101230360002082F3A5
:103ACC001188BFF36F8F70474FF0FF30F7E7EFF3BC
:103ADC001182202383F31288BFF36F8F036803F0E6
:103AEC00C00C03F00703012B08D08C4509D04FF014
:103AFC00FF3082F31188BFF36F8F70470160002095
:103B0C00F7E76FF07700F4E7EFF31182202383F3EC
:103B1C001288BFF36F8F036803F0C00343F00203F6
:103B2C00036082F31188BFF36F8F7047F8B50646B8
:103B3C000C46FFF79BFF05684768002340F8083BDD
:103B4C00FFF7E2FF1DB13A4621463046A847F8BDC3
:103B5C0070B506461546CCB22146FFF787FF2946BD
:103B6C000830FFF79CFF002806DB21463046FFF7A4
:103B7C0084FF43689847002070BD08B58022FFF78A
:103B8C00E7FF08BD2DE9F041064690461F46CDB231
:103B9C002946FFF76BFF044606990830FFF797FF9D
:103BAC00002809DBC4F80080676029463046FFF71F
:103BBC0064FF036898470020BDE8F08110B582B01F
:103BCC0080240094FFF7DEFF02B010BD10B5144640
:103BDC00C9B2FFF756FF0021A04710BD08B5012060
:103BEC00FEF71CF808BD08B5012000F04FFA08BD1F
:103BFC0008B5002000F04AFA08BD08B520EAE070CC
:103C0C00C117C90341EA5041C00340F2E733C01861
:103C1C004FF47A724FF0000341F10001FCF758FAAF
:103C2C00FEF736FF08BD08B51046FEF751FB08BD80
:103C3C0008B5FDF733FA0020FDF7F0FF08BD08B515
:103C4C0020EAE070C117C90341EA5041C00340F2B9
:103C5C00E733C0184FF47A724FF0000341F10001C2
:103C6C00FCF736FAFEF714FF08BD08B500F0EFFAC2
:103C7C0000B108BD0220FFF7E2FFFAE74278837833
:103C8C0090F803C09A1A3CEA020207D0C21851718C
:103C9C00013303EA0C038370002070476FF0680057
:103CAC00704700230370437083700139C170027137
:103CBC00704700B5A2F5807E4FEA9E0E4FF0010CC6
:103CCC000CFA0EFC1CEA010F0DD0815809B900202A
:103CDC000AE00021815082581BB11A684CEA02029A
:103CEC001A60012000E000205DF804FB70B582B082
:103CFC0006460D460024019409E0A20001AB02F532
:103D0C00A07229463046FFF7D4FF0134E4B2032CED
:103D1C00F3D915F0010F02D0D6F8003143B915F0E4
:103D2C00020F02D0D6F8043163B9019802B070BD0D
:103D3C000023C6F80031D6F80031019B43F0010393
:103D4C000193ECE70023C6F80431D6F80431019B4B
:103D5C0043F002030193E8E7401A20F07F407047DC
:103D6C0000F150039B009BB203F1804303F58833B1
:103D7C001868003818BF0120704700F150039B00F1
:103D8C009BB203F1804303F5883300221A601B6851
:103D9C00704720F07F407047EFF31180202383F3AE
:103DAC001288BFF36F8F704780F31188BFF36F8F4A
:103DBC007047F0B585B0044617461D46FDF7BEFBAF
:103DCC0006469DF8303002930B9B01930A9B00939F
:103DDC003A462B462046FDF77FFC054631462046E9
:103DEC00FDF702FC284605B0F0BD08B5FDF754FC04
:103DFC0008BD4FF08053D3F83031B3F1FF3F03D0FF
:103E0C00062B06D0002070474FF0704393F8E03F2C
:103E1C00F6E7012070474FF0704393F8E02FD3F88A
:103E2C00E83FC3F30313062A01D000207047033B7D
:103E3C00002B04D8DFE803F00100012070470020BC
:103E4C0070474FF08053D3F83031B3F1FF3F03D0BC
:103E5C00062B06D0002070474FF0704393F8E03FDC
:103E6C00F6E7012070474FF0704393F8E02FD3F83A
:103E7C00E83FC3F30313062A01D000207047033B2D
:103E8C00002B04D8DFE803F001000120704700206C
:103E9C0070474FF08053D3F83031B3F1FF3F03D06C
:103EAC00062B06D0002070474FF0704393F8E03F8C
:103EBC00F6E7012070474FF0704393F8E02FD3F8EA
:103ECC00E83FC3F30313062A01D000207047033BDD
:103EDC00002B04D8DFE803F001000120704700201C
:103EEC0070474FF0704393F8E02FD3F8E83FC3F3DB
:103EFC000313062A01D000207047033B002B04D883
:103F0C00DFE803F0010001207047002070474FF0FC
:103F1C008053D3F83031B3F1FF3F07D04FF08052CC
:103F2C00D2F83421062B0AD0002070474FF0704293
:103F3C0092F8E03FD2F8E82FC2F30312F2E7033A0B
:103F4C00012A04D8DFE802F00101002070470120AB
:103F5C0070474FF08053D3F83031B3F1FF3F03D0AB
:103F6C00062B06D0002070474FF0704393F8E03FCB
:103F7C00F6E7012070474FF08053D3F83031B3F19E
:103F8C00FF3F03D0062B06D0002070474FF0704344
:103F9C0093F8E03FF6E7012070474FF08053D3F8D9
:103FAC003021D3F83431062A01D000207047052B7C
:103FBC0003D8032B03D30020704701207047012046
:103FCC0070474FF08053D3F83021D3F83431062AA0
:103FDC0001D000207047062B03D8032B03D30020FD
:103FEC007047012070470120704708B5FFF7E9FFC3
:103FFC0038B14FF01023D3F808224FF08043C3F8A8
:10400C00582508BD08B5804708BD08B500F0AEF8C6
:10401C0008BD034619B101290CD000207047D3F814
:10402C001804C0F300407AB1D3F8183403F003033A
:10403C0013607047D3F80C04C0F3004022B1D3F8DE
:10404C000C3403F00103137070470020704708B55F
:10405C000020FCF7FBFD00B108BDFFF7A8FCFBE757
:10406C0038B504460368012B02D033B9012300E0B4
:10407C0001231D461BB1284638BD0023F9E700205B
:10408C00FDF762FDFFF7E1FF2060F4E708B5FDF7EF
:10409C005BFD08BD0369C268934204D881688A1A23
:1040AC001344581E7047981A013870472DE9F8438D
:1040BC00044688461646C5688768A7EB05099145EE
:1040CC0009D94068284400F065FABFF35F8F354486
:1040DC00E560BDE8F88340684A46284400F05AFA87
:1040EC00ED1B35442A4608EB0901606800F052FAD2
:1040FC00BFF35F8FE560ECE72DE9F8430646884691
:10410C001746C5684FF000091AE05B1B5A1EB368CE
:10411C005C1B944228BF1446BC4228BF3C467068C6
:10412C0022464146284400F035FAA144A0443F1BE6
:10413C002544B368AB420BD0BFF35F8FF5604FB132
:10414C0033699D42E1D3B2685B1B1A44013ADEE746
:10415C000025F1E74846BDE8F88308B5FDF70EFEEB
:10416C0008BD08B5FFF7F9FF002008BD00B970477E
:10417C0008B5FCF737FE08BDEFF31183202383F35A
:10418C001288BFF36F8FFEE708B5FFF7F5FF10B588
:10419C00446803688BB12046984730B100280ADB8D
:1041AC00FF2800DDFF20E3681870E268537843F0C5
:1041BC000103537010BD4042F2E70020F5E708B54B
:1041CC0000F0F6F908BD08B500F0E4F908BD704739
:1041DC0008B5EFF31183202383F31288BFF36F8F9D
:1041EC00FFF702FCF5E700BF7047884200DA014692
:1041FC0011F17F0F01DB084670476FF07E007047AE
:10420C0008B5806890F90E308B4201D1002008BDB2
:10421C00FEF7C6FAFBE73AB18A4208D38160C26066
:10422C0000604060002070476FF0150070476FF021
:10423C001500704710B5073222F007028C18214682
:10424C00FCF746FA073020F00700201A10BDEFF3F8
:10425C000580003818BF012070477430704708B5CE
:10426C00FEF710FB08BD10B4002484600373427386
:10427C008173C4738461C46110BC704700207047A3
:10428C0008B5FCF749FC08BD90F90E3091F90E0009
:10429C00834201D0C01A70470020704770B50646A3
:1042AC00046884421AD0DCB16268236813605A60D7
:1042BC00002525606560637B23F002036373A560B2
:1042CC0004F1180000F045F9C4F8A0502046FEF7A0
:1042DC0001F93468A642E6D10024E4E70024E2E7C1
:1042EC0070BD70B505460E46FEF7C8F86B7B43F003
:1042FC0002036B73FEB1AE603468A64208D1002491
:10430C0006E063686B602C601D60656013E0002440
:10431C0064B121462846FFF7B7FF0028F1DC002CDA
:10432C00F6D073689C42F2D02468F1E773682E6073
:10433C006B601D60756070BD70B5044616461D46F9
:10434C00FFF7CFFF32462B462046FEF7B3F870BD81
:10435C0038B504460023EFF31185202282F312882E
:10436C00BFF36F8F04E085F31188BFF36F8F0123C8
:10437C0043B92046FFF782FF0028F4D12046FEF710
:10438C00A9F8F0E738BD10B50446183000F0E1F894
:10439C00EFF31181202383F31288BFF36F8F637BBC
:1043AC0013F0100F04D081F31188BFF36F8F10BD81
:1043BC0000222046FEF756F9F9E770B504460E4682
:1043CC000023EFF31185202282F31288BFF36F8F45
:1043DC0007E02046FEF77EF885F31188BFF36F8F58
:1043EC000123DBB9637B13F0280FF5D1A3685BB114
:1043FC006268236813605A60002323606360627BE9
:10440C0022F002026273A360637B23F004026273E6
:10441C00002EDED023F014036373DAE770BD08B509
:10442C0001211838FFF7C9FF08BD70B505460023F8
:10443C00EFF31186202282F31288BFF36F8F1C4694
:10444C0005E0002486F31188BFF36F8F0123ABB90D
:10445C002C68A542F5D0002CF4D062682368136058
:10446C005A60002323606360627B22F00202627355
:10447C00A36004F1180000F06CF8E3E7204670BD6F
:10448C0008B5EFF31180202383F31288BFF36F8FED
:10449C00FEF716FA08BD031D43608360704708B52C
:1044AC00EFF31181202383F31288BFF36F8F037B0B
:1044BC0013F0010F08D1437B13F0080F11D081F3D7
:1044CC001188BFF36F8F0BE081F31188BFF36F8FEF
:1044DC00002383F31188BFF36F8F0423184602DF88
:1044EC0008BD0122FEF7BEF8FAE710B50446FEF748
:1044FC00DBFB48B102460369416920691B186069FE
:10450C0041EB0001136151616268236813605A60CA
:10451C0000232360636010BD10B5FEF7BBFB04469F
:10452C00FEF7CEFB7CB1236962691B1A62EBE07269
:10453C00B3F1004F72F1000108DA002A01DB1846D2
:10454C0010BD0023FBE76FF00040F9E76FF000406F
:10455C00F6E770B504460023EFF31186202282F3B0
:10456C001288BFF36F8F6FF0150004E086F311888B
:10457C00BFF36F8F01231D463BB92368002BF5D089
:10458C002046FFF7B2FF2846F0E770BD08B5FEF7EE
:10459C008BFC08BD0A44914200F1FF3300D17047F7
:1045AC0010B511F8014B03F8014F9142F9D110BD30
:1045BC0002440346934200D1704703F8011BF9E70C
:1045CC0010B50139044632B111F8013F00F8013B36
:1045DC00013A002BF7D10021FFF7EAFF204610BD6E
:1045EC0010B5024601448A42134603D01C780132AE
:1045FC00002CF8D1181A10BDF0B5C3F137070446DA
:10460C00FFB203F01F031046082BE6B233D0102B79
:10461C003ED06508A40844EA817445EAC1752D1999
:10462C004FEA910242EB5102290941EA02716D18DD
:10463C0042EB1212290A41EA02616D1842EB122276
:10464C00290C41EA02416D1842EB1242AD1842F1BD
:10465C000002EC0844EA4274D10804EB8402A6EB95
:10466C004205EDB2092D0CD90134A5F10A0541F131
:10467C000001EDB212E0E40844EA417406F00705CB
:10468C00C908303554EA010200F8015BBCD1F0BD19
:10469C00240944EA017406F00F050909092D84BFA9
:1046AC00ED19EDB2EDE7000001480068704700001D
:0446BC00840800204E
:0846C00050BAFF7F0100000069
:1046C800E10D000000000000C910000000470000D4
:1046D8006F410000000000007D1100000000000094
:1046E800F5130000144700009117000000000000B7
:0846F800BD0D000000000000F0
:10470000404A0000504A0000604A0000E0040020D7
:10471000AC0800207C4A0000000000008C4A000029
:08472000E20400200009002062
:104728000D1D00001140000000000000DB390000F2
:1047380000000000DB39000000000000DB39000049
:1047480000000000DB39000000000000DB39000039
:1047580000000000DB39000000000000DB39000029
:1047680000000000DB39000000000000DB39000019
:1047780000000000DB39000000000000DB39000009
:1047880000000000DB390000000900205913000078
:1047980000000000DB39000000000000DB390000E9
:1047A80000000000DB39000000000000A91800002C
:1047B80000000000DB39000000000000DB390000C9
:1047C80000000000DB39000000000000DB390000B9
:1047D80000000000DB39000000000000DB390000A9
:1047E80000000000DB39000000000000DB39000099
:1047F80000000000DB39000000000000DB39000089
:1048080000000000DB39000000000000DB39000078
:1048180000000000DB39000000000000DB39000068
:1048280000000000DB39000000000000DB39000058
:1048380000000000DB39000000000000DB39000048
:1048480000000000DB39000000000000DB39000038
:0848580000000000DB39000044
:10486000A0050020900D0020000400007504000049
:104870000000000000000000000000000700000031
:1048800000000000C049000000000000000000001F
:10489000F8040020900900200004000089040000B2
:1048A0000000000000000000000000000700000001
:1048B00000000000B44900000000000000000000FB
:1048C000040000000F0000000100000008000000CC
:1048D0002000000060000000700000000D000000DB
:1048E0000C0000000E0000005000000074000000EA
:1048F0009C000000FFFFFFFFFFFFFFFFFFFFFFFF28
:04490000FFFFFFFFB7
:104910000338FDD8704700005261636520636F6EF5
:10492000646974696F6E2068617070656E642120BF
:1049300063757272656E7420546872656164203D9F
:104940002025730A0D000000496E6372656D656E67
:10495000745F636F756E742028256429202B2044B2
:10496000656372656D656E745F636F756E74202824
:10497000256429203D202564200A0D0054687265B5
:104980006164203120737461727465640A0D0000E3
:104990005468726561642032207374617274656456
:1049A0000A0D00006D61696E207374617274656434
:1049B0000A0D0000746872656164325F494400004A
:1049C000746872656164315F494400002A2A2A20B4
:1049D000426F6F74696E67206E524620436F6E6E31
:1049E0006563742053444B2076322E392E302D3798
:1049F0003738376232363439383430202A2A2A0A96
:104A0000000000002A2A2A205573696E67205A6523
:104A100070687972204F532076332E372E39392D16
:104A2000316638663364633239313432202A2A2AB7
:104A30000A000000990E0000790E0000000000003E
:104A4000636C6F636B403430303030303030000096
:104A5000010F0000710F00003D3C0000FD3B000015
:104A600071100000873B0000C93B000000000000FF
:104A70009B3A0000000000000000000072616E64BC
:104A80006F6D40343030306430303000A11300009E
:104A9000A91200005465726D696E616C000000001F
:104AA000000000000000545452205245474745532F
:104AB0000000000069646C65000000006D61696EB3
:104AC00000000000C8460000C8460000F046000094
:104AD000F84600000047000000470000286E756C93
:0C4AE0006C29002A666C6F61742A0000CB
:104AEC00280000001D360000000000002D3A0000D8
:104AFC00000000000000000004000000480100005D
:084B0C00D8040020D8040020A9
:044B1400000000009D
:104B1800E4040020E404002000000000000000007D
:044B28000E0000007B
:044B2C0015E015E09B
:0400000300000A45AA
:00000001FF
