:10000000D0100020F9090000713A0000E509000055
:10001000E5090000E5090000E50900000000000016
:10002000000000000000000000000000850B000040
:10003000E509000000000000510B0000E509000088
:10004000050D0000050D0000050D0000050D000068
:10005000050D0000050D0000050D0000050D000058
:10006000050D0000050D0000050D0000050D000048
:10007000050D0000050D0000050D0000050D000038
:10008000050D0000050D0000050D0000050D000028
:10009000050D0000050D0000050D0000050D000018
:1000A000050D0000050D0000050D0000050D000008
:1000B000050D0000050D0000050D0000050D0000F8
:1000C000050D0000050D0000050D0000050D0000E8
:1000D000050D0000050D0000050D000053B94AB9DB
:1000E000002908BF00281CBF4FF0FF314FF0FF3040
:1000F00000F00CB8ADF1080C6DE904CE00F008F882
:10010000DDF804E0DDE9022304B07047704700BF6A
:100110002DE9F04786468C460846089E15467446EB
:100120001946002B40F0C2808542B2FA82F245D9CE
:100130004AB1C2F1200300FA02FC2EFA03F3954003
:1001400043EA0C0C94404FEA154EA8B2BCFBFEF8F3
:10015000230C0EFB18CC08FB00F943EA0C4399452D
:1001600028D9EB1808F1FF3704D2994502D9A8F134
:1001700002072B44A3EB0903A4B2B3FBFEFC0EFB66
:100180001C330CFB00F044EA0344A04214D92C19A0
:100190000CF1FF3304D2A04202D9ACF102032C448B
:1001A000241A43EA07401EB1D44000233460736030
:1001B000BDE8F0874746DDE76346F1E792BB431BA6
:1001C00001214FEA154EAFB2B3FBFEFC200C0EFB33
:1001D0001C330CFB07F840EA0343984562D9EB183F
:1001E0000CF1FF3004D2984502D9ACF102002B4447
:1001F000A3EB0803A4B2B3FBFEFC0EFB1C330CFB09
:1002000007F744EA0344A7424ED92C190CF1FF33F7
:1002100004D2A74202D9ACF102032C44E41B43EA06
:100220000040C0E7C2F1200320FA03F1954090405E
:100230002EFA03F303434FEA154EAFB2B1FBFEFCB7
:100240000EFB1C10190C0CFB07F841EA0041884515
:1002500004FA02F422D969180CF1FF3004D288455F
:1002600002D9ACF102002944A1EB08019BB2B1FB19
:10027000FEFC0EFB1C110CFB07F743EA01439F42F7
:100280000ED9EB180CF1FF3104D29F4202D9ACF128
:1002900002012B44DB1B41EA004192E76046E3E7A1
:1002A0006146F7E76046A3E76346B7E7834206D9AE
:1002B00016B9002108467BE7C6E900E0F9E7B3FA82
:1002C00083F78FB9834201D3724508D8BEEB02048D
:1002D00060EB030301209C461EB9002168E7384605
:1002E000FAE7C6E9004CF8E7C7F1200CBB4022FA58
:1002F0000CF41C432EFA0CF120FA0CF3B840014325
:100300004FEA14490EFA07F5B3FBF9F81FFA84FE19
:1003100009FB18300B0C08FB0EFA43EA00439A4520
:1003200002FA07F240D9E31808F1FF3004D29A45E7
:1003300002D9A8F102002344A3EB0A0389B2B3FB5C
:10034000F9F809FB183308FB0EFE41EA03418E451C
:100350002CD9611808F1FF3304D28E4502D9A8F1D7
:100360000203214443EA0040A0FB0298A1EB0E01E6
:100370004145CE46434602D306D14D4504D2B9EBA2
:10038000020E68EB04030138002EA6D0B5EB0E0276
:1003900061EB030101FA0CFC22FA07F34CEA0303B8
:1003A000F940C6E9003198E74046C5E74346D9E73A
:1003B00038B5836805699C697CB112F4000F06D0DA
:1003C0002D6801238B401D4201D082F0C062044B96
:1003D000134002F0B072A04738BD6FF05700FBE742
:1003E0004000000608B5024803F062F808BD00BFEF
:1003F0008852000008B5174804F0D2FB08B9002065
:1004000008BD144804F0CCFB0028F8D000211248A5
:1004100003F043F80028F2DB0021104803F03DF818
:100420000028ECDB4FF050720F210A48FFF7C0FFA5
:100430000028E4DB0A490B4B4B604FF400438B6010
:10044000044803F03FF80028D9DB074803F044F8DC
:10045000FBE700BFF05000008852000090520000FF
:10046000B0020020E5030000C027090008B5024BD8
:100470001B68984708BD00BF0000002000B585B08C
:100480000A460023009301930293039302238DF8FD
:100490000230044B01930146684602F079FD05B035
:1004A0005DF804FB6D04000080B505460E46174656
:1004B000984602F06FFB034604F0F2FD0446DFF8B5
:1004C000189049F80030424639463046A84754F85B
:1004D000090000F0E7FA00BF080000002DE9F04332
:1004E00083B0044608461546238B13F0080F05D148
:1004F00003F0070600230093019354E0012909D07B
:1005000043F02003238385F31188BFF36F8F03B07B
:10051000BDE8F08343F010032383F4E7204603F0A3
:1005200040F942E0D4F814904A466946204603F068
:1005300051F94FF00008238B03F00707B74269D049
:10054000A268002A66D0012243F00803238385F3C2
:100550001188BFF36F8F002A64D1009B2BB14B46EB
:100560003A466946204603F0AEF9B8F1000F02D0D2
:1005700034492046C047EFF31185202383F31288C6
:10058000BFF36F8F238B23F008032383238B13F098
:10059000100F4DD023F0100323830120268B06F08B
:1005A00007060028AFD00228B8D00028ABD0013809
:1005B00004282BD801A353F820F000BF2505000024
:1005C0000D060000D1050000E5050000F90500005A
:1005D0002369D3F800800621204603F0B8F84FF0D5
:1005E0000009A8E72369D3F804800421204603F01A
:1005F000AEF84FF000099EE72369D3F80880052183
:10060000204603F0A4F84FF0000994E74FF00008EB
:10061000C14690E7009A0AB1002295E7B8F1000FB1
:1006200092D1B3E74A463946204603F098F894E75A
:1006300013F0200F04D023F0200323830220ADE722
:100640000020ABE7F538000008B5034803F071F867
:10065000024803F06EF808BD98520000D052000026
:1006600030BFFFF7FDBF00BF38B50446054D2A4631
:10067000054904F08CFC054A0021601904F095FC42
:1006800038BD00BF000000008052000004000000E0
:1006900070B50646064D074B1D444C1B2046FFF720
:1006A000E3FF083CC6F8984005F1080070BD00BFA4
:1006B0000000000004000000074B9B6893F90E2027
:1006C000002A08DB044A5269934204D0034A536863
:1006D00043F08053536070475403002000ED00E066
:1006E00038B51446264B9B6A13F0100F1AD110250B
:1006F000234B9B6A13F0080F00D01225204B9B6AF6
:1007000013F0020F11D01E4B5A6B9B6A13F0800F2F
:100710000AD0002930D01A4A936A23F080039362EA
:10072000132502E01125E3E71325154B9B6A13F00F
:10073000010F00D01425124B9B6A13F0200F1DD11E
:100740000F4B9B6A13F0100F01D10D4B9B6A0C4BA2
:100750009B6A13F0200F04D0094A536A23F4005314
:100760005362074A936A43F0FF039362012103F047
:1007700085F92070284638BD1325D6E71525DFE713
:1007800000ED00E038B51546204B9B6A13F4805FFE
:1007900019D116241D4B9B6A13F4006F00D0182446
:1007A0001A4B9B6A13F4007F10D0184B9A6B9B6A0C
:1007B00013F4004F09D0D9B1144A936A23F40043CB
:1007C0009362192402E01724E4E719240F4B9B6A73
:1007D00013F4806F00D01A240C4B9B6A13F4807FB3
:1007E00008D10A4B9B6A13F4005F04D01C2402E07A
:1007F0001924EBE71B24054A936A43F47F43936271
:10080000012103F03BF92870204638BD00ED00E0DF
:10081000174B9B6A13F0007F25D11D20144B9B6A58
:1008200013F0807F00D01F20114B9B6A13F4002F20
:1008300000D021200E4B9B6A13F4802F00D0222081
:100840000B4B9B6A13F4003F00D02320084B9B6A9C
:1008500013F4803F09D1064A936A6FEA03436FEAB3
:100860001343936270471E20D8E72420F3E700BFAC
:1008700000ED00E081690D4B5A6942F480725A61C3
:10088000BFF34F8FBFF36F8F31F8021C5A6922F408
:1008900080725A61BFF34F8FBFF36F8F4DF60273B3
:1008A000994201D0002070470120704700ED00E020
:1008B00038B5054600230B701A4BD86A10F00200B9
:1008C0002DD10C46DB6A002B2ADB164BD86A10F0C0
:1008D000804025D02846FFF7CDFF08B128681FE0EB
:1008E000104B9B6A13F0FF0F0DD10E4B986A10F45A
:1008F0007F400ED10B4B9B6AB3F5803F10D3284647
:10090000FFF786FF0CE0224601212846FFF7E8FEAC
:1009100006E0224601212846FFF734FF00E00020D0
:1009200038BD00BF00ED00E030B58BB00C46264B63
:100930005968C1F30801002383F31188BFF36F8F57
:1009400002F07F43B3F17F4F15D102F00C03082B67
:1009500014D012F0080F0BD000250DF1270220460D
:1009600003F091F886469DF8273053B10BB030BDA7
:1009700004460125F1E700252C46EEE700252C462C
:10098000EBE70DF1040C20686168A268E368ACE84D
:100990000F0020696169A269E369ACE80F0045B105
:1009A000C3F308025AB96FEA53236FEA432308934B
:1009B00005E0089B23F4FF7323F00103089301A9CA
:1009C000704603F046F8D1E700ED00E0044B5A69A9
:1009D00042F010025A615A6922F008025A617047C7
:1009E00000ED00E0EFF30880EFF3098101B57246F6
:1009F000FFF79AFF01BD00BF0020134908700020D7
:100A000080F31488BFF36F8F00F058FF00200F4968
:100A10000860BFF34F8F0E4880F3088800F01CF881
:100A2000202080F311880B484FF40061401880F3B8
:100A30000988EFF314800221084380F31488BFF380
:100A40006F8F00F0DFF800008E03002094ED00E0CF
:100A5000D01000209003002072B6002383F3138887
:100A600008E003F120010E4A4FF0FF3042F8210068
:100A70000133DBB2072BF4D9002308E003F1600156
:100A8000074A4FF0FF3042F821000133DBB2072B59
:100A9000F4D962B6BFF34F8FBFF36F8F704700BFBB
:100AA00000E100E008B50A4B9B68834202D004F0E5
:100AB000F3F908BDEFF30583002BF8D0054B5A6816
:100AC00042F080525A605A6A22F400425A62EEE7BB
:100AD0005403002000ED00E00A4A9368C3F89C002C
:100AE0006FF00A01C3F8A01007494B6843F0805328
:100AF0004B60002383F31188BFF36F8F9368D3F8A3
:100B0000A00070475403002000ED00E0EFF31183D4
:100B1000202383F31288BFF36F8F0A4A53699360CF
:100B2000094A4FF000615160D3F89810074A1160EC
:100B3000D3F89C200021C3F89C1082F31188BFF3E6
:100B40006F8F70475403002000ED00E0BC020020CE
:100B50000B498A684FF030001044EFF3098C80E8AD
:100B6000F01F74467046FFF7D1FFA64604498A6815
:100B700002F1300090E8F01F8CF309887047000004
:100B8000540300201EF0040F0CBFEFF30880EFF3B6
:100B90000980816911F8021C0229FFD001B502F019
:100BA00061FF01BD002807DB00F01F02400901239F
:100BB0009340024A42F82030704700BF00E100E055
:100BC000002808DB4901C9B200F1604000F561402E
:100BD00080F80013704700F00F004901C9B2014BC3
:100BE0001954704714ED00E04209054B53F82220D8
:100BF00000F01F00012303FA00F01040704700BF0F
:100C000000E100E008B50B4B0B4A22F07F029A602E
:100C1000BFF34F8FBFF36F8FD3F8882022F4700299
:100C2000C3F8882001F068FB02F06EF800F050F87D
:100C300001F0BEFB00ED00E00000000010B4A2F1E6
:100C400020040E4942F8081C21F0010142F8081C5A
:100C500042F8203C019B42F81C3C029B42F8183CA5
:100C6000039B42F8143C4FF0807342F8043C046547
:100C70000023C0F89C3010BC704700BFA9040000DE
:100C800000B50E460B4B9860D0F898100A4B1960CF
:100C900015462C4686F309884FF00000074B98470D
:100CA00020464FF000014FF000024FF00003044CCB
:100CB000204700BF54030020BC020020EF3A000090
:100CC000A9040000014B10221A61704700ED00E0FA
:100CD000002206E003F00F030949194420230B7694
:100CE0000132262A0ADC53B2002BF3DB03F1604306
:100CF00003F56143202183F80013F1E7704700BF3B
:100D0000FCEC00E008B5EFF30583103B044A02EB6E
:100D1000C301496852F833008847FFF7CDFC08BD8E
:100D20000451000008B5064921F00701C1F1005245
:100D300002F58032034802F07CFC002008BD00BFB1
:100D4000D7100020C0020020024B0122C3F840252A
:100D50000020704700E0014030B108B5034B80012E
:100D600043F00103984708BD704700BF8052000060
:100D70000048704720030020034BC01A8010034B2B
:100D800003FB00F0704700BFE0020020B76DDBB648
:100D900038B505460C46FFF7EFFF014640220348F1
:100DA00002F056FF01462846A04738BDDC5000003F
:100DB00030B583B005460C46FFF7DEFF0146402301
:100DC00000932346054A064802F05CFF011E01DB42
:100DD00003B030BD2846A047FAE700BFCD3C000075
:100DE000DC50000008B510B101280DD008BD00216D
:100DF000084802F0BBFE836813F0070FF6D100210C
:100E0000044802F013FFF1E70121024802F00EFF4F
:100E1000ECE700BFDC50000010B582B0EFF31184A6
:100E2000202383F31288BFF36F8F154A136843F0B2
:100E30000201116013F0010F09D1002384F311881E
:100E4000BFF36F8FB3B902F049FF02B010BD0DF1CF
:100E5000070201214FF0804002F06CFE9DF8073040
:100E6000012B01D00023E9E7FFF782FF02F0CCFE5F
:100E70000123E3E70021034802F0D8FEE5E700BFC5
:100E800030030020DC50000010B5EFF31184202364
:100E900083F31288BFF36F8F074A136823F00201B0
:100EA000116013F0010F04D084F31188BFF36F8F2A
:100EB00010BD02F018FFF7E73003002070B582B0D4
:100EC0000546012807D14FF08043D3F81C3403F0C6
:100ED0000303012B4BD003F0B9FE044618B9284B8D
:100EE0001B78002B38D1EFF31186202383F312886F
:100EF000BFF36F8F012424B94FF080430222C3F85F
:100F0000082301AA00214FF0804002F013FE20B117
:100F1000019B012B26D0012D24D0FCB1304602F0DC
:100F2000FAFD4FF08043D3F81835002BE9D14FF08C
:100F30008043D3F80431002BE3D04FF080430022EC
:100F4000C3F80421D3F804210122C3F818250D4960
:100F5000C1F880219A60D4E70026CCE7012002F096
:100F6000CCFEDEE72CB186F31188BFF36F8F02B0A1
:100F700070BD4FF080430222C3F80423F7E700BF9F
:100F80008E03002000E100E000B585B0CDF800D070
:100F9000CDF804D000230293012303936B46074A44
:100FA00002F08CFE002805DB4FF4804200236846E7
:100FB00001F064FA05B05DF804FB00BF273D0000B6
:100FC00008B5064B1B7803B108BD4FF4A57003F0BC
:100FD000E1FD024B01221A70F6E700BF8C030020EE
:100FE00070B5064600220121104602F074FD11483A
:100FF00000F0E2FD104B984219D100F0F1FD002401
:10100000012C12D82146304602F0B0FD054621469B
:10101000304602F0B6FD094902F07AFC002805DBF3
:101020000123AB601C44E4B2EAE7002070BD6FF01E
:101030000400FBE7E50D00000000AD0B00530000CD
:1010400010B50446104B0121BFF35B8F53E8002F0E
:1010500043E800100028F9D1BFF35B8F1AB1631E7B
:10106000012B0DD910BD094802F08BFD0849002362
:101070004B608B60CB6001238B6002F066FCEEE777
:101080002046FFF71BFFEDE7DC020020DC500000EC
:10109000CC02002008B9024870470020704700BF0A
:1010A000F05000002DE9F04786B088461546994675
:1010B000446801F01F06237B46EA4316204602F0EF
:1010C000EFFE00285DD0B5F5001F2AD00DF10C0A07
:1010D0000027039704974946284602F056FF8DF8EB
:1010E0000C00009701970297CDF804A0A36823FA9B
:1010F00008F313F0010F02D1B5F1A07F18D010341E
:101100006A463146204603F019FD214B98423BD1F7
:1011100001223146204603F035FD002006B0BDE82F
:10112000F087314604F1100003F030FD0020F5E7B0
:1011300006F01F03720917D14FF0A04203F5E073C8
:1011400052F8233013F0010FD9D104F110050DF13D
:1011500017023146284603F0FDFC0E4B984205D09D
:101160000DF117030493CAE73A46E7E70DF11701BB
:10117000284603F003FD064B9842F1D06FF00B00B8
:10118000CCE76FF08500C9E76FF01500C6E700BF38
:101190000000AD0B0400AD0B2DE9F04389B007460C
:1011A00089461446456801F01F082B7B48EA43181E
:1011B000104602F07AFE8DF81E0040F206332340FE
:1011C000B3F5837F5ED016D8062B57D006D9B3F57A
:1011D000807F0DD101238DF81D3024E003B3022B55
:1011E00003D104238DF81D301DE06FF015076FE06B
:1011F0006FF015076CE040F20222934246D0B3F53F
:10120000407F03D103238DF81D300CE0B3F5007F40
:1012100003D102238DF81D3005E06FF0150757E06C
:1012200000238DF81D30012606FA09F631463846AE
:1012300002F049FE071E4BDB14F4002F2AD06B6826
:10124000C3F80865284602F02BFE50B310350DF1A7
:101250001F024146284603F07DFC064614F4403F39
:101260003AD14146284603F081FC3A4B9E422FD1A9
:101270009DF81F10284603F07DFC29E006238DF819
:101280001D30D0E707238DF81D30CCE705238DF8FE
:101290001D30C8E714F4802FD4D06B68C3F80C65F8
:1012A000D0E7C4F340438DF8083014F4803F0CBFFE
:1012B000012300238DF81030002301930DF11D034D
:1012C00000930DF11E0304AA02A9404602F05AFD44
:1012D000384609B0BDE8F08302AA002302930393C5
:1012E000049305930693059204AA4146284603F009
:1012F00025FC184B984202D06FF01507E8E714F46C
:10130000003F1AD09DF81D308DF8103014F4803F46
:101310000CBF012300238DF811309DF81E308DF88D
:101320001230002304AA4146284603F00BFC094B67
:1013300098429AD06FF01507CAE7002304930593EB
:1013400006930DF11E03049304AA4146284603F0B8
:10135000F5FBECE70000AD0B10B54468204602F049
:101360009FFD08B9002010BD1034204603F0FAFBA1
:1013700008B10020F7E70021204603F0EFFB094BFE
:1013800098420BD100220849204603F0DFFB0022DF
:101390000521062002F09FFB0020E4E76FF0040027
:1013A000E1E700BF0000AD0BC33F000021F07F412B
:1013B00000F5A870014B43F8201070470010014061
:1013C0004FF480338340024AC2F84433704700BF71
:1013D000001001404FF480338340024AC2F8483382
:1013E000704700BF00100140014BD3F8040570475F
:1013F000001001402DE9F843054689469046FFF765
:10140000E9FF284602F050FE4E46032710E0FFF7A2
:10141000EBFF0446494602F036FEB0F5000F26D930
:10142000284602F041FEB8F1000F22D13E190137E3
:1014300031462846FFF7BAFF2846FFF7C1FFFFF7FE
:10144000D3FF0446C11C304602F01DFE0A4B9842F1
:101450000AD9284602F01BFE0028D8D1B8F1000FA7
:10146000E4D06FF0150000E00020BDE8F883002014
:10147000FBE76FF01500F8E7FDFF7F00034B044A20
:10148000C3F80823C3F84823704700BF0010014089
:1014900003000F0010B5012383406FEA030C0E4ACE
:1014A000BFF35B8F52E8001F01EA0C0E42E800E434
:1014B000002CF7D1BFF35B8F4FF480328240074896
:1014C000C0F80823BFF35F8FBFF36F8F0B4214BFC9
:1014D0000120002010BD00BF440300200010014087
:1014E0004FF480338340144AD2F80423134201D1CD
:1014F0000020704710B5044601238340DB430F49A9
:10150000BFF35B8F51E8002F02EA030041E8000CB3
:10151000BCF1000FF6D1BFF35B8F22FA04F313F096
:10152000010F03D1204602F0B2FD18B1204602F0AF
:10153000BBFD012010BD00BF001001404003002092
:1015400001B9704701238340114ABFF35B8F52E812
:1015500000CF4CEA030C42E800C10029F7D1BFF3E9
:101560005B8F4FF4803383400A4AC2F80433BFF3E1
:101570005B8F094B1B68BFF35B8FC34013F0010FF8
:10158000DFD0064B4FF40032C3F80021D9E700BF8B
:1015900044030020001001404003002000E100E06F
:1015A00038B514461046194602F08AFD02460D4928
:1015B0000B68E01A1B184C6844F100040B604C6087
:1015C000A2F50013B3F5400F09D2074B1B68190AA7
:1015D0001B06D41841F10005044BC3E9004501F096
:1015E00055FC38BD880000204803002090000020F2
:1015F00038B50D4B1C68250A2406BFF35F8FFFF733
:10160000F3FE0346001945F10001B3F5801F0AD22D
:10161000064BD3E90023904271EB030303D210F190
:10162000807041F1000138BD480300209000002087
:101630002DE9F041064614461D469DF820801046CF
:10164000194602F03DFD0746FFF7D2FFA04271EBBD
:10165000050319D2201A65EB01011D4B984271F167
:1016600000012FD21B4B03EB0613D3E90223AB423D
:1016700008BFA24201D1002018E042463946304658
:10168000FFF7B8FE90B11BE0B8F1000F1DD10123A8
:10169000B340114ABFF35B8F52E8000F184342E892
:1016A00000010029F8D1BFF35B8F0020094B320104
:1016B00003EB0616C6E9024506999950079B73602D
:1016C000BDE8F0816FF01500FAE76FF01500F7E75D
:1016D00001008000780000204003002030B585B074
:1016E000FFF7CCFE00231E4AC2F80835002B25DD8B
:1016F0001B4C0225C4F804531A4B4FF40032C3F8B4
:10170000802100220121112002F0E5F9112002F0D0
:10171000DDF90123A3602360134A136000240294BF
:101720000194124B0093124A0023204602F0D8FC89
:101730002846FFF785FC204605B030BD0D4A02EB78
:1017400003124FF0FF304FF0FF31C2E902014FF4B6
:1017500080329A400249C1F804230133C6E700BF32
:101760000010014000E100E044030020A11500004A
:10177000FFFF7F00780000202DE9F04782B004468B
:10178000FFF7AEFE10B902B0BDE8F087FFF730FFFB
:1017900082460D4602F097FC0646154B03EB0413F8
:1017A000D3E90289C24575EB09050BD20025304605
:1017B00002F091FC002DE6D0009742464B462046B1
:1017C000A847E0E70A4A230102EB0411D5584F6805
:1017D0000020D0504FF0FF324FF0FF33C1E9022319
:1017E0002046FFF7F7FD204602F05EFCDFE700BF72
:1017F0007800002010B50D4BD3F8043313F0020F1E
:1018000003D10024002C0BDD10BD0221074802F09B
:1018100004FC0028F5D0064A136801331360F0E792
:101820002046FFF7A9FF0134ECE700BF001001409C
:101830004803002010B584B0B0F1FF3F18D0012854
:101840001BDD154B9842A8BF18460446134B0122D6
:101850001A70FFF7CDFE124B1A685B68801AB0F55C
:10186000000F0CD20444B4F5000F09D30A4C07E072
:101870000A4B00221A70084CEBE70124E6E7064CFD
:1018800000201219029001900649009143F10003D3
:1018900002F026FC04B010BDFFFF7F008D03002086
:1018A00088000020A115000008B5FFF7A1FE024B3B
:1018B0001B68C01A08BD00BF8800002008B502F0F0
:1018C0002BFC40B14FF08053D3F82433C3F30423EF
:1018D0005C4AC2F8403502F031FC10B15A4B5B4A09
:1018E0005A6702F041FC48B14FF08053D3F84432BC
:1018F000C3F342334FF08042C2F83C3502F046FC5D
:1019000030B1534AD2F8FC3023F08073C2F8FC3077
:1019100002F052FC40B14FF080430022C3F80C218A
:10192000C3F81021C3F8382502F058FC20B14FF05D
:1019300080430322C3F8A02502F066FC60B1454B4A
:101940000522C3F810260122C3F888260022C3F816
:1019500018263F22C3F8142602F06CFC002846D05B
:101960004FF08052D2F804143B4BC3F82015D2F844
:101970000814C3F82415D2F80C14C3F82815D2F8AB
:101980001014C3F82C15D2F81414C3F83015D2F87B
:101990001814C3F83415D2F81C14C3F84015D2F843
:1019A0002014C3F84415D2F82414C3F84815D2F80B
:1019B0002814C3F84C15D2F82C14C3F85015D2F8DB
:1019C0003014C3F85415D2F83414C3F86015D2F8A3
:1019D0003814C3F86415D2F83C14C3F86815D2F86B
:1019E0004014C3F86C15D2F84424C3F8702502F0F3
:1019F00043FC48B14FF08053D3F8583203F04F0303
:101A00004FF08042C2F8E43E02F048FC60B14FF073
:101A10008043D3F8003413F0010F05D04FF080431A
:101A20006FF00102C3F8002402F04AFC30B10B4A07
:101A3000D2F83C3743F48063C2F83C3702F068FCCC
:101A400008BD00BF0030014000C007400DF0ADBA36
:101A500000ED00E00050004000C0004000100040D9
:101A600010B50468CCB1B4FA84F3C3F11F03DBB240
:101A700001229A4024EA0202BFF35B8F50E800CFB4
:101A8000A44504D140E8002EBEF1000FF6D1BFF30B
:101A90005B8FE6D10B70024810BD0248FCE700BF27
:101AA0000000AD0B0200AD0B0368CB4013F0010F3B
:101AB00015D100B5026801238B401343BFF35B8F40
:101AC00050E800CF944504D140E8003EBEF1000F3D
:101AD000F6D1BFF35B8FEDD102485DF804FB0248FD
:101AE000704700BF0000AD0B0400AD0B0D4BD3F8E9
:101AF000FC1041F08072C3F8FC20A3F55D43186828
:101B000040F001021A605A68074B5B689B1AB3F5F4
:101B10000A5FF9D3044B186003F55D43C3F8FC106A
:101B2000704700BF00ED00E0001000E070B582B02B
:101B3000064618B1012816D002B070BD4FF08043A0
:101B40000222C3F808230122DA600022C3F804212C
:101B5000D3F8043101238DF807309E420FD00025C1
:101B600042F2107413E04FF080430122C3F80823BF
:101B70005A600022C3F80021D3F80031EAE70DF1E2
:101B80000705EDE7012002F0D3FB013C0CD02A460B
:101B900031464FF0804002F0CFFB28B1002DF1D04C
:101BA0009DF80730012BEDD0012EC5D1014B00224D
:101BB0005A71C1E74C030020064B1B793BB9054B1A
:101BC000186001221A7100225A71034870470348B5
:101BD000704700BF4C0300200000AD0B0C00AD0BA4
:101BE00008B5064B1B680BB102F0C4FB02F0C0FB4A
:101BF0004FF08043C3F8180508BD00BF4C03002018
:101C000070B582B018B1012848D002B070BD4FF055
:101C10008043D3F81824D3F8183403F00303019356
:101C200012F4803F13D14FF08043D3F8143413F0F3
:101C3000010F10D102F09CFB0190019A4FF08043FC
:101C4000C3F8182508254FF4827302262AE001A85C
:101C500002F099FBF1E74FF08043D3F81C3403F016
:101C60000303019301A802F08EFB0028E5D01C4B72
:101C70001B682BB14FF080430222C3F80423C4E752
:101C80004FF08043D3F80431002BF9D04FF080435C
:101C90000022C3F80421D3F80431B6E700254FF43D
:101CA0008073012603F18044002222602268B3F58C
:101CB000827F0BD005F1804501232B60084B1B6808
:101CC0003BB14FF08043C3F804639EE7FFF70EFF7C
:101CD000F0E72368002BFCD000232360236894E7FF
:101CE0004C03002008B54FF08043D3F800318BB18E
:101CF0004FF080430022C3F80021D3F800210122D5
:101D0000C3F80823154B5B7923B9144B5A711B6830
:101D1000002098474FF08043D3F804319BB14FF037
:101D200080430022C3F80421D3F80421D3F81824F7
:101D3000D3F8183413F0030F06D14FF0804301227B
:101D4000C3F818259A6008BD4FF080430222C3F8FB
:101D50000823024B1B6801209847F4E74C0300203E
:101D600000F01F0240090CD14FF0A04102F5E072D3
:101D700051F82200044B034043F0020341F82230A3
:101D800070470021F2E700BFF0F8FCFF0048704701
:101D9000040000202DE9F04184B005460C461646AB
:101DA0001F46084602F0DBFB804656B32146284614
:101DB00002F026FC28B12146284602F0E1FB00286B
:101DC00041D12146284602F0EAFB10B17378012B7D
:101DD00039D001238DF80F30002301930096B31CF6
:101DE000721C0DF10F01204602F05AFB2879FFF713
:101DF000CDFF08F1080230F8123043F0030320F859
:101E00001230002F39D02146284602F0F9FB002875
:101E100035D13E782B6806F5A272002143F82210D6
:101E20002879FFF7B3FF08F1080230F8123023F0E9
:101E30002003DB04DB0C20F812307B782BB911482F
:101E400004B0BDE8F0811048FAE7BA780092224663
:101E50003146286802F0CAFA2879FFF797FF024650
:101E600008F1080032F810307603B6B2334343F07D
:101E7000200322F810300348E2E70248E0E7024876
:101E8000DEE700BF0000AD0B0400AD0B70B50646E9
:101E90000D46144602F074FB68B13079FFF776FF07
:101EA0000646284602F05BFB083036F810305B0B24
:101EB0002370024870BD0248FCE700BF0000AD0B74
:101EC0000400AD0B2DE9F04182B005468846164668
:101ED0001F4602F01EFDAEB33A463146284602F0D8
:101EE000EBFB041E20DB2879FFF750FF40F834603D
:101EF0002879FFF74BFF00EBC40047602879FFF714
:101F000045FF0546404602F02AFB083035F8103000
:101F1000E4B26402A4B2234343F4807325F8103082
:101F2000094802B0BDE8F0812879FFF72FFF0DF1D5
:101F300007015830FFF794FD034B9842F1D19DF80B
:101F40000740D0E70048ECE70000AD0B2DE9F04377
:101F500085B004460D461746084602F000FB0646CB
:101F6000D7F80080B8F1000F28D02946204602F0AB
:101F700036FB00284FD100238DF80E308DF80F303E
:101F80000193009343460DF10F020DF10E01284617
:101F900002F086FA2079FFF7F9FE06F1080830F81A
:101FA000183023F0020320F818302079FFF7EEFEF6
:101FB00030F8183043F0010320F818307B68F3B193
:101FC00093F80080D3F804902946204602F0F8FAEE
:101FD00018B3B9F1000F65D12079FFF7D7FE0836A5
:101FE00030F8163023F01C0320F816302079FFF764
:101FF000CDFE30F8163043EA880320F81630BA6870
:10200000002A53D05368126829462046FFF75AFF2A
:1020100005B0BDE8F0832648FAE72079FFF7B6FE61
:1020200006F1080230F8123023F02003DB04DB0C49
:1020300020F81230B9F1000FCED0B8F1030F33D829
:102040007B685B6893F80090B8F1000F06D12368B5
:1020500009F5A279002243F82920BDE7404602F0A5
:10206000D7FA0346216809F5A27C51F82C2022F00A
:10207000030241F82C202A464946206802F09DF9C7
:102080002079FFF783FE06F1080230F812304FEA9C
:1020900049391FFA89F943EA090343F0200320F87C
:1020A000123099E70248B3E70148B1E70148AFE7CA
:1020B0000400AD0B0000AD0B38B505460C4602F030
:1020C00050FA08B9074838BD2146284602F0D1FA2F
:1020D0002146284602F048FC2046FFF741FE024810
:1020E000F1E700BF0400AD0B0000AD0B70B582B08E
:1020F00005460E460079FFF749FE90F8603013B1AF
:102100000B4802B070BD044640220021103002F09E
:102110004CFF236D0093002332464FF000412868A6
:1021200002F04CFC012384F86030A3650148E8E725
:102130000C00AD0B0000AD0B08B50249024802F0DF
:10214000E3FC08BD0400002000600040034B00E0F9
:102150001433034A9342FBD3704700BFDC500000A6
:102160000451000038B5EFF31185202383F3128862
:10217000BFF36F8F054B9C6802F02AFD85F3118831
:10218000BFF36F8F2046FEF78DFC38BD540300204F
:1021900038B505460A4B53F8204002E023689847BB
:1021A00008346B1C064A52F82330A34206D96368F0
:1021B000002BF3D0204602F00EFDF1E738BD00BF42
:1021C000A453000010B586B0A823104C03FB0044B4
:1021D00000EB800C0E4B03EB8C030E4A05920122A0
:1021E00004920F22039200220292019200930A4B62
:1021F0004FF4A072094901EB8C11204600F066F9FA
:10220000637B23F00403637306B010BD98000020C5
:102210005403002094530000194C0000900B002040
:1022200008B553EA020102D102F016FD08BD0249C9
:10223000183000F0A5FDF9E7194E000010B586B082
:10224000184C14E0636A0593236A0493E3690393CB
:10225000A36902936369019323690093E368A26809
:102260006168206800F032F923685C6530340E4BF9
:102270009C42E7D300F08EFB0A4C00E030340A4B5E
:102280009C420BD2A26AE36AB3F1FF3F08BFB2F1EE
:10229000FF3FF3D02068FFF7C3FFEFE700F092FBAA
:1022A00006B010BD3C5200003C52000008B50B4B7C
:1022B00001221A700320FFF76BFFFEF7C5F902F049
:1022C000AAFC0420FFF764FFFFF7B8FFFEF792F8BF
:1022D000034A137B23F00103137308BD8E03002010
:1022E0004001002008B50146014A0248FEF7C8FC3B
:1022F000AD2200004001002008B50348034A121A2D
:10230000002102F080FC08BD78000020900300202E
:1023100010B50446FFF756FFA8230A4903FB041132
:10232000094A04EB840302EB8303D9601C74074B56
:1023300003EBC42303F5006304EB840402EB840283
:10234000536010BD9800002054030020900300202B
:1023500070B586B000F054FB104D114B5D61114B10
:1023600005930123049300240394029401940094A0
:102370000D4B4FF480620D49284600F0A7F8064641
:102380006B7B23F004036B73284602F0DEFC2046CF
:10239000FFF7BEFF304606B070BD00BF4001002011
:1023A000540300209C530000AD220000D00C0020FC
:1023B00008B50020FFF7ECFE194B83F30888194C91
:1023C000636943F400736361E02384F822300025DD
:1023D000E57725766576A57684F82050636A43F420
:1023E000E023636284F82350FEF7F0FAFEF76AFCFC
:1023F0004FF0FF33A362E3620B4B01245C731C7349
:10240000C3F89450094A9360FFF7A0FE2046FFF7F7
:10241000BFFE0220FFF7BCFEFFF79AFFFFF762FF47
:10242000900B002000ED00E0E801002054030020A4
:1024300038B50446EFF31185202383F31288BFF3E8
:102440006F8F02F0EFFC48B10022C0F8A02002F02C
:102450007CFC2946084800F053FA38BDA368E268BE
:10246000934207D001221344A36085F31188BFF380
:102470006F8FF2E70022F6E77803002010B582B0F4
:10248000EFF31181202484F31288BFF36F8F8468E7
:1024900044B1013C846081F31188BFF36F8F002049
:1024A00002B010BD53EA020406D000920193024626
:1024B000054800F009FAF3E781F31188BFF36F8F45
:1024C0006FF00F00ECE700BF780300202DE9F04F1C
:1024D00085B004460F4615461E46DDF838A0DDF8E7
:1024E0003C90DDF84080DDF84CB000F15803836586
:1024F000C365129B0422119902F0B2FB2A463946A9
:10250000204602F096FB0546CDF80880CDF80490F1
:10251000CDF800A03346024639462046FEF78EFB32
:10252000002363652666C4F864A0C4F86890C4F804
:102530006C80EFF31182202383F31288BFF36F8F37
:10254000124B196A21671C6282F31188BFF36F8FE7
:10255000BBF1000F13D01F22594604F1740002F0A2
:102560002CFD002384F89330084B9B685BB1D3F8B3
:102570009430C4F89430284605B0BDE8F08F0023AD
:1025800084F87430F0E7C4F89430F4E75403002082
:1025900010B5114B53F8184F9C420FD074B180B94D
:1025A0000D4B9B685A7B12F01F0F0AD1A26942B9EA
:1025B000DA897F2A05D9084A53610BE0064BDC68AB
:1025C000EDE7054B9B68A34202D0204600F01EFBBE
:1025D000014B5C6110BD00BF5403002008B5437B74
:1025E00090F90D20002A08DB094B9B68834214BF39
:1025F00000200120FFF7CCFF08BD03F07F034373E9
:102600004268036813605A60002303604360EBE78D
:1026100054030020B3F1FF3F08BFB2F1FF3F00D1E8
:10262000704708B50249183000F0AAFB08BD00BF8A
:10263000194E0000427B90F90D30002B33DB70B552
:10264000044612F01F0F01D1866906B170BD62F019
:102650007F024273144B53F8185F9D4208D13546F0
:1026600006E06B68636025601C606C6017E03546AF
:102670006DB12946204602F004FB0028F1DC002D54
:10268000F6D0094BDB699D42F1D02D68F0E7064B8F
:10269000DA6903F11801216062601460DC610020D6
:1026A000FFF776FFD2E7704754030020437B0B42CD
:1026B00058D170B504460D460B43437313F0800F99
:1026C0001BD1082D24D000260120FFF761FF102D1B
:1026D00041D0204600F0FAFA46B1234B01225A734A
:1026E0001A730022C3F89420204A9360BFF35F8FCF
:1026F000637B23F06003637370BD03F07F03437358
:102700004268036813605A60002303604360D8E79F
:10271000A3685BB16268236813605A60002323607A
:102720006360627B22F002026273A36004F118000E
:1027300002F00CFC04F1580002F0ADFA0B4B9B6860
:10274000A34201D00026BFE7EFF305830BB90026B3
:10275000BAE70126B8E7BFF35F8F637B23F060031E
:102760006373C9E7704700BFE801002054030020ED
:1027700038B505460C46124B9868437B13F0600F42
:1027800005D013F0200F07D00821FFF78FFF84F347
:102790001188BFF36F8F0EE01021F6E7EFF311847D
:1027A000202383F31288BFF36F8F02F040FA84F383
:1027B0001188BFF36F8F6B7B13F0600FEED138BDC4
:1027C00054030020F8B504460E46154600F158079C
:1027D00002F051FAB8B1637B55B120221343637301
:1027E000EFF3058333B131462046FFF7C1FFF8BD53
:1027F0004022F3E73946104B986802F06FFA3046F2
:1028000002F03BFAF3E765B108212046FFF74EFFDF
:10281000094B9B68A34206D086F31188BFF36F8FE4
:10282000E5E71021F1E7EFF30583002BF4D1304603
:1028300002F023FADBE700BF5403002038B5054659
:10284000437B90F90D20002A0ADB6B7B63F07F034A
:102850006B731C4B53F8184F9C4213D1002411E0AA
:1028600003F07F0343734268036813605A600023D8
:1028700003604360E9E763686B602C601D6065601E
:1028800017E000246CB12146284602F0FAF900282E
:10289000F1DC002CF6D00B4BDB699C42F1D02468B4
:1028A000F0E7084BDA6903F1180129606A601560E6
:1028B000DD61044B9868A84214BF00200120FFF797
:1028C00067FE38BD5403002010B50C4611460A4877
:1028D00082680A4B1A60EFF31183202383F3128876
:1028E000BFF36F8FDDE90223806802F022FA2046F1
:1028F000FEF7F2F810BD00BF54030020780300205B
:1029000008B50B4659B9EFF3058242B9064A50693A
:102910009268904203D00846FEF7DEF803E083F3A6
:102920001188BFF36F8F08BD5403002010B5EFF37B
:102930001184202383F31288BFF36F8F437B13F03E
:10294000040F04D184F31188BFF36F8F10BD23F0FF
:1029500004034373FFF76EFE21460248FFF7D0FFE2
:10296000F4E700BF7803002008B5034650B9EFF341
:1029700005823AB9064A51699268914202D0FEF73F
:10298000ABF803E083F31188BFF36F8F08BD00BF7E
:10299000540300200023EFF31181202282F31288D8
:1029A000BFF36F8F09E0064B9A68D37B013BD3736B
:1029B00081F31188BFF36F8F0123002BF3D0704791
:1029C0005403002010B50023EFF31184202282F37A
:1029D0001288BFF36F8F0CE0084B9A68D37B0133EA
:1029E000D3730020FFF7D4FD84F31188BFF36F8FFA
:1029F0000123002BF0D002F040FA10BD5403002058
:102A000008B5024802F044FA08BD00BF6803002080
:102A100070B5EFF31186202383F31288BFF36F8F15
:102A20001E4B9A68517B01F07F0151735068116809
:102A3000016048600021116051609D686A7B62F00E
:102A40007F026A7353F8184F9C4208D1002406E0B5
:102A500063686B602C601D60656017E000246CB1DA
:102A60002146284602F00DF90028F1DC002CF6D0B2
:102A70000A4BDB699C42F1D02468F0E7074BDA6926
:102A800003F1180129606A601560DD610120FFF71C
:102A90007FFD3046FEF720F870BD00BF54030020D4
:102AA0002DE9F04150EA010337D004460E466FF09D
:102AB00001031B1A4FF0FF3262EB0102012B72F18E
:102AC00000022EDB6FF001052D1AEFF31188202391
:102AD00083F31288BFF36F8F144FB868144B1860DC
:102AE000FFF77CFDB868224633461249183000F0E3
:102AF00047F9BA68537B43F0100353734046FDF720
:102B0000EBFF02F040FA281A63EB0303012873F18C
:102B1000000300DA0020BDE8F081FFF779FF002014
:102B2000F9E702F030FA0519CFE700BF540300209F
:102B300078030020194E000008B5B1F1FF3F08BF2F
:102B4000B0F1FF3F1DD0FFF7ABFFC217510141EAC3
:102B5000D06143011B1A61EB0201890041EA9371C4
:102B60009B001B1842EB0102D20042EA5372DB00C9
:102B700047F6FF71581842F10002C00B40EA42408C
:102B800008BD034B986802F0FBF84FF0FF30F7E701
:102B900054030020014B9868704700BF5403002085
:102BA000044BC01AC010044B03FB00F0034B01227E
:102BB0001A54704790020020ABAAAAAA7C030020F6
:102BC000C3897F2B11D80E4B1B687BB190F90E2067
:102BD0000C4B1B689A420CDB437B13F01F0F0AD18E
:102BE000094B984209D0012300E0002303F00100C3
:102BF00070470023FAE70023F8E70023F6E700BF59
:102C000084030020800300209800002070B5054652
:102C10000D4B1E7C06EB46030C4C04EBC304204614
:102C200002F094F90A4B00229A552846FFF7C8FF94
:102C300000B970BD074B1A68013AD3170649204600
:102C400000F09EF8F5E700BF54030020900200203A
:102C50007C03002084030020A12B000038B5EFF393
:102C60001185202383F31288BFF36F8F144B9C6868
:102C7000144B1B68A34217D0124B00221A60104B52
:102C80001B7C114AD35C53B12046FFF799FF30B14A
:102C9000637B13F01F0F0FD02046FFF7B7FF85F3BC
:102CA0001188BFF36F8F38BD2046FFF7AFFF85F364
:102CB0001188BFF36F8FF6E72046FFF7BFFDEBE704
:102CC00054030020780300207C030020EFF31181DF
:102CD000202383F31288BFF36F8F0A4B1B6A834252
:102CE00004D11A6F074B1A6207E0134613B11A6F2B
:102CF0008242FAD10BB1026F1A6781F31188BFF3D8
:102D00006F8F70475403002008B50648064A121A10
:102D1000064901F07CFF064A0649074801F077FFA3
:102D200008BD00BF0000002074000020CC5300004C
:102D300000000000CC53000000000020034B186886
:102D4000984200D070470020FCE700BF68000020D8
:102D500030B1044A5268904201D0006870470020A8
:102D6000704700BF6800002008B5044B1B680BB11A
:102D7000002008BDFEF798FDFBE700BF8803002098
:102D8000B3F1FF3F08BFB2F1FF3F77D02DE9F04725
:102D9000044692461D4681600023EFF311872022EE
:102DA00082F31288BFF36F8F26E01AF1010845F114
:102DB0000009FFF7D9FF18EB000349EBE07023612E
:102DC00060613BE0521A66EB0303026143614368B2
:102DD000636020601C60446005E0294B5A682360F2
:102DE000626014605C60FFF7A9FF84423AD087F309
:102DF0001188BFF36F8F0123002B3DD153466FF035
:102E00000101B1EB0A014FF0FF3060EB0502002A2F
:102E1000CBDB1C4A116852685B1842EB05026FF06D
:102E20000101C91A60EB020308461A46012973F131
:102E3000000301DA0120002220616261FFF77EFFBA
:102E40000028CAD00269466921696369914273EB1F
:102E5000060EB7DB891A63EB060321616361FFF796
:102E600077FFEDE7084B1B68002BC0D102F051F84B
:102E70000021FEF7DFFCBAE7BDE8F087704700BF2E
:102E800068000020A80200208803002070B5EFF33E
:102E90001186202383F31288BFF36F8F2A4B1860AB
:102EA000FFF74CFF044623E0284A136851685B197A
:102EB00041EBE5711360516000220023C4E9042353
:102EC000204602F00FF886F31188BFF36F8FA368D6
:102ED00020469847EFF31186202383F31288BFF32F
:102EE0006F8F194A13685B1B1360FFF727FF0446B7
:102EF0003CB125696169144B1A68D317AA428B410A
:102F0000D2DA44B1236962690F4909685B1A62EB3E
:102F1000E172236162610D4A0B4D286813685168A4
:102F20001B1841EBE0711360516000242C6001F02C
:102F3000F0FF2146FEF77EFC86F31188BFF36F8F0A
:102F4000FFF78CFE70BD00BF88030020A8020020A0
:102F500010B50022EFF31184202383F31288BFF30E
:102F60006F8F134611460CE0FFF7FEFE074A136809
:102F70005168C31841EBE07184F31188BFF36F8F80
:102F80000122002AF0D0184610BD00BFA802002080
:102F90002DE9F04F8DB043680293837815469A0768
:102FA000804640F10D8100240E78002E00F00A8149
:102FB000252E0BD04B1C03930134029B4146304617
:102FC00098470028C0F2F6800399EDE74E788B1CF5
:102FD000252E0393F0D00027B946BB46BBF11F0F47
:102FE00038D8A6F12003102B0AD8DFE803F02A090D
:102FF00009300909092109090928092D09091F00B2
:10300000A6F13003092B33D92A2E37D11BF0400FFC
:1030100055F8043B40F08280002BA7BF4BF0200BFB
:103020009946C3F100094BF0280B01E04BF0010B6E
:10303000039B13F8016B0393002ECFD130E04BF0CC
:10304000020B4BF0040BF3E74BF0080BF0E74BF0EF
:10305000100BEDE7BBF17F0F19D8A6F13003092B58
:10306000D2D81BF0400F03D00A2101FB0737DFE75E
:103070000A2101FB09394BF0200BD9E72E2E06D18E
:103080001BF0400F40F09E804BF0400BD0E76C2EC1
:1030900031D02BD8682E36D06A2E3CD04C2E3AD068
:1030A000002F46F02003B8BF2BF04002A3F16501CA
:1030B000BCBF1FFA82FB0027022901D9612B2FD147
:1030C000073525F00705DFF8ACA2083507271BF008
:1030D000080F66D00AEB070B56465E4563D1A4EB9A
:1030E0000A0A06EB0A02A9EB07096FE1742E9FD0CA
:1030F0007A2E9DD0D4E71BF0800F18BF4BF4007BD5
:103100004BF0800B94E71BF4807F18BF4BF4007BDF
:103110004BF4807B8CE74BF4207B89E71F4687E7E5
:10312000A6F16301122900F2F080DFE811F013002C
:103130004F00EE00EE00EE00EE004F00EE00EE005D
:10314000EE00EE00EE00FE00E900EE00EE001B00D7
:10315000EE00AF0055F8043B8DF8183001270DF153
:10316000180AB4E755F804AB834BBAF1000F08BF57
:103170009A461BF0400F14BF39464FF0FF315046BE
:1031800001F02BFF0746A2E7029B4146202098470B
:1031900000280FDB013EB742F6D34C44A41BB146D6
:1031A00098E74E46F7E716F8010B029B4146984711
:1031B000002892DA98F8023043F0040388F80230CD
:1031C0004FF0FF3420460DB0BDE8F08F1BF0800FAC
:1031D00034D01BF4007F2CD0073525F00705AA4614
:1031E00069685AF8080B2BF010050029ADB237DAE0
:1031F000404261EB410145F480650DF1180B0A2353
:103200005A4601F0F6FEA0EB0B0301936B0662D564
:10321000019B25F001019F4289B240F3A180002E5D
:1032200000F0998015F0100240F09C80BB460D46DE
:1032300023E0AA465AF8040BC117D4E7AA461BF4A8
:10324000807F5AF8041B01D10846F5E71BF4007F84
:1032500015BF48B208B241F3C01141F3C031C2E713
:1032600050EA0103C9D11BF0400FC6D0002FC4D1D2
:103270002BF0110295B2BB46019740F2064115EAC8
:1032800001021CBF0BF1010B00222CE02BF01002FD
:103290001FFA82FB0A231BF0800C49D01BF400713B
:1032A0001DBF073525F00705AA46AA461ABF5AF8DA
:1032B000080B69685AF8040B50EA010545D12BF058
:1032C00016051BF0400FADB242D0002F40D12BF0BD
:1032D000170295B2019715F0100248D0019B002EFD
:1032E00042D103F1010B29075AD4EB0706D5D94582
:1032F0006FDD0199A9EB0B035F18CB465B4649E0F4
:103300004BF0100B10237826C5E7782B04D1C6F1BB
:10331000780343F01003BEE7029B414625209847FF
:103320000028FFF647AF023447E608230026B2E73D
:10333000AA461BF480715AF8040BBDD01BF400712F
:103340001ABFC0B2614680B2B6E72BF0060295B252
:103350000DF1180B54E725F01105ADB2BB468CE713
:103360000D46B8E73B460D4603F1020BBBE7DDF81F
:1033700004B082E7C3530000BC530000CDE904321F
:103380004146029B202098470028FFF613AF049B7C
:10339000059A01339945F1DCA4EB0B01CC189B464F
:1033A0000AB3029B4146302098470028FFF602AF3F
:1033B0008EB901342744019B391B994224DC1D46F8
:1033C0005DBB019AA9EB0B09224455461446914472
:1033D00035E0019F92E7023441463046029B984710
:1033E0000028E7DAE6E640F206410D42E2D015F0A9
:1033F000020F14BF2B20202015F4806F04F101046C
:10340000414618BF2D20E9E7029B414630209847EE
:10341000002804F10104CEDACCE606AB013D4146BA
:10342000585D029B98470028CADAC3E6029B4146D2
:1034300020209847002804F10104FFF6BBAEA9EB59
:103440000403002BF2DCBFE5704738B513468568EE
:10345000046912F4801F07D012F4402F04D012F038
:10346000010F01D082F4402323F4801213F0010FE6
:103470000AD023684FF0010C0CFA01FC43EA0C035C
:1034800023602B68984738BD23684FF0010C0CFA75
:1034900001FC23EA0C032360F3E708B503468C46DE
:1034A00000681979DA8842EA0C02FFF7CEFF08BDFE
:1034B00008B5034600681B790121994083685B6960
:1034C000984708BD08B58368DB6913B101229847A6
:1034D00008BD6FF05700FBE708B520EAE070C117A0
:1034E000C90341EA5041C00340F2E733C0184FF42A
:1034F0007A724FF0000341F10001FCF7EFFDFFF796
:103500001BFB08BD00EBC1018368B3F5004F0AD374
:1035100022B14B6843F001034B6070474B6823F0C6
:1035200001034B60704722B14B8843F001034B808D
:1035300070474B8823F001034B807047131D50F8F0
:103540002330DBB9C3684FF0010C0CFA02FC43EAEC
:103550000C03C360043240F8221000EBC103826800
:10356000B2F5004F06D399608268B2F5004F03D3DD
:10357000D96070479980F7E7D980704710B500EBA4
:10358000C30C8468B4F5004F1CD3DCF8082000EBB2
:10359000C10EB4F5004F18D3CEF808208468B4F5F6
:1035A000004F15D3CEF80C3000EBC2028368B3F5A0
:1035B000004F10D3D1608368B3F5004F0DD3CCF822
:1035C000081010BDBCF80420E1E7AEF80420E5E7E0
:1035D000AEF80630E8E7D180EDE7ACF80410F0E78C
:1035E00008B58368B3F5004F07D300EBC1025268FA
:1035F0005208012A02D0002200E00022A2B900EB0A
:10360000C102B3F5004F10D352685208B3F5004F12
:103610000DD308230833A2EBD3020132B2FA82F2AF
:10362000C2F11F02FFF78AFF08BD5288EDE70423AD
:10363000F0E7F8B5B2F5802F23D30823D21ACC1DBA
:1036400024F0070401EB020C2CF0070CACEB040C8B
:103650004FEADC010460A1600023E360BCF5802F29
:1036600011D308230833A1EBD3030133B3FA83F357
:10367000C3F1200EC3F124039B00DE1DF5080023D7
:1036800008E00423DAE70423ECE71A1D002044F8DD
:10369000220001337345F8DB6B00BCF5802F32D379
:1036A0006360BCF5802F30D300232360BCF5802FEE
:1036B0002ED3636843F0010363604A1B570026F072
:1036C0000703E018BCF5802F27D34760A068B0F54A
:1036D000004F24D3E5502CF00703A444A068B0F5B4
:1036E000004F1ED30020CCF80400A068B0F5004FB6
:1036F0001BD3E25001222046FFF704FF2946204653
:10370000FFF76EFFF8BD6380CBE700232380CDE792
:10371000638843F001036380CFE74780D6E7E55233
:10372000D9E70020ACF80200DFE7E252E2E7002030
:1037300070470FB400B583B004A951F8040B019190
:10374000FCF79CFE03B05DF804EB04B0704701F099
:103750000701038B23F007030B43038370472DE915
:10376000F04106460F469046816821B10C683CB195
:1037700031B90C4604E00C4602E0234621461C46C3
:1037800069B14D6843463A463046A847002CF4D00C
:103790002368002BF2D0002CF0D12346EEE7BDE8E1
:1037A000F081038B13F0070303D102680AB10320F1
:1037B0007047022B03D0012B06D000207047428BAC
:1037C000002AF8D10420704703680BB10520704728
:1037D0000020704710B504468C46038B002A07DB97
:1037E00003F007035A1F012A0ED9042B36D010BD4F
:1037F000D0E900018CE8030000232360636001210D
:103800002046FFF7A4FFF2E7D0E900018CE80300AF
:10381000002222606260062B1BD1DCF8003053B11D
:10382000628B013262831A461B68002BF7D0002A94
:10383000F5D11346F3E702212046FFF788FF204623
:10384000FFF7AFFF0028D2D0238B43F02003238360
:10385000CDE700212046FFF77AFFF0E70021FFF7D0
:1038600076FF2046FFF79DFF0028C0D0238B43F052
:1038700020032383BBE750B110B50C4651B1081D9E
:1038800000F0C2F810B9A368032B06D810BD6FF082
:10389000150070476FF01500F8E76FF01500F5E7B9
:1038A0002DE9F04107460C4616461D461946201DD7
:1038B00000F0C1F828B180462B46324621463846F2
:1038C000C047BDE8F0812DE9F04180460C4617461F
:1038D0001E4604E033463A464046FFF7E1FF2168C2
:1038E00031B10D68256063688B42F3D16560F1E703
:1038F000BDE8F08108B5EFF311824FF0200C8CF396
:103900001288BFF36F8F41610121FCF7E7FD08BD0D
:10391000034670B181B10A688AB14A6892B1002049
:10392000186058609860D860186158619861196192
:1039300070476FF0150070476FF0150070476FF01B
:10394000150070476FF01500704770B505460E46BC
:10395000FFF791FF041E2EDBEFF31182202383F388
:103960001288BFF36F8FB5F818C00CF0070C6B8B83
:103970004FF6FF718B422CD06446BCF1020F08D089
:10398000BCF1060F19D8DFE80CF01E1818181E2A13
:103990001E0001336B8301230021084628B100205B
:1039A0003060686808B306606E6009BB82F31188F6
:1039B000BFF36F8F0BBB204670BD6FF00404002374
:1039C00019461846EAE7BCFA8CF1490900230120A0
:1039D000E4E76FF00A04002319461846DEE76FF0AB
:1039E0008504002319461846D8E76E602E60DCE790
:1039F00002212846FCF772FDDDE7002362463146CE
:103A00002846FFF74DFFD6E7024658B1436803F05A
:103A10000303012B03D0032B07D1036843B100201C
:103A2000906070476FF0150070476FF01500704799
:103A30006FF0150070470346426802F00302816090
:103A4000032A03D1006800225A6070470020FAE779
:103A5000704708B5012802D0FEF784FB08BDEFF3DC
:103A60000583F9E708B501460068FFF7F2FF08BDD6
:103A700008B5FCF7F5FDFCF71FFE08BD00207047F8
:103A800000230B70704708B500231370CB1E092B61
:103A90001AD8DFE803F005090D11191919191914BD
:103AA0001146FCF705FF10E00021FCF719FE0CE0C1
:103AB0000021FCF767FE08E0FCF7AAFE05E01146CE
:103AC000FFF7DEFF002000E0002008BD08B540B28F
:103AD000FDF768F808BD08B5013140B2FDF770F890
:103AE00008BD08B500210120FFF7B3FF08BD61B68E
:103AF00062B680F31188BFF36F8F704772B60023F0
:103B000083F31188BFF36F8FBFF34F8F30BF62B65F
:103B1000BFF36F8F704772B6002383F31188BFF332
:103B20006F8FBFF34F8F20BF80F31188BFF36F8F6C
:103B300062B67047034619B101290CD000207047C6
:103B4000D3F81804C0F300407AB1D3F8183403F066
:103B5000030313607047D3F80C04C0F3004022B194
:103B6000D3F80C3403F0010313707047006901EBC4
:103B700041018900383108447047406800EBC100BA
:103B800070470069C1EBC10100EB8100704708B5C7
:103B9000C9B2FFF7EBFF806800F0070008BDEFF344
:103BA0001182202383F31288BFF36F8F036813F011
:103BB000C00301D08B4207D101230360002082F3B0
:103BC0001188BFF36F8F70474FF0FF30F7E7EFF3C7
:103BD0001182202383F31288BFF36F8F036803F0F1
:103BE000C00C03F00703012B08D08C4509D04FF01F
:103BF000FF3082F31188BFF36F8F704701600020A0
:103C0000F7E76FF07700F4E7EFF31182202383F3F7
:103C10001288BFF36F8F036803F0C00343F0020301
:103C2000036082F31188BFF36F8F7047F8B50646C3
:103C30000C46FFF79BFF05684768002340F8083BE8
:103C4000FFF7E2FF1DB13A4621463046A847F8BDCE
:103C500070B506461546CCB22146FFF787FF2946C8
:103C60000830FFF79CFF002806DB21463046FFF7AF
:103C700084FF43689847002070BD08B58022FFF795
:103C8000E7FF08BD2DE9F041064690461F46CDB23C
:103C90002946FFF76BFF044606990830FFF797FFA8
:103CA000002809DBC4F80080676029463046FFF72A
:103CB00064FF036898470020BDE8F08110B582B02A
:103CC00080240094FFF7DEFF02B010BD10B514464B
:103CD000C9B2FFF756FF0021A04710BD08B501206B
:103CE000FDF78EFF08BD08B5012000F062FB08BD9E
:103CF00008B5002000F05DFB08BD08B520EAE070C3
:103D0000C117C90341EA5041C00340F2E733C0186C
:103D10004FF47A724FF0000341F10001FCF7DEF935
:103D2000FEF70AFF08BD08B51046FEF781FB08BD87
:103D300008B5FDF745F90020FDF762FF08BD0B4609
:103D400039B11168196041688A4209D000231360B3
:103D500070471368036041688A42F7D14360F5E712
:103D60004360F3E708B50A460368002101E01946FD
:103D70001B682BB19342FAD1FFF7E1FF012000E06D
:103D8000002008BDF0B51C46059E069D00F01F0CE6
:103D900040092FD14FF0A04E0CF5E0735EF82330B0
:103DA00059B301205AB30227384354B30C27384380
:103DB0004EB34FF4E06738433DB34FF440373843D8
:103DC00023EA000019B30B781AB312785200134398
:103DD0000CB3227892001343FEB1327812021343DF
:103DE000EDB12A781204134303430CF5E07C4EF83E
:103DF0002C30F0BD4FF0000ECEE70020D2E70027B8
:103E0000D2E70027D3E70027D5E70027D7E700232D
:103E1000DAE70022DBE70022DDE70022DFE700220D
:103E2000E1E770B504460D461646036833B1FFF767
:103E300099FF70B91EB96FF0150006E032B1236822
:103E40002B602560636843B1002070BD6FF01500E2
:103E5000FBE7002EF3D10020F7E765600020F4E7D0
:103E600070B50E461546016821B10C683CB131B9F8
:103E70000C4604E00C4602E0234621461C4671B184
:103E80008A682A4002D04B6830469847002CF3D00D
:103E90002368002BF1D0002CEFD12346EDE770BD55
:103EA0000069003818BF0120704710F0100F04D1CE
:103EB00010F0200F03D1002070470320704701202D
:103EC0007047002070470020704743685B68D3F854
:103ED00010350B60002070472DE9F04105460C4677
:103EE00043685F6802EA010821EA0206FFF7EBFF78
:103EF000002809DBC7F80885C7F80C654FF40032C5
:103F000021462846FFF7DDFFBDE8F08170B5044685
:103F10000D4643685E68FFF7D6FF002807DBC6F84A
:103F200008554FF4003229462046FFF7CAFF70BDFE
:103F300070B504460D4643685E68FFF7C4FF00286D
:103F400007DBC6F80C554FF4003229462046FFF730
:103F5000B8FF70BD2DE9F04105460C4643685F6827
:103F6000D7F8046521EA06080E40FFF7ACFF0028E9
:103F700009DBC7F80885C7F80C654FF40032214605
:103F80002846FFF79EFFBDE8F081B0F5800F07D00F
:103F9000B1F1C06F0DD0B1F1007F08D001207047A2
:103FA000B1F1007F01D00520704704207047022046
:103FB00070470320704708B500690430FFF731FFF0
:103FC00008BD10B500F01F044009FDF763F830B1DB
:103FD000014600690122A2400430FFF741FF10BDF5
:103FE00000B5A2F5807E4FEA9E0E4FF0010C0CFA50
:103FF0000EFC1CEA010F0DD0815809B900200AE01F
:104000000021815082581BB11A684CEA02021A60E2
:10401000012000E000205DF804FB70B582B0064688
:104020000D460024019409E0A20001AB02F5A07244
:1040300029463046FFF7D4FF0134E4B2032CF3D90C
:1040400015F0010F02D0D6F8003143B915F0020F78
:1040500002D0D6F8043163B9019802B070BD0023D4
:10406000C6F80031D6F80031019B43F001030193FB
:10407000ECE70023C6F80431D6F80431019B43F085
:1040800002030193E8E7401A20F07F40704700F1F7
:1040900050039B009BB203F1804303F588331868FB
:1040A000003818BF0120704700F150039B009BB2FD
:1040B00003F1804303F5883300221A601B687047C0
:1040C00020F07F407047EFF31180202383F31288A4
:1040D000BFF36F8F704780F31188BFF36F8F704706
:1040E000F0B585B0044617461D46FDF7D3F90646E0
:1040F0009DF8303002930B9B01930A9B00933A4644
:104100002B462046FDF794FA054631462046FDF73A
:1041100017FA284605B0F0BD4FF08053D3F8303180
:10412000B3F1FF3F03D0062B06D0002070474FF0BD
:10413000704393F8E03FF6E7012070474FF070437B
:1041400093F8E02FD3F8E83FC3F30313062A01D016
:1041500000207047033B002B04D8DFE803F0010088
:1041600001207047002070474FF08053D3F8303162
:10417000B3F1FF3F03D0062B06D0002070474FF06D
:10418000704393F8E03FF6E7012070474FF070432B
:1041900093F8E02FD3F8E83FC3F30313062A01D0C6
:1041A00000207047033B002B04D8DFE803F0010038
:1041B00001207047002070474FF08053D3F8303112
:1041C000B3F1FF3F03D0062B06D0002070474FF01D
:1041D000704393F8E03FF6E7012070474FF07043DB
:1041E00093F8E02FD3F8E83FC3F30313062A01D076
:1041F00000207047033B002B04D8DFE803F00100E8
:1042000001207047002070474FF0704393F8E02F73
:10421000D3F8E83FC3F30313062A01D00020704708
:10422000033B002B04D8DFE803F0010001207047B6
:10423000002070474FF08053D3F83031B3F1FF3F87
:1042400007D04FF08052D2F83421062B0AD000203C
:1042500070474FF0704292F8E03FD2F8E82FC2F377
:104260000312F2E7033A012A04D8DFE802F0010161
:1042700000207047012070474FF08053D3F8303151
:10428000B3F1FF3F03D0062B06D0002070474FF05C
:10429000704393F8E03FF6E7012070474FF08053FA
:1042A000D3F83031B3F1FF3F03D0062B06D0002006
:1042B00070474FF0704393F8E03FF6E701207047F6
:1042C0004FF08053D3F83021D3F83431062A01D08F
:1042D00000207047052B03D8032B03D30020704721
:1042E00001207047012070474FF08053D3F83021F0
:1042F000D3F83431062A01D000207047062B03D8AA
:10430000032B03D300207047012070470120704722
:1043100008B5FFF7E9FF38B14FF01023D3F80822B2
:104320004FF08043C3F8582508BD08B5804708BD45
:1043300008B500F02FFC08BD034619B101290CD0C7
:1043400000207047D3F81804C0F300407AB1D3F8C6
:10435000183403F0030313607047D3F80C04C0F360
:10436000004022B1D3F80C3403F0010313707047FE
:104370000020704708B50020FCF736FC00B108BDEE
:10438000FFF7A4FBFBE738B504460368012B02D016
:1043900033B9012300E001231D461BB1284638BD77
:1043A0000023F9E70020FDF7C1FBFFF7E1FF2060E4
:1043B000F4E708B5FDF7BAFB08BD10B401F5A2712A
:1043C00050F8214024F4473424F4407440F821404C
:1043D00050F82140120202F4F8521B0403F4403357
:1043E0001A43144340F8214010BC704710B401F543
:1043F000A27150F8214024F4981424F4F85440F8A1
:10440000214050F82140120202F4F8521B0403F438
:1044100040331A439DF804301B0503F480131A43FC
:10442000144340F8214010BC704700B5A2F5807ECF
:104430004FEA9E0E4FF0010C0CFA0EFC1CEA010F25
:104440000DD0815809B900200AE00021815082581E
:104450001BB11A684CEA02021A60012000E0002039
:104460005DF804FBF0B583B005460E461746002400
:10447000019409E0E2B2920001AB02F5807231468C
:104480002846FFF7D2FF0134BC42F3D301AB4FF40F
:10449000BE7231462846FFF7C8FF019803B0F0BD51
:1044A000F0B51C46059E069D00F01F0C40092FD15B
:1044B0004FF0A04E0CF5E0735EF8233059B30120A5
:1044C0005AB30227384354B30C2738434EB34FF442
:1044D000E06738433DB34FF44037384323EA0000E8
:1044E00019B30B781AB31278520013430CB3227825
:1044F00092001343FEB1327812021343EDB12A78D1
:104500001204134303430CF5E07C4EF82C30F0BD4D
:104510004FF0000ECEE70020D2E70027D2E70027B9
:10452000D3E70027D5E70027D7E70023DAE7002203
:10453000DBE70022DDE70022DFE70022E1E700B54C
:1045400085B08DF80F100DF10F030193002100913C
:104550000B460A46FFF7A4FF05B05DF804FBC0B2A6
:10456000704738B50D460079FDF710FC0446284623
:10457000FFF7F5FF083034F8100000F0010038BDF7
:1045800038B50D460079FDF701FC04462846FFF7D3
:10459000E6FF083034F81000C0F3401038BD38B5DD
:1045A0000D460079FDF7F2FB04462846FFF7D7FFDA
:1045B000083034F8100010F01C0018BF012038BD7E
:1045C00038B50D460079FDF7E1FB04462846FFF7B4
:1045D000C6FF083034F81000C0F3400038BD38B5CD
:1045E00004460D46FFF7ECFF30B129462046FFF7A1
:1045F000C7FF18B1012000E0002038BD0020FCE713
:1046000008B5FFF7DDFF80F00100C0B208BD7047BC
:10461000704738B50D460079FDF7B8FB04462846CB
:10462000FFF79DFF083034F81000400B38BD032819
:1046300094BF00200120704770B506460D46002447
:1046400004E04FF0FF33AB4211D001341F2C0CD8E3
:104650003079FDF79BFB04F1080330F8133013F4B5
:10466000807FEED0C3F34323EDE7002000E001207C
:1046700070BD38B504460D46FFF782FFB8B1294634
:104680002046FFF7BDFF90B129462046FFF7C1FF46
:10469000226801238340C2F80833226800F5A27023
:1046A00052F8203023F0030342F8203003E00021C9
:1046B0002846FFF744FF38BDF8B506460F461546B5
:1046C0000024002C03DD4FF0FF342046F8BD307984
:1046D000FDF75CFB50F83430BB4201D00134F0E709
:1046E00000EBC4035B68AB42F8D1EEE738B50C468B
:1046F0000079FDF74BFB05462046FFF730FF0830F9
:1047000035F81030C3F38203042B11D0052B11D0E0
:1047100004F01F02640909D14FF0A043D3F810350B
:10472000D34013F0010F07D0032002E00023F5E788
:10473000032038BD0220FCE70220FAE710B504464A
:104740000846FFF70CFF083034F8103013F4807F70
:1047500004D0C3F3432304EBC30010BD0020FCE7E7
:1047600070B504460E4615460079FDF70FFB8660CE
:104770002079FDF70BFBC56070BD08B50079FDF72A
:1047800005FB90F86000003818BF012008BD70B527
:1047900004460D4616460368D3F80423002A03DBBB
:1047A0004FF00042C3F8042329462046FFF7E8FEF5
:1047B00000B329462046FFF723FFD8B129462046FB
:1047C000FFF727FF2268830003F580739BB2002167
:1047D00099509B58226800F5A27152F8213043F09D
:1047E000010342F821306EB1226801238340C2F8F0
:1047F000043307E029462046FFF778FF01462846A4
:10480000FFF79DFE70BDF8B504460D461646FFF74E
:1048100095FF20B10768426831462846B847A3682B
:104820001BB1E268314628469847F8BDF8B50746FF
:104830000E4614461D461046FFF7F9FE60B9022DDC
:1048400028D002213046FFF77AFE032C26D0022D15
:1048500022D0032D28D0F8BD224631463846FFF736
:10486000D2FF06F01F03720912D14FF0A04203F5E8
:10487000E07352F82330C3F301439D42EBD1002192
:104880003046FFF75CFE29463046FFF758FEE2E768
:104890000022ECE70321D5E7012CDAD1224631468C
:1048A0003846FFF7B0FFD6E7022CD4D1F6E7002355
:1048B000D3B10020704711F0010F0ED01AE04FF075
:1048C000A04CDCF820454EF8044BCCF820450132D2
:1048D0005C1CA242F3D3425922B90133002BEAD027
:1048E000002030BD0120FCE711F0010F01D10133A0
:1048F000DEE730B59D001A4600EB830EE8E710B501
:104900000C460079FDF742FA21465430FDF7A8F82D
:1049100010BD70B505460846FFF721FE044628790C
:10492000FDF734FA04F1080330F8133013F4807FF4
:104930000BD0C3F34326083423F4F85320F8143083
:1049400031462846FFF778FE00B170BD2879FDF7A3
:104950001DFA002340F836302879FDF717FA314662
:104960005830FDF7A1F8F0E770B504460D46FFF7A3
:1049700007FE48B1266829462046FFF74AFE00F5A3
:10498000A270002346F8203029462046FFF7C1FFD9
:104990002079FDF7FBF904462846FFF7E0FD0830D3
:1049A000002324F8103070BD10B50C460079FDF7D7
:1049B000EDF921465430FDF777F810BD70B5044687
:1049C0000D461E4604984FF0000C01E00CF1010C5E
:1049D00084450ED25FFA8CF2920002F58071920843
:1049E000012303FA02F21542F0D00023635063580A
:1049F000ECE7002D04DA0023C4F87C31D4F87C31D4
:104A000044F30730FFF762F80EB1C4F8045370BDE9
:104A10002DE9F04182B080460F4600230193C96D15
:104A200001A8FFF744FF002676B13A6D4FF0004130
:104A30004046FFF717FDF96D01A8FFF738FF002882
:104A4000F1D102B0BDE8F08197F85C3013F0010FAE
:104A500010D10136E8E7002405F5E07354F823305F
:104A6000C3F3014329463846FFF7E0FE0123AB407C
:104A7000C4F8203502AB03EB860353F8044C002C3A
:104A8000E7D094FAA4F4B4FA84F404F01F0528469D
:104A9000FFF765FD083037F81020C2F3820201AB42
:104AA00003EB86034FEAD40C04F0070413F80C1050
:104AB0000120A04021EA000103F80C106B09CAD1C3
:104AC0004FF0A044C8E7F8B506460F46144618E074
:104AD00094FAA4F3B3FA83F301229A4024EA02047D
:104AE00003F5A27356F82350C5F3042556F82300A6
:104AF000C0F30140FFF78BFD024629463846FFF719
:104B000082FE002CE4D1F8BD70B505460E46D0F803
:104B10000413C9B2326D41F00041FFF7A3FC041E3B
:104B200005DB224631462846FFF7CDFF70BD3146F2
:104B30002846FFF76DFF24F00044F2E708B5FDF7C3
:104B400005FA08BD08B5FDF725F908BD08B5FFF75A
:104B500007FE08BD08B5FDF799F908BD08B5FDF7D2
:104B6000C5FA08BD08B5FFF708FE08BD08B5FDF792
:104B7000A3FA08BD08B5FFF717FF08BD08B5FFF792
:104B8000BEFE08BD08B5FFF702FE08BD08B5FFF779
:104B900070FD08BD00B9704708B5FCF7DDF808BD29
:104BA00060B1C3685A7812F0010F03D01B781BB1B3
:104BB0000020704700207047012070470020704798
:104BC000EFF31183202383F31288BFF36F8FFEE787
:104BD00008B5FFF7F5FF10B5446803688BB12046B0
:104BE000984730B100280ADBFF2800DDFF20E3688A
:104BF0001870E268537843F00103537010BD4042CF
:104C0000F2E70020F5E708B500F0CFF908BD08B5D8
:104C100000F0BDF908BD704708B5EFF311832023FC
:104C200083F31288BFF36F8FFEF768FFF5E700BFCD
:104C3000704710B5073222F007028C182146FBF7A7
:104C400027FD073020F00700201A10BDEFF3058084
:104C5000003818BF0120704708B5FDF767FE08BD92
:104C600010B400248460037342738173C47384613D
:104C7000C46110BC70470020704708B5FBF72CFFDB
:104C800008BD90F90E3091F90E00834201D0C01A90
:104C900070470020704770B50646046884421AD0F9
:104CA000DCB16268236813605A6000252560656086
:104CB000637B23F002036373A56004F1180000F026
:104CC00045F9C4F8A0502046FDF7B4FC3468A6426C
:104CD000E6D10024E4E70024E2E770BD70B50546A4
:104CE0000E46FDF77BFC6B7B43F002036B73FEB15A
:104CF000AE603468A64208D1002406E063686B60A9
:104D00002C601D60656013E0002464B121462846D4
:104D1000FFF7B7FF0028F1DC002CF6D073689C4247
:104D2000F2D02468F1E773682E606B601D607560D7
:104D300070BD70B5044616461D46FFF7CFFF3246DC
:104D40002B462046FDF766FC70BD38B504460023AF
:104D5000EFF31185202282F31288BFF36F8F04E0F6
:104D600085F31188BFF36F8F012343B92046FFF706
:104D700082FF0028F4D12046FDF75CFCF0E738BD47
:104D800010B50446183000F0E1F8EFF3118120234C
:104D900083F31288BFF36F8F637B13F0100F04D07F
:104DA00081F31188BFF36F8F10BD00222046FDF7FD
:104DB00009FDF9E770B504460E460023EFF31185AF
:104DC000202282F31288BFF36F8F07E02046FDF7A1
:104DD00031FC85F31188BFF36F8F0123DBB9637B4F
:104DE00013F0280FF5D1A3685BB1626823681360E4
:104DF0005A60002323606360627B22F002026273C8
:104E0000A360637B23F004026273002EDED023F0E4
:104E100014036373DAE770BD08B501211838FFF792
:104E2000C9FF08BD70B505460023EFF311862022A7
:104E300082F31288BFF36F8F1C4605E0002486F3CF
:104E40001188BFF36F8F0123ABB92C68A542F5D051
:104E5000002CF4D06268236813605A60002323603A
:104E60006360627B22F002026273A36004F11800A7
:104E700000F06CF8E3E7204670BD08B5EFF3118051
:104E8000202383F31288BFF36F8FFDF76DFD08BDFC
:104E9000031D43608360704708B5EFF31181202341
:104EA00083F31288BFF36F8F037B13F0010F08D1D8
:104EB000437B13F0080F11D081F31188BFF36F8F7C
:104EC0000BE081F31188BFF36F8F002383F3118808
:104ED000BFF36F8F0423184602DF08BD0122FDF7E0
:104EE00071FCFAE710B50446FDF732FF48B10246FF
:104EF0000369416920691B18606941EB0001136176
:104F000051616268236813605A6000232360636004
:104F100010BD10B5FDF712FF0446FDF725FF7CB16B
:104F2000236962691B1A62EBE072B3F1004F72F100
:104F3000000108DA002A01DB184610BD0023FBE758
:104F40006FF00040F9E76FF00040F6E770B50446F7
:104F50000023EFF31186202282F31288BFF36F8FB4
:104F60006FF0150004E086F31188BFF36F8F012303
:104F70001D463BB92368002BF5D02046FFF7B2FF52
:104F80002846F0E770BD08B5FDF7E2FF08BD0A440A
:104F9000914200F1FF3300D1704710B511F8014B79
:104FA00003F8014F9142F9D110BD024403469342E8
:104FB00000D1704703F8011BF9E710B50139044629
:104FC00032B111F8013F00F8013B013A002BF7D153
:104FD0000021FFF7EAFF204610BD10B5024601444C
:104FE0008A42134603D01C780132002CF8D1181ADB
:104FF00010BDF0B5C3F137070446FFB203F01F033D
:105000001046082BE6B233D0102B3ED06508A4081A
:1050100044EA817445EAC1752D194FEA910242EBC9
:105020005102290941EA02716D1842EB1212290A54
:1050300041EA02616D1842EB1222290C41EA024159
:105040006D1842EB1242AD1842F10002EC0844EA3E
:105050004274D10804EB8402A6EB4205EDB2092D9F
:105060000CD90134A5F10A0541F10001EDB212E0BD
:10507000E40844EA417406F00705C908303554EAEB
:10508000010200F8015BBCD1F0BD240944EA0174BF
:1050900006F00F050909092D84BFED19EDB2EDE702
:1050A0000148006870470000BC02002064B0FF7F28
:1050B00001000000490D000000000000E10F0000A9
:1050C000DC50000059130000F0500000DD16000015
:1050D00000000000250D0000000000000C5300003F
:1050E0001C5300002C53000070000020E002002040
:1050F0004853000058530000705300007200002015
:1051000034030020E51C00002B43000000000000D9
:10511000E33A000000000000E33A00000000000055
:10512000E33A000000000000E33A00000000000045
:10513000E33A0000392100002B430000000000008A
:10514000E33A000000000000E33A00000000000025
:10515000E33A000000000000E33A00000000000015
:10516000E33A000000000000E33A00000000000005
:10517000E33A000000000000E33A000000000000F5
:10518000E33A000000000000E33A000000000000E5
:10519000F517000000000000E33A000000000000E6
:1051A000E33A000000000000E33A000000000000C5
:1051B000E33A000000000000E33A000000000000B5
:1051C000E33A000000000000E33A000000000000A5
:1051D000E33A000000000000E33A00000000000095
:1051E000E33A000000000000E33A00000000000085
:1051F000E33A000000000000E33A00000000000075
:10520000E33A000000000000E33A00000000000064
:10521000E33A000000000000E33A00000000000054
:10522000E33A000000000000E33A00000000000044
:10523000E33A000000000000E33A00000400000030
:105240000F00000001000000080000002000000026
:1052500060000000700000000D0000000C00000065
:105260000E00000050000000740000009C000000D0
:10527000FFFFFFFFFFFFFFFFFFFFFFFFFFFFFFFF3E
:105280000338FDD870470000F05000000700000010
:10529000F05000000F0010002A2A2A20426F6F747D
:1052A000696E67206E524620436F6E6E6563742090
:1052B00053444B2076322E392E302D373738376213
:1052C00032363439383430202A2A2A0A00000000C5
:1052D0002A2A2A205573696E67205A657068797288
:1052E000204F532076332E372E39392D31663866CC
:1052F0003364633239313432202A2A2A0A0000000A
:10530000B10D0000910D000000000000636C6F63A0
:105310006B4034303030303030300000190E000037
:10532000890E0000313D0000F13C0000890F0000B3
:105330007B3C0000BD3C0000000000008F3B0000F3
:1053400000000000000000006770696F40353030D9
:105350003030303030000000FFFFFFFF0000005011
:10536000000000000000000000600040000000009D
:1053700099110000CB3E0000D93E00000D3F000017
:10538000313F0000553F0000A5100000B73F00006E
:105390000000000069646C65000000006D61696ECA
:1053A00000000000B4500000B4500000CC500000D9
:1053B000D4500000DC500000DC500000286E756CFA
:1053C0006C29002A666C6F61742A00002F37000078
:1053D00000000000000000000000000000000000CD
:1053E00000000000000000000000000000000000BD
:1053F00000000000000000000000000000000000AD
:10540000000000000000000000000000000000009C
:10541000000000000000000000000000000000008C
:1054200008000000FF000000000000000100000074
:10543000000000006800002068000020000000005C
:0454400015E015E07E
:00000001FF
