:10000000501000203D0900006F3100002909000058
:10001000290900002909000029090000000000004A
:10002000000000000000000000000000C90A0000FD
:100030002909000000000000950A000029090000BD
:10004000490C0000490C0000490C0000490C00005C
:10005000490C0000490C0000490C0000490C00004C
:10006000490C0000490C0000490C0000490C00003C
:10007000490C0000490C0000490C0000490C00002C
:10008000490C0000490C0000490C0000490C00001C
:10009000490C0000490C0000490C0000490C00000C
:1000A000490C0000490C0000490C0000490C0000FC
:1000B000490C0000490C0000490C0000490C0000EC
:1000C000490C0000490C0000490C0000490C0000DC
:0C00D000490C0000490C0000490C000025
:1000DC0053B94AB9002908BF00281CBF4FF0FF31A3
:1000EC004FF0FF3000F00CB8ADF1080C6DE904CE08
:1000FC0000F008F8DDF804E0DDE9022304B07047F5
:10010C00704700BF2DE9F04786468C460846089E8E
:10011C00154674461946002B40F0C2808542B2FA4F
:10012C0082F245D94AB1C2F1200300FA02FC2EFA40
:10013C0003F3954043EA0C0C94404FEA154EA8B2D9
:10014C00BCFBFEF8230C0EFB18CC08FB00F943EAB1
:10015C000C43994528D9EB1808F1FF3704D299457F
:10016C0002D9A8F102072B44A3EB0903A4B2B3FBF9
:10017C00FEFC0EFB1C330CFB00F044EA0344A042D3
:10018C0014D92C190CF1FF3304D2A04202D9ACF1D2
:10019C0002032C44241A43EA07401EB1D440002326
:1001AC0034607360BDE8F0874746DDE76346F1E7EE
:1001BC0092BB431B01214FEA154EAFB2B3FBFEFCC1
:1001CC00200C0EFB1C330CFB07F840EA034398454C
:1001DC0062D9EB180CF1FF3004D2984502D9ACF17E
:1001EC0002002B44A3EB0803A4B2B3FBFEFC0EFBF2
:1001FC001C330CFB07F744EA0344A7424ED92C19D5
:10020C000CF1FF3304D2A74202D9ACF102032C4407
:10021C00E41B43EA0040C0E7C2F1200320FA03F1DB
:10022C00954090402EFA03F303434FEA154EAFB2BC
:10023C00B1FBFEFC0EFB1C10190C0CFB07F841EA81
:10024C000041884504FA02F422D969180CF1FF30F8
:10025C0004D2884502D9ACF102002944A1EB080173
:10026C009BB2B1FBFEFC0EFB1C110CFB07F743EA27
:10027C0001439F420ED9EB180CF1FF3104D29F427F
:10028C0002D9ACF102012B44DB1B41EA004192E79D
:10029C006046E3E76146F7E76046A3E76346B7E7E6
:1002AC00834206D916B9002108467BE7C6E900E06F
:1002BC00F9E7B3FA83F78FB9834201D3724508D8B3
:1002CC00BEEB020460EB030301209C461EB9002127
:1002DC0068E73846FAE7C6E9004CF8E7C7F1200CA6
:1002EC00BB4022FA0CF41C432EFA0CF120FA0CF34E
:1002FC00B84001434FEA14490EFA07F5B3FBF9F87D
:10030C001FFA84FE09FB18300B0C08FB0EFA43EAAB
:10031C0000439A4502FA07F240D9E31808F1FF307E
:10032C0004D29A4502D9A8F102002344A3EB0A0394
:10033C0089B2B3FBF9F809FB183308FB0EFE41EA4E
:10034C0003418E452CD9611808F1FF3304D28E4538
:10035C0002D9A8F10203214443EA0040A0FB029811
:10036C00A1EB0E014145CE46434602D306D14D4585
:10037C0004D2B9EB020E68EB04030138002EA6D0B0
:10038C00B5EB0E0261EB030101FA0CFC22FA07F348
:10039C004CEA0303F940C6E9003198E74046C5E74B
:1003AC004346D9E708B5024B1B68984708BD00BF08
:1003BC000000002000B585B00A460023009301938D
:1003CC000293039302238DF80230044B01930146F0
:1003DC00684602F0B1F905B05DF804FBB10300000A
:1003EC0080B505460E461746984601F09BFF03461E
:1003FC0003F082FC0446DFF8189049F800304246BE
:10040C0039463046A84754F8090000F0E7FA00BF17
:10041C00080000002DE9F04383B004460846154659
:10042C00238B13F0080F05D103F00706002300936C
:10043C00019354E0012909D043F02003238385F371
:10044C001188BFF36F8F03B0BDE8F08343F0100346
:10045C002383F4E7204602F01DFD42E0D4F814900B
:10046C004A466946204602F02EFD4FF00008238BC9
:10047C0003F00707B74269D0A268002A66D00122B0
:10048C0043F00803238385F31188BFF36F8F002A91
:10049C0064D1009B2BB14B463A466946204602F08C
:1004AC008BFDB8F1000F02D034492046C047EFF362
:1004BC001185202383F31288BFF36F8F238B23F0D6
:1004CC0008032383238B13F0100F4DD023F010035C
:1004DC0023830120268B06F007060028AFD00228C4
:1004EC00B8D00028ABD0013804282BD801A353F87E
:1004FC0020F000BF69040000510500001505000044
:10050C00290500003D0500002369D3F80080062171
:10051C00204602F095FC4FF00009A8E72369D3F8B8
:10052C0004800421204602F08BFC4FF000099EE76A
:10053C002369D3F808800521204602F081FC4FF096
:10054C00000994E74FF00008C14690E7009A0AB101
:10055C00002295E7B8F1000F92D1B3E74A4639462D
:10056C00204602F075FC94E713F0200F04D023F022
:10057C00200323830220ADE70020ABE7F32F00001C
:10058C0008B5034802F04EFC024802F04BFC08BDD3
:10059C00D83E0000103F000030BFFFF7FDBF00BF8A
:1005AC0038B50446054D2A46054903F01BFB054AA0
:1005BC000021601903F024FB38BD00BF00000000CF
:1005CC00C83E00000400000070B50646064D074BFF
:1005DC001D444C1B2046FFF7E3FF083CC6F898402F
:1005EC0005F1080070BD00BF000000000400000011
:1005FC00074B9B6893F90E20002A08DB044A5269CA
:10060C00934204D0034A536843F0805353607047BD
:10061C00D402002000ED00E038B51446264B9B6A4E
:10062C0013F0100F1AD11025234B9B6A13F0080FEF
:10063C0000D01225204B9B6A13F0020F11D01E4BD9
:10064C005A6B9B6A13F0800F0AD0002930D01A4ADB
:10065C00936A23F080039362132502E01125E3E7EC
:10066C001325154B9B6A13F0010F00D01425124B68
:10067C009B6A13F0200F1DD10F4B9B6A13F0100FC8
:10068C0001D10D4B9B6A0C4B9B6A13F0200F04D0CD
:10069C00094A536A23F400535362074A936A43F09E
:1006AC00FF039362012102F062FD2070284638BDE1
:1006BC001325D6E71525DFE700ED00E038B5154624
:1006CC00204B9B6A13F4805F19D116241D4B9B6A37
:1006DC0013F4006F00D018241A4B9B6A13F4007F9C
:1006EC0010D0184B9A6B9B6A13F4004F09D0D9B1F8
:1006FC00144A936A23F400439362192402E01724EA
:10070C00E4E719240F4B9B6A13F4806F00D01A2472
:10071C000C4B9B6A13F4807F08D10A4B9B6A13F431
:10072C00005F04D01C2402E01924EBE71B24054ACB
:10073C00936A43F47F439362012102F018FD287001
:10074C00204638BD00ED00E0174B9B6A13F0007F8C
:10075C0025D11D20144B9B6A13F0807F00D01F20E5
:10076C00114B9B6A13F4002F00D021200E4B9B6A77
:10077C0013F4802F00D022200B4B9B6A13F4003F04
:10078C0000D02320084B9B6A13F4803F09D1064A02
:10079C00936A6FEA03436FEA1343936270471E2018
:1007AC00D8E72420F3E700BF00ED00E081690D4B92
:1007BC005A6942F480725A61BFF34F8FBFF36F8F47
:1007CC0031F8021C5A6922F480725A61BFF34F8FC0
:1007DC00BFF36F8F4DF60273994201D00020704722
:1007EC000120704700ED00E038B5054600230B7082
:1007FC001A4BD86A10F002002DD10C46DB6A002B84
:10080C002ADB164BD86A10F0804025D02846FFF71B
:10081C00CDFF08B128681FE0104B9B6A13F0FF0F47
:10082C000DD10E4B986A10F47F400ED10B4B9B6A86
:10083C00B3F5803F10D32846FFF786FF0CE0224625
:10084C0001212846FFF7E8FE06E022460121284652
:10085C00FFF734FF00E0002038BD00BF00ED00E0E2
:10086C0030B58BB00C46264B5968C1F308010023F8
:10087C0083F31188BFF36F8F02F07F43B3F17F4F87
:10088C0015D102F00C03082B14D012F0080F0BD06A
:10089C0000250DF12702204602F06EFC86469DF8DD
:1008AC00273053B10BB030BD04460125F1E70025CC
:1008BC002C46EEE700252C46EBE70DF1040C2068E6
:1008CC006168A268E368ACE80F0020696169A269FD
:1008DC00E369ACE80F0045B1C3F308025AB96FEAFB
:1008EC0053236FEA4323089305E0089B23F4FF731B
:1008FC0023F00103089301A9704602F023FCD1E711
:10090C0000ED00E0044B5A6942F010025A615A693A
:10091C0022F008025A61704700ED00E0EFF3088006
:10092C00EFF3098101B57246FFF79AFF01BD00BFD5
:10093C00002013490870002080F31488BFF36F8FD8
:10094C0000F0CCFD00200F490860BFF34F8F0E481C
:10095C0080F3088800F01CF8202080F311880B48E5
:10096C004FF40061401880F30988EFF314800221E2
:10097C00084380F31488BFF36F8F00F0DFF800009A
:10098C000E03002094ED00E0501000201003002016
:10099C0072B6002383F3138808E003F120010E4A9A
:1009AC004FF0FF3042F821000133DBB2072BF4D9B2
:1009BC00002308E003F16001074A4FF0FF3042F8D2
:1009CC0021000133DBB2072BF4D962B6BFF34F8F92
:1009DC00BFF36F8F704700BF00E100E008B50A4B12
:1009EC009B68834202D003F082F808BDEFF30583C5
:1009FC00002BF8D0054B5A6842F080525A605A6A64
:100A0C0022F400425A62EEE7D402002000ED00E02E
:100A1C000A4A9368C3F89C006FF00A01C3F8A0104F
:100A2C0007494B6843F080534B60002383F31188D4
:100A3C00BFF36F8F9368D3F8A0007047D4020020E7
:100A4C0000ED00E0EFF31183202383F31288BFF352
:100A5C006F8F0A4A53699360094A4FF000615160E5
:100A6C00D3F89810074A1160D3F89C200021C3F8E2
:100A7C009C1082F31188BFF36F8F7047D402002053
:100A8C0000ED00E0480200200B498A684FF030006E
:100A9C001044EFF3098C80E8F01F74467046FFF7A2
:100AAC00D1FFA64604498A6802F1300090E8F01F95
:100ABC008CF3098870470000D40200201EF0040F4C
:100ACC000CBFEFF30880EFF30980816911F8021C69
:100ADC000229FFD001B502F03EFB01BD002807DB67
:100AEC0000F01F02400901239340024A42F82030D3
:100AFC00704700BF00E100E0002808DB4901C9B2E3
:100B0C0000F1604000F5614080F80013704700F080
:100B1C000F004901C9B2014B1954704714ED00E0A4
:100B2C004209054B53F8222000F01F00012303FA61
:100B3C0000F01040704700BF00E100E008B50B4B1F
:100B4C000B4A22F07F029A60BFF34F8FBFF36F8F77
:100B5C00D3F8882022F47002C3F8882000F094FFA8
:100B6C0001F09AFC00F050F800F0EAFF00ED00E014
:100B7C000000000010B4A2F120040E4942F8081C39
:100B8C0021F0010142F8081C42F8203C019B42F87C
:100B9C001C3C029B42F8183C039B42F8143C4FF05F
:100BAC00807342F8043C04650023C0F89C3010BCF0
:100BBC00704700BFED03000000B50E460B4B98606C
:100BCC00D0F898100A4B196015462C4686F3098804
:100BDC004FF00000074B984720464FF000014FF0B4
:100BEC0000024FF00003044C204700BFD402002049
:100BFC0048020020ED310000ED030000014B1022F3
:100C0C001A61704700ED00E0002206E003F00F03CC
:100C1C000949194420230B760132262A0ADC53B2E7
:100C2C00002BF3DB03F1604303F56143202183F8D0
:100C3C000013F1E7704700BFFCEC00E008B5EFF3E0
:100C4C000583103B044A02EBC301496852F8330098
:100C5C008847FFF7CDFC08BD4C3D000008B50649A0
:100C6C0021F00701C1F1005202F58032034802F075
:100C7C0059F8002008BD00BF571000204C0200207E
:100C8C00024B0122C3F840250020704700E00140D0
:100C9C0030B108B5034B800143F00103984708BD00
:100CAC00704700BFD03E000000487047AC020020E7
:100CBC00034BC01A8010034B03FB00F0704700BFBE
:100CCC006C020020B76DDBB638B505460C46FFF755
:100CDC00EFFF01464022034802F033FB0146284651
:100CEC00A04738BD383D000030B583B005460C46F2
:100CFC00FFF7DEFF0146402300932346054A0648D2
:100D0C0002F039FB011E01DB03B030BD2846A047C1
:100D1C00FAE700BFCB330000383D000008B510B136
:100D2C0001280DD008BD0021084802F098FA83680C
:100D3C0013F0070FF6D10021044802F0F0FAF1E7A6
:100D4C000121024802F0EBFAECE700BF383D00004D
:100D5C0010B582B0EFF31184202383F31288BFF314
:100D6C006F8F154A136843F00201116013F0010FE5
:100D7C0009D1002384F31188BFF36F8FB3B902F04C
:100D8C0026FB02B010BD0DF1070201214FF080408F
:100D9C0002F049FA9DF80730012B01D00023E9E756
:100DAC00FFF782FF02F0A9FA0123E3E700210348D1
:100DBC0002F0B5FAE5E700BFBC020020383D0000A8
:100DCC0010B5EFF31184202383F31288BFF36F8FD8
:100DDC00074A136823F00201116013F0010F04D0CD
:100DEC0084F31188BFF36F8F10BD02F0F5FAF7E7AB
:100DFC00BC02002070B582B00546012807D14FF027
:100E0C008043D3F81C3403F00303012B4BD002F0C6
:100E1C0048FD044618B9284B1B78002B38D1EFF34A
:100E2C001186202383F31288BFF36F8F012424B91A
:100E3C004FF080430222C3F8082301AA00214FF08F
:100E4C00804002F0F0F920B1019B012B26D0012D3E
:100E5C0024D0FCB1304602F0D7F94FF08043D3F8E0
:100E6C001835002BE9D14FF08043D3F80431002B17
:100E7C00E3D04FF080430022C3F80421D3F80421BF
:100E8C000122C3F818250D49C1F880219A60D4E7D6
:100E9C000026CCE7012002F0A9FADEE72CB186F39C
:100EAC001188BFF36F8F02B070BD4FF080430222E8
:100EBC00C3F80423F7E700BF0E03002000E100E0B5
:100ECC0000B585B0CDF800D0CDF804D00023029346
:100EDC00012303936B46074A02F069FA002805DBED
:100EEC004FF480420023684600F090FE05B05DF898
:100EFC0004FB00BF2534000008B5064B1B7803B17A
:100F0C0008BD4FF4A57002F080FC024B01221A7050
:100F1C00F6E700BF0C03002070B506460022012145
:100F2C00104602F051F9114800F010FC104B984299
:100F3C0019D100F01FFC0024012C12D82146304698
:100F4C0002F08DF905462146304602F093F9094925
:100F5C0002F057F8002805DB0123AB601C44E4B217
:100F6C00EAE7002070BD6FF00400FBE7290D0000DC
:100F7C000000AD0B403F000010B50446104B0121A2
:100F8C00BFF35B8F53E8002F43E800100028F9D122
:100F9C00BFF35B8F1AB1631E012B0DD910BD09482D
:100FAC0002F068F9084900234B608B60CB60012389
:100FBC008B6002F043F8EEE72046FFF71BFFEDE7EE
:100FCC0068020020383D00005802002021F07F41CB
:100FDC0000F5A870014B43F8201070470010014039
:100FEC004FF480338340024AC2F84433704700BF49
:100FFC00001001404FF480338340024AC2F848335A
:10100C00704700BF00100140014BD3F80405704736
:10101C00001001402DE9F843054689469046FFF73C
:10102C00E9FF284602F068FA4E46032710E0FFF766
:10103C00EBFF0446494602F04EFAB0F5000F26D9F4
:10104C00284602F059FAB8F1000F22D13E190137A7
:10105C0031462846FFF7BAFF2846FFF7C1FFFFF7D6
:10106C00D3FF0446C11C304602F035FA0A4B9842B5
:10107C000AD9284602F033FA0028D8D1B8F1000F6B
:10108C00E4D06FF0150000E00020BDE8F8830020EC
:10109C00FBE76FF01500F8E7FDFF7F00034B044AF8
:1010AC00C3F80823C3F84823704700BF0010014061
:1010BC0003000F0010B5012383406FEA030C0E4AA6
:1010CC00BFF35B8F52E8001F01EA0C0E42E800E40C
:1010DC00002CF7D1BFF35B8F4FF48032824007486E
:1010EC00C0F80823BFF35F8FBFF36F8F0B4214BFA1
:1010FC000120002010BD00BFC402002000100140E0
:10110C004FF480338340144AD2F80423134201D1A4
:10111C000020704710B5044601238340DB430F4980
:10112C00BFF35B8F51E8002F02EA030041E8000C8B
:10113C00BCF1000FF6D1BFF35B8F22FA04F313F06E
:10114C00010F03D1204602F0CAF918B1204602F073
:10115C00D3F9012010BD00BF00100140C0020020D7
:10116C0001B9704701238340114ABFF35B8F52E8EA
:10117C0000CF4CEA030C42E800C10029F7D1BFF3C1
:10118C005B8F4FF4803383400A4AC2F80433BFF3B9
:10119C005B8F094B1B68BFF35B8FC34013F0010FD0
:1011AC00DFD0064B4FF40032C3F80021D9E700BF63
:1011BC00C402002000100140C002002000E100E049
:1011CC0038B514461046194602F0A2F902460D49EC
:1011DC000B68E01A1B184C6844F100040B604C605F
:1011EC00A2F50013B3F5400F09D2074B1B68190A7F
:1011FC001B06D41841F10005044BC3E9004501F06E
:10120C000DFA38BD20000020C80200202800002064
:10121C0038B50D4B1C68250A2406BFF35F8FFFF70A
:10122C00F3FE0346001945F10001B3F5801F0AD205
:10123C00064BD3E90023904271EB030303D210F168
:10124C00807041F1000138BDC80200202800002048
:10125C002DE9F041064614461D469DF820801046A7
:10126C00194602F055F90746FFF7D2FFA04271EB81
:10127C00050319D2201A65EB01011D4B984271F13F
:10128C0000012FD21B4B03EB0613D3E90223AB4215
:10129C0008BFA24201D1002018E042463946304630
:1012AC00FFF7B8FE90B11BE0B8F1000F1DD1012380
:1012BC00B340114ABFF35B8F52E8000F184342E86A
:1012CC0000010029F8D1BFF35B8F0020094B3201DC
:1012DC0003EB0616C6E9024506999950079B736005
:1012EC00BDE8F0816FF01500FAE76FF01500F7E735
:1012FC000100800010000020C002002030B585B035
:10130C00FFF7CCFE00231E4AC2F80835002B25DD62
:10131C001B4C0225C4F804531A4B4FF40032C3F88B
:10132C00802100220121112001F04EFF112001F03B
:10133C0046FF0123A3602360134A13600024029428
:10134C000194124B0093124A0023204602F0F0F84D
:10135C002846FFF711FE204605B030BD0D4A02EBC2
:10136C0003124FF0FF304FF0FF31C2E902014FF48E
:10137C0080329A400249C1F804230133C6E700BF0A
:10138C000010014000E100E0C4020020CD1100007B
:10139C00FFFF7F00100000202DE9F04782B00446CB
:1013AC00FFF7AEFE10B902B0BDE8F087FFF730FFD3
:1013BC0082460D4602F0AFF80646154B03EB0413BC
:1013CC00D3E90289C24575EB09050BD200253046DD
:1013DC0002F0A9F8002DE6D0009742464B46204675
:1013EC00A847E0E70A4A230102EB0411D5584F68DD
:1013FC000020D0504FF0FF324FF0FF33C1E90223F1
:10140C002046FFF7F7FD204602F076F8DFE700BF35
:10141C001000002010B50D4BD3F8043313F0020F5D
:10142C0003D10024002C0BDD10BD0221074802F073
:10143C001CF80028F5D0064A136801331360F0E756
:10144C002046FFF7A9FF0134ECE700BF0010014074
:10145C00C802002010B584B0B0F1FF3F18D00128AD
:10146C001BDD154B9842A8BF18460446134B0122AE
:10147C001A70FFF7CDFE124B1A685B68801AB0F534
:10148C00000F0CD20444B4F5000F09D30A4C07E04A
:10149C000A4B00221A70084CEBE70124E6E7064CD5
:1014AC0000201219029001900649009143F10003AB
:1014BC0002F03EF804B010BDFFFF7F000D030020CA
:1014CC0020000020CD11000008B5FFF7A1FE024B53
:1014DC001B68C01A08BD00BF2000002008B502F030
:1014EC0043F840B14FF08053D3F82433C3F30423B3
:1014FC005C4AC2F8403502F049F810B15A4B5B4ACD
:10150C005A6702F059F848B14FF08053D3F844327F
:10151C00C3F342334FF08042C2F83C3502F05EF820
:10152C0030B1534AD2F8FC3023F08073C2F8FC304F
:10153C0002F06AF840B14FF080430022C3F80C214E
:10154C00C3F81021C3F8382502F070F820B14FF021
:10155C0080430322C3F8A02502F07EF860B1454B0E
:10156C000522C3F810260122C3F888260022C3F8EE
:10157C0018263F22C3F8142602F084F8002846D01F
:10158C004FF08052D2F804143B4BC3F82015D2F81C
:10159C000814C3F82415D2F80C14C3F82815D2F883
:1015AC001014C3F82C15D2F81414C3F83015D2F853
:1015BC001814C3F83415D2F81C14C3F84015D2F81B
:1015CC002014C3F84415D2F82414C3F84815D2F8E3
:1015DC002814C3F84C15D2F82C14C3F85015D2F8B3
:1015EC003014C3F85415D2F83414C3F86015D2F87B
:1015FC003814C3F86415D2F83C14C3F86815D2F843
:10160C004014C3F86C15D2F84424C3F8702502F0CA
:10161C005BF848B14FF08053D3F8583203F04F03C6
:10162C004FF08042C2F8E43E02F060F860B14FF037
:10163C008043D3F8003413F0010F05D04FF08043F2
:10164C006FF00102C3F8002402F062F830B10B4ACB
:10165C00D2F83C3743F48063C2F83C3702F080F890
:10166C0008BD00BF0030014000C007400DF0ADBA0E
:10167C0000ED00E00050004000C0004000100040B1
:10168C000D4BD3F8FC1041F08072C3F8FC20A3F58D
:10169C005D43186840F001021A605A68074B5B689A
:1016AC009B1AB3F50A5FF9D3044B186003F55D433D
:1016BC00C3F8FC10704700BF00ED00E0001000E024
:1016CC0070B582B0064618B1012816D002B070BDB4
:1016DC004FF080430222C3F808230122DA60002273
:1016EC00C3F80421D3F8043101238DF807309E424E
:1016FC000FD0002542F2107413E04FF0804301220A
:10170C00C3F808235A600022C3F80021D3F8003133
:10171C00EAE70DF10705EDE7012002F031F8013C95
:10172C000CD02A4631464FF0804002F02DF828B1FB
:10173C00002DF1D09DF80730012BEDD0012EC5D135
:10174C00014B00225A71C1E7CC020020064B1B79D9
:10175C003BB9054B186001221A7100225A710348DB
:10176C0070470348704700BFCC0200200000AD0B4F
:10177C000C00AD0B08B5064B1B680BB102F022F840
:10178C0002F01EF84FF08043C3F8180508BD00BFE7
:10179C00CC02002070B582B018B1012848D002B03C
:1017AC0070BD4FF08043D3F81824D3F8183403F0ED
:1017BC000303019312F4803F13D14FF08043D3F80D
:1017CC00143413F0010F10D101F0FAFF0190019ABB
:1017DC004FF08043C3F8182508254FF48273022676
:1017EC002AE001A801F0F7FFF1E74FF08043D3F8AE
:1017FC001C3403F00303019301A801F0ECFF002853
:10180C00E5D01C4B1B682BB14FF080430222C3F870
:10181C000423C4E74FF08043D3F80431002BF9D0F4
:10182C004FF080430022C3F80421D3F80431B6E70B
:10183C0000254FF48073012603F1804400222260BE
:10184C002268B3F5827F0BD005F1804501232B6014
:10185C00084B1B683BB14FF08043C3F804639EE711
:10186C00FFF70EFFF0E72368002BFCD0002323606A
:10187C00236894E7CC02002008B54FF08043D3F8DE
:10188C0000318BB14FF080430022C3F80021D3F814
:10189C0000210122C3F80823154B5B7923B9144BA3
:1018AC005A711B68002098474FF08043D3F80431DD
:1018BC009BB14FF080430022C3F80421D3F80421DC
:1018CC00D3F81824D3F8183413F0030F06D14FF0C3
:1018DC0080430122C3F818259A6008BD4FF080435D
:1018EC000222C3F80823024B1B6801209847F4E737
:1018FC00CC02002038B5EFF31185202383F3128836
:10190C00BFF36F8F054B9C6801F08DFF85F3118839
:10191C00BFF36F8F2046FFF761F838BDD40200206B
:10192C0038B505460A4B53F8204002E02368984727
:10193C0008346B1C064A52F82330A34206D963685C
:10194C00002BF3D0204601F071FFF1E738BD00BF4A
:10195C00983F000010B586B0A823104C03FB004440
:10196C0000EB800C0E4B03EB8C030E4A059201220C
:10197C0004920F22039200220292019200930A4BCE
:10198C004FF4A072094901EB8C11204600F066F966
:10199C00637B23F00403637306B010BD300000209A
:1019AC00D4020020883F00007B380000100B002080
:1019BC0008B553EA020102D101F079FF08BD0249D2
:1019CC00183000F0A5FDF9E77B3A000010B586B0A1
:1019DC00184C14E0636A0593236A0493E369039338
:1019EC00A36902936369019323690093E368A26876
:1019FC006168206800F032F923685C6530340E4B66
:101A0C009C42E7D300F08EFB0A4C00E030340A4BCA
:101A1C009C420BD2A26AE36AB3F1FF3F08BFB2F15A
:101A2C00FF3FF3D02068FFF7C3FFEFE700F092FB16
:101A3C0006B010BD843E0000843E000008B50B4B80
:101A4C0001221A700320FFF76BFFFEF799FD01F0DE
:101A5C000DFF0420FFF764FFFFF7B8FF01F0C9F892
:101A6C00034A137B23F00103137308BD0E030020FC
:101A7C00D800002008B50146014A0248FFF79CF83F
:101A8C00491A0000D800002008B50348034A121A6E
:101A9C00002101F0E3FE08BD10000020100300201F
:101AAC0010B50446FFF756FFA8230A4903FB04119F
:101ABC00094A04EB840302EB8303D9601C74074BC3
:101ACC0003EBC42303F5006304EB840402EB8402F0
:101ADC00536010BD30000020D40200201003002001
:101AEC0070B586B000F054FB104D114B5D61114B7D
:101AFC00059301230493002403940294019400940D
:101B0C000D4B4FF480620D49284600F0A7F80646AD
:101B1C006B7B23F004036B73284601F041FF2046D6
:101B2C00FFF7BEFF304606B070BD00BFD8000020E6
:101B3C00D4020020903F0000491A0000500C0020F5
:101B4C0008B50020FFF7ECFE194B83F30888194CFD
:101B5C00636943F400736361E02384F82230002549
:101B6C00E57725766576A57684F82050636A43F48C
:101B7C00E023636284F82350FEF7C4FEFFF73EF8BF
:101B8C004FF0FF33A362E3620B4B01245C731C73B5
:101B9C00C3F89450094A936000F0C2FD2046FFF749
:101BAC00BFFE0220FFF7BCFEFFF79AFFFFF762FFB4
:101BBC00100B002000ED00E080010020D40200207A
:101BCC0038B50446EFF31185202383F31288BFF355
:101BDC006F8F01F052FF48B10022C0F8A02001F035
:101BEC00DFFE2946084800F053FA38BDA368E268C6
:101BFC00934207D001221344A36085F31188BFF3ED
:101C0C006F8FF2E70022F6E7F802002010B582B0E1
:101C1C00EFF31181202484F31288BFF36F8F846853
:101C2C0044B1013C846081F31188BFF36F8F0020B5
:101C3C0002B010BD53EA020406D000920193024692
:101C4C00054800F009FAF3E781F31188BFF36F8FB1
:101C5C006FF00F00ECE700BFF80200202DE9F04F09
:101C6C0085B004460F4615461E46DDF838A0DDF853
:101C7C003C90DDF84080DDF84CB000F158038365F2
:101C8C00C365129B0422119901F015FE2A463946B0
:101C9C00204601F0F9FD0546CDF80880CDF80490FA
:101CAC00CDF800A03346024639462046FEF762FFC7
:101CBC00002363652666C4F864A0C4F86890C4F871
:101CCC006C80EFF31182202383F31288BFF36F8FA4
:101CDC00124B196A21671C6282F31188BFF36F8F54
:101CEC00BBF1000F13D01F22594604F1740001F010
:101CFC008FFF002384F89330084B9B685BB1D3F8BB
:101D0C009430C4F89430284605B0BDE8F08F002319
:101D1C0084F87430F0E7C4F89430F4E7D40200206F
:101D2C0010B5114B53F8184F9C420FD074B180B9B9
:101D3C000D4B9B685A7B12F01F0F0AD1A26942B956
:101D4C00DA897F2A05D9084A53610BE0064BDC6817
:101D5C00EDE7054B9B68A34202D0204600F01EFB2A
:101D6C00014B5C6110BD00BFD402002008B5437B61
:101D7C0090F90D20002A08DB094B9B68834214BFA5
:101D8C0000200120FFF7CCFF08BD03F07F03437355
:101D9C004268036813605A60002303604360EBE7FA
:101DAC00D4020020B3F1FF3F08BFB2F1FF3F00D1D6
:101DBC00704708B50249183000F0AAFB08BD00BFF7
:101DCC007B3A0000427B90F90D30002B33DB70B571
:101DDC00044612F01F0F01D1866906B170BD62F086
:101DEC007F024273144B53F8185F9D4208D135465D
:101DFC0006E06B68636025601C606C6017E035461C
:101E0C006DB12946204601F067FD0028F1DC002D5C
:101E1C00F6D0094BDB699D42F1D02D68F0E7064BFB
:101E2C00DA6903F11801216062601460DC61002042
:101E3C00FFF776FFD2E77047D4020020437B0B42BA
:101E4C0058D170B504460D460B43437313F0800F05
:101E5C001BD1082D24D000260120FFF761FF102D87
:101E6C0041D0204600F0FAFA46B1234B01225A73B6
:101E7C001A730022C3F89420204A9360BFF35F8F3B
:101E8C00637B23F06003637370BD03F07F034373C4
:101E9C004268036813605A60002303604360D8E70C
:101EAC00A3685BB16268236813605A6000232360E7
:101EBC006360627B22F002026273A36004F118007B
:101ECC0001F06FFE04F1580001F010FD0B4B9B6804
:101EDC00A34201D00026BFE7EFF305830BB9002620
:101EEC00BAE70126B8E7BFF35F8F637B23F060038B
:101EFC006373C9E7704700BF80010020D402002043
:101F0C0038B505460C46124B9868437B13F0600FAE
:101F1C0005D013F0200F07D00821FFF78FFF84F3B3
:101F2C001188BFF36F8F0EE01021F6E7EFF31184E9
:101F3C00202383F31288BFF36F8F01F0A3FC84F38B
:101F4C001188BFF36F8F6B7B13F0600FEED138BD30
:101F5C00D4020020F8B504460E46154600F1580789
:101F6C0001F0B4FCB8B1637B55B120221343637309
:101F7C00EFF3058333B131462046FFF7C1FFF8BDBF
:101F8C004022F3E73946104B986801F0D2FC3046FA
:101F9C0001F09EFCF3E765B108212046FFF74EFFE8
:101FAC00094B9B68A34206D086F31188BFF36F8F51
:101FBC00E5E71021F1E7EFF30583002BF4D1304670
:101FCC0001F086FCDBE700BFD402002038B50546E3
:101FDC00437B90F90D20002A0ADB6B7B63F07F03B7
:101FEC006B731C4B53F8184F9C4213D1002411E017
:101FFC0003F07F0343734268036813605A60002345
:10200C0003604360E9E763686B602C601D6065608A
:10201C0017E000246CB12146284601F05DFC002835
:10202C00F1DC002CF6D00B4BDB699C42F1D0246820
:10203C00F0E7084BDA6903F1180129606A60156052
:10204C00DD61044B9868A84214BF00200120FFF703
:10205C0067FE38BDD402002010B50C4611460A4864
:10206C0082680A4B1A60EFF31183202383F31288E2
:10207C00BFF36F8FDDE90223806801F085FC2046F9
:10208C00FEF7C6FC10BD00BFD4020020F8020020F1
:10209C0008B50B4659B9EFF3058242B9064A5069A7
:1020AC009268904203D00846FEF7B2FC03E083F33B
:1020BC001188BFF36F8F08BDD402002010B5EFF369
:1020CC001184202383F31288BFF36F8F437B13F0AB
:1020DC00040F04D184F31188BFF36F8F10BD23F06C
:1020EC0004034373FFF76EFE21460248FFF7D0FF4F
:1020FC00F4E700BFF802002008B5034650B9EFF32F
:10210C0005823AB9064A51699268914202D0FEF7AB
:10211C007FFC03E083F31188BFF36F8F08BD00BF12
:10212C00D40200200023EFF31181202282F31288C5
:10213C00BFF36F8F09E0064B9A68D37B013BD373D7
:10214C0081F31188BFF36F8F0123002BF3D07047FD
:10215C00D402002010B50023EFF31184202282F367
:10216C001288BFF36F8F0CE0084B9A68D37B013356
:10217C00D3730020FFF7D4FD84F31188BFF36F8F66
:10218C000123002BF0D001F0A3FC10BDD4020020E1
:10219C0008B5024801F0A7FC08BD00BFE80200200A
:1021AC0070B5EFF31186202383F31288BFF36F8F82
:1021BC001E4B9A68517B01F07F0151735068116876
:1021CC00016048600021116051609D686A7B62F07B
:1021DC007F026A7353F8184F9C4208D1002406E022
:1021EC0063686B602C601D60656017E000246CB147
:1021FC002146284601F070FB0028F1DC002CF6D0BB
:10220C000A4BDB699C42F1D02468F0E7074BDA6992
:10221C0003F1180129606A601560DD610120FFF788
:10222C007FFD3046FEF7F4FB70BD00BFD4020020EA
:10223C002DE9F04150EA010337D004460E466FF009
:10224C0001031B1A4FF0FF3262EB0102012B72F1FA
:10225C0000022EDB6FF001052D1AEFF311882023FD
:10226C0083F31288BFF36F8F144FB868144B186048
:10227C00FFF77CFDB868224633461249183000F04F
:10228C0047F9BA68537B43F0100353734046FEF78B
:10229C00BFFB01F0A3FC281A63EB0303012873F1C5
:1022AC00000300DA0020BDE8F081FFF779FF002081
:1022BC00F9E701F093FC0519CFE700BFD402002029
:1022CC00F80200207B3A000008B5B1F1FF3F08BFCF
:1022DC00B0F1FF3F1DD0FFF7ABFFC217510141EA30
:1022EC00D06143011B1A61EB0201890041EA937131
:1022FC009B001B1842EB0102D20042EA5372DB0036
:10230C0047F6FF71581842F10002C00B40EA4240F8
:10231C0008BD034B986801F05EFB4FF0FF30F7E708
:10232C00D4020020014B9868704700BFD4020020F3
:10233C00044BC01AC010044B03FB00F0034B0122EA
:10234C001A54704728020020ABAAAAAAFC0200204B
:10235C00C3897F2B11D80E4B1B687BB190F90E20D3
:10236C000C4B1B689A420CDB437B13F01F0F0AD1FA
:10237C00094B984209D0012300E0002303F001002F
:10238C0070470023FAE70023F8E70023F6E700BFC5
:10239C0004030020000300203000002070B5054627
:1023AC000D4B1E7C06EB46030C4C04EBC304204681
:1023BC0001F0F7FB0A4B00229A552846FFF7C8FF9D
:1023CC0000B970BD074B1A68013AD317064920466D
:1023DC0000F09EF8F5E700BFD40200202802002090
:1023EC00FC020020040300203D23000038B5EFF36D
:1023FC001185202383F31288BFF36F8F144B9C68D5
:10240C00144B1B68A34217D0124B00221A60104BBE
:10241C001B7C114AD35C53B12046FFF799FF30B1B6
:10242C00637B13F01F0F0FD02046FFF7B7FF85F328
:10243C001188BFF36F8F38BD2046FFF7AFFF85F3D0
:10244C001188BFF36F8FF6E72046FFF7BFFDEBE770
:10245C00D4020020F8020020FC020020EFF31181CE
:10246C00202383F31288BFF36F8F0A4B1B6A8342BE
:10247C0004D11A6F074B1A6207E0134613B11A6F97
:10248C008242FAD10BB1026F1A6781F31188BFF344
:10249C006F8F7047D402002008B50648064A121AFE
:1024AC00064901F0DFF9064A0649074801F0DAF956
:1024BC0008BD00BF000000200E000020C03F00003F
:1024CC0000000000C03F000000000020034B186813
:1024DC00984200D070470020FCE700BF04000020A9
:1024EC0030B1044A5268904201D000687047002015
:1024FC00704700BF0400002008B5044B1B680BB1EB
:10250C00002008BDFEF7E0FFFBE700BF080300203A
:10251C00B3F1FF3F08BFB2F1FF3F77D02DE9F04791
:10252C00044692461D4681600023EFF3118720225A
:10253C0082F31288BFF36F8F26E01AF1010845F180
:10254C000009FFF7D9FF18EB000349EBE07023619A
:10255C0060613BE0521A66EB03030261436143681E
:10256C00636020601C60446005E0294B5A6823605E
:10257C00626014605C60FFF7A9FF84423AD087F375
:10258C001188BFF36F8F0123002B3DD153466FF0A1
:10259C000101B1EB0A014FF0FF3060EB0502002A9C
:1025AC00CBDB1C4A116852685B1842EB05026FF0DA
:1025BC000101C91A60EB020308461A46012973F19E
:1025CC00000301DA0120002220616261FFF77EFF27
:1025DC000028CAD00269466921696369914273EB8C
:1025EC00060EB7DB891A63EB060321616361FFF703
:1025FC0077FFEDE7084B1B68002BC0D101F0B4FA54
:10260C000021FEF727FFBAE7BDE8F087704700BF4F
:10261C0004000020400200200803002070B5EFF3F6
:10262C001186202383F31288BFF36F8F2A4B186017
:10263C00FFF74CFF044623E0284A136851685B19E6
:10264C0041EBE5711360516000220023C4E90423BF
:10265C00204601F072FA86F31188BFF36F8FA368DE
:10266C0020469847EFF31186202383F31288BFF39B
:10267C006F8F194A13685B1B1360FFF727FF044623
:10268C003CB125696169144B1A68D317AA428B4176
:10269C00D2DA44B1236962690F4909685B1A62EBAB
:1026AC00E172236162610D4A0B4D28681368516811
:1026BC001B1841EBE0711360516000242C6001F099
:1026CC0053FA2146FEF7C6FE86F31188BFF36F8FCF
:1026DC00FFF78CFE70BD00BF0803002040020020F5
:1026EC0010B50022EFF31184202383F31288BFF37B
:1026FC006F8F134611460CE0FFF7FEFE074A136876
:10270C005168C31841EBE07184F31188BFF36F8FEC
:10271C000122002AF0D0184610BD00BF4002002054
:10272C00034B00E01433034A9342FBD3704700BFC2
:10273C00383D00004C3D00002DE9F04F8DB0436852
:10274C000293837815469A07804640F10D81002448
:10275C000E78002E00F00A81252E0BD04B1C039313
:10276C000134029B4146304698470028C0F2F6805F
:10277C000399EDE74E788B1C252E0393F0D00027A0
:10278C00B946BB46BBF11F0F38D8A6F12003102B5E
:10279C000AD8DFE803F02A090930090909210909D7
:1027AC000928092D09091F00A6F13003092B33D97B
:1027BC002A2E37D11BF0400F55F8043B40F0828095
:1027CC00002BA7BF4BF0200B9946C3F100094BF02F
:1027DC00280B01E04BF0010B039B13F8016B0393E7
:1027EC00002ECFD130E04BF0020B4BF0040BF3E793
:1027FC004BF0080BF0E74BF0100BEDE7BBF17F0F44
:10280C0019D8A6F13003092BD2D81BF0400F03D0F6
:10281C000A2101FB0737DFE70A2101FB09394BF0DD
:10282C00200BD9E72E2E06D11BF0400F40F09E80D6
:10283C004BF0400BD0E76C2E31D02BD8682E36D015
:10284C006A2E3CD04C2E3AD0002F46F02003B8BF55
:10285C002BF04002A3F16501BCBF1FFA82FB0027DD
:10286C00022901D9612B2FD1073525F00705DFF897
:10287C00ACA2083507271BF0080F66D00AEB070B34
:10288C0056465E4563D1A4EB0A0A06EB0A02A9EB95
:10289C0007096FE1742E9FD07A2E9DD0D4E71BF0E0
:1028AC00800F18BF4BF4007B4BF0800B94E71BF4AC
:1028BC00807F18BF4BF4007B4BF4807B8CE74BF490
:1028CC00207B89E71F4687E7A6F16301122900F2F6
:1028DC00F080DFE811F013004F00EE00EE00EE0088
:1028EC00EE004F00EE00EE00EE00EE00EE00FE00FB
:1028FC00E900EE00EE001B00EE00AF0055F8043BC3
:10290C008DF8183001270DF1180AB4E755F804AB0F
:10291C00834BBAF1000F08BF9A461BF0400F14BF4F
:10292C0039464FF0FF31504601F082F90746A2E7D5
:10293C00029B41462020984700280FDB013EB742FE
:10294C00F6D34C44A41BB14698E74E46F7E716F86D
:10295C00010B029B41469847002892DA98F8023006
:10296C0043F0040388F802304FF0FF3420460DB0DA
:10297C00BDE8F08F1BF0800F34D01BF4007F2CD0FF
:10298C00073525F00705AA4669685AF8080B2BF09D
:10299C0010050029ADB237DA404261EB410145F434
:1029AC0080650DF1180B0A235A4601F04DF9A0EB86
:1029BC000B0301936B0662D5019B25F001019F422D
:1029CC0089B240F3A180002E00F0998015F010021E
:1029DC0040F09C80BB460D4623E0AA465AF8040BF7
:1029EC00C117D4E7AA461BF4807F5AF8041B01D107
:1029FC000846F5E71BF4007F15BF48B208B241F357
:102A0C00C01141F3C031C2E750EA0103C9D11BF038
:102A1C00400FC6D0002FC4D12BF0110295B2BB468B
:102A2C00019740F2064115EA01021CBF0BF1010BA4
:102A3C0000222CE02BF010021FFA82FB0A231BF061
:102A4C00800C49D01BF400711DBF073525F007051C
:102A5C00AA46AA461ABF5AF8080B69685AF8040B1A
:102A6C0050EA010545D12BF016051BF0400FADB215
:102A7C0042D0002F40D12BF0170295B2019715F0E0
:102A8C00100248D0019B002E42D103F1010B290703
:102A9C005AD4EB0706D5D9456FDD0199A9EB0B0389
:102AAC005F18CB465B4649E04BF0100B10237826A1
:102ABC00C5E7782B04D1C6F1780343F01003BEE7C9
:102ACC00029B4146252098470028FFF647AF023469
:102ADC0047E608230026B2E7AA461BF480715AF891
:102AEC00040BBDD01BF400711ABFC0B2614680B29A
:102AFC00B6E72BF0060295B20DF1180B54E725F052
:102B0C001105ADB2BB468CE70D46B8E73B460D460A
:102B1C0003F1020BBBE7DDF804B082E7B73F00001E
:102B2C00B03F0000CDE904324146029B202098477B
:102B3C000028FFF613AF049B059A01339945F1DC8D
:102B4C00A4EB0B01CC189B460AB3029B41463020E8
:102B5C0098470028FFF602AF8EB901342744019B39
:102B6C00391B994224DC1D465DBB019AA9EB0B096C
:102B7C00224455461446914435E0019F92E70234B5
:102B8C0041463046029B98470028E7DAE6E640F2D9
:102B9C0006410D42E2D015F0020F14BF2B2020206D
:102BAC0015F4806F04F10104414618BF2D20E9E7AC
:102BBC00029B414630209847002804F10104CEDAEC
:102BCC00CCE606AB013D4146585D029B9847002878
:102BDC00CADAC3E6029B414620209847002804F13C
:102BEC000104FFF6BBAEA9EB0403002BF2DCBFE53E
:102BFC0070470020704700EBC1018368B3F5004FAC
:102C0C000AD322B14B6843F001034B6070474B6809
:102C1C0023F001034B60704722B14B8843F0010352
:102C2C004B8070474B8823F001034B807047131D7A
:102C3C0050F82330DBB9C3684FF0010C0CFA02FCDE
:102C4C0043EA0C03C360043240F8221000EBC103CA
:102C5C008268B2F5004F06D399608268B2F5004FD6
:102C6C0003D3D96070479980F7E7D980704710B5C6
:102C7C0000EBC30C8468B4F5004F1CD3DCF80820BF
:102C8C0000EBC10EB4F5004F18D3CEF808208468C1
:102C9C00B4F5004F15D3CEF80C3000EBC2028368AC
:102CAC00B3F5004F10D3D1608368B3F5004F0DD34B
:102CBC00CCF8081010BDBCF80420E1E7AEF80420F5
:102CCC00E5E7AEF80630E8E7D180EDE7ACF80410A4
:102CDC00F0E708B58368B3F5004F07D300EBC102EA
:102CEC0052685208012A02D0002200E00022A2B948
:102CFC0000EBC102B3F5004F10D352685208B3F584
:102D0C00004F0DD308230833A2EBD3020132B2FAE1
:102D1C0082F2C2F11F02FFF78AFF08BD5288EDE76D
:102D2C000423F0E7F8B5B2F5802F23D30823D21A89
:102D3C00CC1D24F0070401EB020C2CF0070CACEBBF
:102D4C00040C4FEADC010460A1600023E360BCF5D5
:102D5C00802F11D308230833A1EBD3030133B3FA2B
:102D6C0083F3C3F1200EC3F124039B00DE1DF50891
:102D7C00002308E00423DAE70423ECE71A1D002003
:102D8C0044F8220001337345F8DB6B00BCF5802F4F
:102D9C0032D36360BCF5802F30D300232360BCF5A5
:102DAC00802F2ED3636843F0010363604A1B5700E6
:102DBC0026F00703E018BCF5802F27D34760A068E6
:102DCC00B0F5004F24D3E5502CF00703A444A068C1
:102DDC00B0F5004F1ED30020CCF80400A068B0F56D
:102DEC00004F1BD3E25001222046FFF704FF294677
:102DFC002046FFF76EFFF8BD6380CBE700232380EE
:102E0C00CDE7638843F001036380CFE74780D6E7C3
:102E1C00E552D9E70020ACF80200DFE7E252E2E726
:102E2C00002070470FB400B583B004A951F8040B0F
:102E3C000191FDF7BFFA03B05DF804EB04B07047E5
:102E4C0001F00701038B23F007030B430383704747
:102E5C002DE9F04106460F469046816821B10C6879
:102E6C003CB131B90C4604E00C4602E02346214645
:102E7C001C4669B14D6843463A463046A847002C7B
:102E8C00F4D02368002BF2D0002CF0D12346EEE7CF
:102E9C00BDE8F081038B13F0070303D102680AB17C
:102EAC0003207047022B03D0012B06D00020704763
:102EBC00428B002AF8D10420704703680BB105201F
:102ECC0070470020704710B504468C46038B002ACF
:102EDC0007DB03F007035A1F012A0ED9042B36D047
:102EEC0010BDD0E900018CE803000023236063606F
:102EFC0001212046FFF7A4FFF2E7D0E900018CE89E
:102F0C000300002222606260062B1BD1DCF800302B
:102F1C0053B1628B013262831A461B68002BF7D0C7
:102F2C00002AF5D11346F3E702212046FFF788FF6C
:102F3C002046FFF7AFFF0028D2D0238B43F02003AD
:102F4C002383CDE700212046FFF77AFFF0E700212D
:102F5C00FFF776FF2046FFF79DFF0028C0D0238B9C
:102F6C0043F020032383BBE750B110B50C4651B19D
:102F7C00081D00F0C2F810B9A368032B06D810BDC9
:102F8C006FF0150070476FF01500F8E76FF0150043
:102F9C00F5E72DE9F04107460C4616461D46194645
:102FAC00201D00F0C1F828B180462B463246214640
:102FBC003846C047BDE8F0812DE9F04180460C460B
:102FCC0017461E4604E033463A464046FFF7E1FFFB
:102FDC00216831B10D68256063688B42F3D165605F
:102FEC00F1E7BDE8F08108B5EFF311824FF0200C4A
:102FFC008CF31288BFF36F8F41610121FDF70AFA40
:10300C0008BD034670B181B10A688AB14A6892B1B1
:10301C000020186058609860D860186158619861F9
:10302C00196170476FF0150070476FF0150070470D
:10303C006FF0150070476FF01500704770B50546BE
:10304C000E46FFF791FF041E2EDBEFF311822023B7
:10305C0083F31288BFF36F8FB5F818C00CF0070C10
:10306C006B8B4FF6FF718B422CD06446BCF1020F78
:10307C0008D0BCF1060F19D8DFE80CF01E18181890
:10308C001E2A1E0001336B8301230021084628B140
:10309C0000203060686808B306606E6009BB82F37C
:1030AC001188BFF36F8F0BBB204670BD6FF004040B
:1030BC00002319461846EAE7BCFA8CF149090023AB
:1030CC000120E4E76FF00A04002319461846DEE7F6
:1030DC006FF08504002319461846D8E76E602E6001
:1030EC00DCE702212846FDF795F9DDE7002362466F
:1030FC0031462846FFF74DFFD6E7024658B14368E4
:10310C0003F00303012B03D0032B07D1036843B156
:10311C000020906070476FF0150070476FF015003D
:10312C0070476FF0150070470346426802F00302C7
:10313C008160032A03D1006800225A607047002086
:10314C00FAE7704708B5012802D0FEF7D3FB08BD9B
:10315C00EFF30583F9E708B501460068FFF7F2FFC6
:10316C0008BD08B5FDF718FAFDF742FA08BD0020B6
:10317C00704700230B70704708B500231370CB1EEB
:10318C00092B1AD8DFE803F005090D1119191919C3
:10319C0019141146FDF728FB10E00021FDF73CFA4D
:1031AC000CE00021FDF78AFA08E0FDF7CDFA05E006
:1031BC001146FFF7DEFF002000E0002008BD08B537
:1031CC0040B2FDF78BFC08BD08B5013140B2FDF7EC
:1031DC0093FC08BD08B500210120FFF7B3FF08BD23
:1031EC0061B662B680F31188BFF36F8F704772B609
:1031FC00002383F31188BFF36F8FBFF34F8F30BF62
:10320C0062B6BFF36F8F704772B6002383F31188D9
:10321C00BFF36F8FBFF34F8F20BF80F31188BFF3C5
:10322C006F8F62B67047034619B101290CD000208C
:10323C007047D3F81804C0F300407AB1D3F81834AF
:10324C0003F0030313607047D3F80C04C0F3004081
:10325C0022B1D3F80C3403F00103137070470069EA
:10326C0001EB41018900383108447047406800EB9C
:10327C00C10070470069C1EBC10100EB81007047D0
:10328C0008B5C9B2FFF7EBFF806800F0070008BD76
:10329C00EFF31182202383F31288BFF36F8F03683F
:1032AC0013F0C00301D08B4207D10123036000202F
:1032BC0082F31188BFF36F8F70474FF0FF30F7E741
:1032CC00EFF31182202383F31288BFF36F8F03680F
:1032DC0003F0C00C03F00703012B08D08C4509D078
:1032EC004FF0FF3082F31188BFF36F8F704701608E
:1032FC000020F7E76FF07700F4E7EFF3118220235B
:10330C0083F31288BFF36F8F036803F0C00343F09D
:10331C000203036082F31188BFF36F8F7047F8B517
:10332C0006460C46FFF79BFF05684768002340F8EC
:10333C00083BFFF7E2FF1DB13A4621463046A8474D
:10334C00F8BD70B506461546CCB22146FFF787FF8F
:10335C0029460830FFF79CFF002806DB2146304643
:10336C00FFF784FF43689847002070BD08B58022A2
:10337C00FFF7E7FF08BD2DE9F041064690461F46D2
:10338C00CDB22946FFF76BFF044606990830FFF7CC
:10339C0097FF002809DBC4F8008067602946304697
:1033AC00FFF764FF036898470020BDE8F08110B573
:1033BC0082B080240094FFF7DEFF02B010BD10B580
:1033CC001446C9B2FFF756FF0021A04710BD08B53F
:1033DC000120FEF7DFF908BD08B5012000F011FA55
:1033EC0008BD08B5002000F00CFA08BD08B520EAAD
:1033FC00E070C117C90341EA5041C00340F2E73302
:10340C00C0184FF47A724FF0000341F10001FCF741
:10341C005FFEFEF759FF08BD08B51046FEF7D0FB5E
:10342C0008BD08B5FDF768FD0020FEF7B3F908BD2F
:10343C0000B5A2F5807E4FEA9E0E4FF0010C0CFAFF
:10344C000EFC1CEA010F0DD0815809B900200AE0CE
:10345C000021815082581BB11A684CEA02021A6092
:10346C00012000E000205DF804FB70B582B0064638
:10347C000D460024019409E0A20001AB02F5A072F4
:10348C0029463046FFF7D4FF0134E4B2032CF3D9BC
:10349C0015F0010F02D0D6F8003143B915F0020F28
:1034AC0002D0D6F8043163B9019802B070BD002384
:1034BC00C6F80031D6F80031019B43F001030193AB
:1034CC00ECE70023C6F80431D6F80431019B43F035
:1034DC0002030193E8E7401A20F07F40704700F1A7
:1034EC0050039B009BB203F1804303F588331868AB
:1034FC00003818BF0120704700F150039B009BB2AD
:10350C0003F1804303F5883300221A601B6870476F
:10351C0020F07F407047EFF31180202383F3128853
:10352C00BFF36F8F704780F31188BFF36F8F7047B5
:10353C00F0B585B0044617461D46FDF7BBFD0646A3
:10354C009DF8303002930B9B01930A9B00933A46F3
:10355C002B462046FDF77CFE054631462046FDF7FE
:10356C00FFFD284605B0F0BD4FF08053D3F8303145
:10357C00B3F1FF3F03D0062B06D0002070474FF06D
:10358C00704393F8E03FF6E7012070474FF070432B
:10359C0093F8E02FD3F8E83FC3F30313062A01D0C6
:1035AC0000207047033B002B04D8DFE803F0010038
:1035BC0001207047002070474FF08053D3F8303112
:1035CC00B3F1FF3F03D0062B06D0002070474FF01D
:1035DC00704393F8E03FF6E7012070474FF07043DB
:1035EC0093F8E02FD3F8E83FC3F30313062A01D076
:1035FC0000207047033B002B04D8DFE803F00100E8
:10360C0001207047002070474FF08053D3F83031C1
:10361C00B3F1FF3F03D0062B06D0002070474FF0CC
:10362C00704393F8E03FF6E7012070474FF070438A
:10363C0093F8E02FD3F8E83FC3F30313062A01D025
:10364C0000207047033B002B04D8DFE803F0010097
:10365C0001207047002070474FF0704393F8E02F23
:10366C00D3F8E83FC3F30313062A01D000207047B8
:10367C00033B002B04D8DFE803F001000120704766
:10368C00002070474FF08053D3F83031B3F1FF3F37
:10369C0007D04FF08052D2F83421062B0AD00020EC
:1036AC0070474FF0704292F8E03FD2F8E82FC2F327
:1036BC000312F2E7033A012A04D8DFE802F0010111
:1036CC0000207047012070474FF08053D3F8303101
:1036DC00B3F1FF3F03D0062B06D0002070474FF00C
:1036EC00704393F8E03FF6E7012070474FF08053AA
:1036FC00D3F83031B3F1FF3F03D0062B06D00020B6
:10370C0070474FF0704393F8E03FF6E701207047A5
:10371C004FF08053D3F83021D3F83431062A01D03E
:10372C0000207047052B03D8032B03D300207047D0
:10373C0001207047012070474FF08053D3F830219F
:10374C00D3F83431062A01D000207047062B03D859
:10375C00032B03D3002070470120704701207047D2
:10376C0008B5FFF7E9FF38B14FF01023D3F8082262
:10377C004FF08043C3F8582508BD08B5804708BDF5
:10378C0008B500F042F808BD034619B101290CD068
:10379C0000207047D3F81804C0F300407AB1D3F876
:1037AC00183403F0030313607047D3F80C04C0F310
:1037BC00004022B1D3F80C3403F0010313707047AE
:1037CC000020704708B50020FDF7AAF900B108BD2C
:1037DC00FFF7F5FCFBE738B504460368012B02D074
:1037EC0033B9012300E001231D461BB1284638BD27
:1037FC000023F9E70020FDF763FFFFF7E1FF2060EE
:10380C00F4E708B5FDF75CFF08BD00B9704708B5D3
:10381C00FDF73EFA08BDEFF31183202383F31288E2
:10382C00BFF36F8FFEE708B5FFF7F5FF10B54468DF
:10383C0003688BB12046984730B100280ADBFF287B
:10384C0000DDFF20E3681870E268537843F0010351
:10385C00537010BD4042F2E70020F5E708B500F0C8
:10386C00CFF908BD08B500F0BDF908BD704708B523
:10387C00EFF31183202383F31288BFF36F8FFFF7CD
:10388C00B6FCF5E700BF704710B5073222F007020F
:10389C008C182146FCF798FE073020F00700201A00
:1038AC0010BDEFF30580003818BF0120704708B534
:1038BC00FEF704FC08BD10B400248460037342734B
:1038CC008173C4738461C46110BC7047002070475D
:1038DC0008B5FDF79DF808BD90F90E3091F90E0072
:1038EC00834201D0C01A70470020704770B506465D
:1038FC00046884421AD0DCB16268236813605A6091
:10390C00002525606560637B23F002036373A5606B
:10391C0004F1180000F045F9C4F8A0502046FEF759
:10392C0051FA3468A642E6D10024E4E70024E2E729
:10393C0070BD70B505460E46FEF718FA6B7B43F06A
:10394C0002036B73FEB1AE603468A64208D100244A
:10395C0006E063686B602C601D60656013E00024FA
:10396C0064B121462846FFF7B7FF0028F1DC002C94
:10397C00F6D073689C42F2D02468F1E773682E602D
:10398C006B601D60756070BD70B5044616461D46B3
:10399C00FFF7CFFF32462B462046FEF703FA70BDE9
:1039AC0038B504460023EFF31185202282F31288E8
:1039BC00BFF36F8F04E085F31188BFF36F8F012382
:1039CC0043B92046FFF782FF0028F4D12046FEF7CA
:1039DC00F9F9F0E738BD10B50446183000F0E1F8FD
:1039EC00EFF31181202383F31288BFF36F8F637B76
:1039FC0013F0100F04D081F31188BFF36F8F10BD3B
:103A0C0000222046FEF7A6FAF9E770B504460E46EA
:103A1C000023EFF31185202282F31288BFF36F8FFE
:103A2C0007E02046FEF7CEF985F31188BFF36F8FC0
:103A3C000123DBB9637B13F0280FF5D1A3685BB1CD
:103A4C006268236813605A60002323606360627BA2
:103A5C0022F002026273A360637B23F004026273A0
:103A6C00002EDED023F014036373DAE770BD08B5C3
:103A7C0001211838FFF7C9FF08BD70B505460023B2
:103A8C00EFF31186202282F31288BFF36F8F1C464E
:103A9C0005E0002486F31188BFF36F8F0123ABB9C7
:103AAC002C68A542F5D0002CF4D062682368136012
:103ABC005A60002323606360627B22F0020262730F
:103ACC00A36004F1180000F06CF8E3E7204670BD29
:103ADC0008B5EFF31180202383F31288BFF36F8FA7
:103AEC00FEF70AFB08BD031D43608360704708B5F1
:103AFC00EFF31181202383F31288BFF36F8F037BC5
:103B0C0013F0010F08D1437B13F0080F11D081F390
:103B1C001188BFF36F8F0BE081F31188BFF36F8FA8
:103B2C00002383F31188BFF36F8F0423184602DF41
:103B3C0008BD0122FEF70EFAFAE710B50446FEF7AF
:103B4C00CFFC48B102460369416920691B186069C2
:103B5C0041EB0001136151616268236813605A6084
:103B6C0000232360636010BD10B5FEF7AFFC044664
:103B7C00FEF7C2FC7CB1236962691B1A62EBE0722E
:103B8C00B3F1004F72F1000108DA002A01DB18468C
:103B9C0010BD0023FBE76FF00040F9E76FF0004029
:103BAC00F6E770B504460023EFF31186202282F36A
:103BBC001288BFF36F8F6FF0150004E086F3118845
:103BCC00BFF36F8F01231D463BB92368002BF5D043
:103BDC002046FFF7B2FF2846F0E770BD08B5FEF7A8
:103BEC007FFD08BD0A44914200F1FF3300D17047BC
:103BFC0010B511F8014B03F8014F9142F9D110BDEA
:103C0C0002440346934200D1704703F8011BF9E7C5
:103C1C0010B50139044632B111F8013F00F8013BEF
:103C2C00013A002BF7D10021FFF7EAFF204610BD27
:103C3C0010B5024601448A42134603D01C78013267
:103C4C00002CF8D1181A10BDF0B5C3F13707044693
:103C5C00FFB203F01F031046082BE6B233D0102B33
:103C6C003ED06508A40844EA817445EAC1752D1953
:103C7C004FEA910242EB5102290941EA02716D1897
:103C8C0042EB1212290A41EA02616D1842EB122230
:103C9C00290C41EA02416D1842EB1242AD1842F177
:103CAC000002EC0844EA4274D10804EB8402A6EB4F
:103CBC004205EDB2092D0CD90134A5F10A0541F1EB
:103CCC000001EDB212E0E40844EA417406F0070585
:103CDC00C908303554EA010200F8015BBCD1F0BDD3
:103CEC00240944EA017406F00F050909092D84BF63
:103CFC00ED19EDB2EDE700000148006870470000D7
:043D0C004802002049
:083D100000C4FF7F0100000068
:103D18008D0C000000000000250F0000383D000059
:103D28000913000000000000690C000000000000FA
:103D38004C3F00005C3F00006C3F00000C0000207E
:043D48006C020020E9
:103D4C00851800008737000000000000E1310000FA
:103D5C0000000000E131000000000000E131000033
:103D6C0000000000E131000000000000E131000023
:103D7C0000000000E131000000000000E131000013
:103D8C0000000000E131000000000000E131000003
:103D9C0000000000E131000000000000E1310000F3
:103DAC0000000000E131000000000000E1310000E3
:103DBC0000000000E131000000000000E1310000D3
:103DCC0000000000E13100000000000021140000A0
:103DDC0000000000E131000000000000E1310000B3
:103DEC0000000000E131000000000000E1310000A3
:103DFC0000000000E131000000000000E131000093
:103E0C0000000000E131000000000000E131000082
:103E1C0000000000E131000000000000E131000072
:103E2C0000000000E131000000000000E131000062
:103E3C0000000000E131000000000000E131000052
:103E4C0000000000E131000000000000E131000042
:103E5C0000000000E131000000000000E131000032
:103E6C0000000000E131000000000000E131000022
:083E7C0000000000E13100002C
:103E8400040000000F000000010000000800000012
:103E94002000000060000000700000000D00000021
:103EA4000C0000000E000000500000007400000030
:103EB4009C000000FFFFFFFFFFFFFFFFFFFFFFFF6E
:043EC400FFFFFFFFFE
:103ED0000338FDD8704700002A2A2A20426F6F74E9
:103EE000696E67206E524620436F6E6E6563742064
:103EF00053444B2076322E392E302D3737383762E7
:103F000032363439383430202A2A2A0A0000000098
:103F10002A2A2A205573696E67205A65706879725B
:103F2000204F532076332E372E39392D316638669F
:103F30003364633239313432202A2A2A0A000000DD
:103F4000F50C0000D50C000000000000636C6F63EE
:103F50006B40343030303030303000005D0D0000C8
:103F6000CD0D00002F340000EF330000CD0E000017
:103F700079330000BB330000000000008D320000E8
:103F8000000000000000000069646C650000000093
:103F90006D61696E00000000183D0000183D0000D2
:103FA000283D0000303D0000383D0000383D000055
:103FB000286E756C6C29002A666C6F61742A00008B
:0C3FC0002D2E0000040000200400002052
:023FCC000000F3
:043FCE0015E015E005
:040000030000093DB3
:00000001FF
